{
	"TapToken.sol": {
		"TapToken": {
			"abi": [
				{
					"inputs": [],
					"stateMutability": "nonpayable",
					"type": "constructor"
				},
				{
					"anonymous": false,
					"inputs": [
						{
							"indexed": true,
							"internalType": "address",
							"name": "owner",
							"type": "address"
						},
						{
							"indexed": true,
							"internalType": "address",
							"name": "spender",
							"type": "address"
						},
						{
							"indexed": false,
							"internalType": "uint256",
							"name": "value",
							"type": "uint256"
						}
					],
					"name": "Approval",
					"type": "event"
				},
				{
					"anonymous": false,
					"inputs": [
						{
							"indexed": true,
							"internalType": "address",
							"name": "previousOwner",
							"type": "address"
						},
						{
							"indexed": true,
							"internalType": "address",
							"name": "newOwner",
							"type": "address"
						}
					],
					"name": "OwnershipTransferred",
					"type": "event"
				},
				{
					"anonymous": false,
					"inputs": [
						{
							"indexed": true,
							"internalType": "address",
							"name": "from",
							"type": "address"
						},
						{
							"indexed": true,
							"internalType": "address",
							"name": "to",
							"type": "address"
						},
						{
							"indexed": false,
							"internalType": "uint256",
							"name": "value",
							"type": "uint256"
						}
					],
					"name": "Transfer",
					"type": "event"
				},
				{
					"inputs": [
						{
							"internalType": "address",
							"name": "owner",
							"type": "address"
						},
						{
							"internalType": "address",
							"name": "spender",
							"type": "address"
						}
					],
					"name": "allowance",
					"outputs": [
						{
							"internalType": "uint256",
							"name": "",
							"type": "uint256"
						}
					],
					"stateMutability": "view",
					"type": "function"
				},
				{
					"inputs": [
						{
							"internalType": "address",
							"name": "spender",
							"type": "address"
						},
						{
							"internalType": "uint256",
							"name": "amount",
							"type": "uint256"
						}
					],
					"name": "approve",
					"outputs": [
						{
							"internalType": "bool",
							"name": "",
							"type": "bool"
						}
					],
					"stateMutability": "nonpayable",
					"type": "function"
				},
				{
					"inputs": [
						{
							"internalType": "address",
							"name": "account",
							"type": "address"
						}
					],
					"name": "balanceOf",
					"outputs": [
						{
							"internalType": "uint256",
							"name": "",
							"type": "uint256"
						}
					],
					"stateMutability": "view",
					"type": "function"
				},
				{
					"inputs": [
						{
							"internalType": "uint256",
							"name": "amount",
							"type": "uint256"
						}
					],
					"name": "burn",
					"outputs": [],
					"stateMutability": "nonpayable",
					"type": "function"
				},
				{
					"inputs": [
						{
							"internalType": "address",
							"name": "account",
							"type": "address"
						},
						{
							"internalType": "uint256",
							"name": "amount",
							"type": "uint256"
						}
					],
					"name": "burnFrom",
					"outputs": [],
					"stateMutability": "nonpayable",
					"type": "function"
				},
				{
					"inputs": [],
					"name": "decimals",
					"outputs": [
						{
							"internalType": "uint8",
							"name": "",
							"type": "uint8"
						}
					],
					"stateMutability": "view",
					"type": "function"
				},
				{
					"inputs": [
						{
							"internalType": "address",
							"name": "spender",
							"type": "address"
						},
						{
							"internalType": "uint256",
							"name": "subtractedValue",
							"type": "uint256"
						}
					],
					"name": "decreaseAllowance",
					"outputs": [
						{
							"internalType": "bool",
							"name": "",
							"type": "bool"
						}
					],
					"stateMutability": "nonpayable",
					"type": "function"
				},
				{
					"inputs": [
						{
							"internalType": "address",
							"name": "spender",
							"type": "address"
						},
						{
							"internalType": "uint256",
							"name": "addedValue",
							"type": "uint256"
						}
					],
					"name": "increaseAllowance",
					"outputs": [
						{
							"internalType": "bool",
							"name": "",
							"type": "bool"
						}
					],
					"stateMutability": "nonpayable",
					"type": "function"
				},
				{
					"inputs": [],
					"name": "name",
					"outputs": [
						{
							"internalType": "string",
							"name": "",
							"type": "string"
						}
					],
					"stateMutability": "view",
					"type": "function"
				},
				{
					"inputs": [],
					"name": "owner",
					"outputs": [
						{
							"internalType": "address",
							"name": "",
							"type": "address"
						}
					],
					"stateMutability": "view",
					"type": "function"
				},
				{
					"inputs": [],
					"name": "renounceOwnership",
					"outputs": [],
					"stateMutability": "nonpayable",
					"type": "function"
				},
				{
					"inputs": [],
					"name": "symbol",
					"outputs": [
						{
							"internalType": "string",
							"name": "",
							"type": "string"
						}
					],
					"stateMutability": "view",
					"type": "function"
				},
				{
					"inputs": [],
					"name": "totalSupply",
					"outputs": [
						{
							"internalType": "uint256",
							"name": "",
							"type": "uint256"
						}
					],
					"stateMutability": "view",
					"type": "function"
				},
				{
					"inputs": [
						{
							"internalType": "address",
							"name": "to",
							"type": "address"
						},
						{
							"internalType": "uint256",
							"name": "amount",
							"type": "uint256"
						}
					],
					"name": "transfer",
					"outputs": [
						{
							"internalType": "bool",
							"name": "",
							"type": "bool"
						}
					],
					"stateMutability": "nonpayable",
					"type": "function"
				},
				{
					"inputs": [
						{
							"internalType": "address",
							"name": "from",
							"type": "address"
						},
						{
							"internalType": "address",
							"name": "to",
							"type": "address"
						},
						{
							"internalType": "uint256",
							"name": "amount",
							"type": "uint256"
						}
					],
					"name": "transferFrom",
					"outputs": [
						{
							"internalType": "bool",
							"name": "",
							"type": "bool"
						}
					],
					"stateMutability": "nonpayable",
					"type": "function"
				},
				{
					"inputs": [
						{
							"internalType": "address",
							"name": "newOwner",
							"type": "address"
						}
					],
					"name": "transferOwnership",
					"outputs": [],
					"stateMutability": "nonpayable",
					"type": "function"
				}
			],
			"devdoc": {
				"events": {
					"Approval(address,address,uint256)": {
						"details": "Emitted when the allowance of a `spender` for an `owner` is set by a call to {approve}. `value` is the new allowance."
					},
					"Transfer(address,address,uint256)": {
						"details": "Emitted when `value` tokens are moved from one account (`from`) to another (`to`). Note that `value` may be zero."
					}
				},
				"kind": "dev",
				"methods": {
					"allowance(address,address)": {
						"details": "See {IERC20-allowance}."
					},
					"approve(address,uint256)": {
						"details": "See {IERC20-approve}. NOTE: If `amount` is the maximum `uint256`, the allowance is not updated on `transferFrom`. This is semantically equivalent to an infinite approval. Requirements: - `spender` cannot be the zero address."
					},
					"balanceOf(address)": {
						"details": "See {IERC20-balanceOf}."
					},
					"burn(uint256)": {
						"details": "Destroys `amount` tokens from the caller. See {ERC20-_burn}."
					},
					"burnFrom(address,uint256)": {
						"details": "Destroys `amount` tokens from `account`, deducting from the caller's allowance. See {ERC20-_burn} and {ERC20-allowance}. Requirements: - the caller must have allowance for ``accounts``'s tokens of at least `amount`."
					},
					"decimals()": {
						"details": "Returns the number of decimals used to get its user representation. For example, if `decimals` equals `2`, a balance of `505` tokens should be displayed to a user as `5.05` (`505 / 10 ** 2`). Tokens usually opt for a value of 18, imitating the relationship between Ether and Wei. This is the default value returned by this function, unless it's overridden. NOTE: This information is only used for _display_ purposes: it in no way affects any of the arithmetic of the contract, including {IERC20-balanceOf} and {IERC20-transfer}."
					},
					"decreaseAllowance(address,uint256)": {
						"details": "Atomically decreases the allowance granted to `spender` by the caller. This is an alternative to {approve} that can be used as a mitigation for problems described in {IERC20-approve}. Emits an {Approval} event indicating the updated allowance. Requirements: - `spender` cannot be the zero address. - `spender` must have allowance for the caller of at least `subtractedValue`."
					},
					"increaseAllowance(address,uint256)": {
						"details": "Atomically increases the allowance granted to `spender` by the caller. This is an alternative to {approve} that can be used as a mitigation for problems described in {IERC20-approve}. Emits an {Approval} event indicating the updated allowance. Requirements: - `spender` cannot be the zero address."
					},
					"name()": {
						"details": "Returns the name of the token."
					},
					"owner()": {
						"details": "Returns the address of the current owner."
					},
					"renounceOwnership()": {
						"details": "Leaves the contract without owner. It will not be possible to call `onlyOwner` functions. Can only be called by the current owner. NOTE: Renouncing ownership will leave the contract without an owner, thereby disabling any functionality that is only available to the owner."
					},
					"symbol()": {
						"details": "Returns the symbol of the token, usually a shorter version of the name."
					},
					"totalSupply()": {
						"details": "See {IERC20-totalSupply}."
					},
					"transfer(address,uint256)": {
						"details": "See {IERC20-transfer}. Requirements: - `to` cannot be the zero address. - the caller must have a balance of at least `amount`."
					},
					"transferFrom(address,address,uint256)": {
						"details": "See {IERC20-transferFrom}. Emits an {Approval} event indicating the updated allowance. This is not required by the EIP. See the note at the beginning of {ERC20}. NOTE: Does not update the allowance if the current allowance is the maximum `uint256`. Requirements: - `from` and `to` cannot be the zero address. - `from` must have a balance of at least `amount`. - the caller must have allowance for ``from``'s tokens of at least `amount`."
					},
					"transferOwnership(address)": {
						"details": "Transfers ownership of the contract to a new account (`newOwner`). Can only be called by the current owner."
					}
				},
				"version": 1
			},
			"evm": {
				"assembly": "    /* \"TapToken.sol\":142:316  contract TapToken is ERC20, ERC20Burnable, Ownable {... */\n  mstore(0x40, 0x80)\n    /* \"TapToken.sol\":200:313  constructor() ERC20(\"TapToken\", \"TAP\") {... */\n  callvalue\n  dup1\n  iszero\n  tag_1\n  jumpi\n  revert(0x00, 0x00)\ntag_1:\n  pop\n    /* \"ERC20.sol\":1964:2080  constructor(string memory name_, string memory symbol_) {... */\n  mload(0x40)\n  dup1\n  0x40\n  add\n  0x40\n  mstore\n  dup1\n  0x08\n  dup2\n  mstore\n  0x20\n  add\n  0x546170546f6b656e000000000000000000000000000000000000000000000000\n  dup2\n  mstore\n  pop\n  mload(0x40)\n  dup1\n  0x40\n  add\n  0x40\n  mstore\n  dup1\n  0x03\n  dup2\n  mstore\n  0x20\n  add\n  0x5441500000000000000000000000000000000000000000000000000000000000\n  dup2\n  mstore\n  pop\n    /* \"ERC20.sol\":2039:2044  name_ */\n  dup2\n    /* \"ERC20.sol\":2031:2036  _name */\n  0x03\n    /* \"ERC20.sol\":2031:2044  _name = name_ */\n  swap1\n  dup2\n  tag_6\n  swap2\n  swap1\n  tag_7\n  jump\t// in\ntag_6:\n  pop\n    /* \"ERC20.sol\":2065:2072  symbol_ */\n  dup1\n    /* \"ERC20.sol\":2055:2062  _symbol */\n  0x04\n    /* \"ERC20.sol\":2055:2072  _symbol = symbol_ */\n  swap1\n  dup2\n  tag_8\n  swap2\n  swap1\n  tag_7\n  jump\t// in\ntag_8:\n  pop\n    /* \"ERC20.sol\":1964:2080  constructor(string memory name_, string memory symbol_) {... */\n  pop\n  pop\n    /* \"Ownable.sol\":886:918  _transferOwnership(_msgSender()) */\n  tag_10\n    /* \"Ownable.sol\":905:917  _msgSender() */\n  tag_11\n    /* \"Ownable.sol\":905:915  _msgSender */\n  shl(0x20, tag_12)\n    /* \"Ownable.sol\":905:917  _msgSender() */\n  0x20\n  shr\n  jump\t// in\ntag_11:\n    /* \"Ownable.sol\":886:904  _transferOwnership */\n  shl(0x20, tag_13)\n    /* \"Ownable.sol\":886:918  _transferOwnership(_msgSender()) */\n  0x20\n  shr\n  jump\t// in\ntag_10:\n    /* \"TapToken.sol\":250:305  _mint(msg.sender, 10000000000000000 * 10 ** decimals()) */\n  tag_15\n    /* \"TapToken.sol\":256:266  msg.sender */\n  caller\n    /* \"TapToken.sol\":294:304  decimals() */\n  tag_16\n    /* \"TapToken.sol\":294:302  decimals */\n  shl(0x20, tag_17)\n    /* \"TapToken.sol\":294:304  decimals() */\n  0x20\n  shr\n  jump\t// in\ntag_16:\n    /* \"TapToken.sol\":288:290  10 */\n  0x0a\n    /* \"TapToken.sol\":288:304  10 ** decimals() */\n  tag_18\n  swap2\n  swap1\n  tag_19\n  jump\t// in\ntag_18:\n    /* \"TapToken.sol\":268:285  10000000000000000 */\n  0x2386f26fc10000\n    /* \"TapToken.sol\":268:304  10000000000000000 * 10 ** decimals() */\n  tag_20\n  swap2\n  swap1\n  tag_21\n  jump\t// in\ntag_20:\n    /* \"TapToken.sol\":250:255  _mint */\n  shl(0x20, tag_22)\n    /* \"TapToken.sol\":250:305  _mint(msg.sender, 10000000000000000 * 10 ** decimals()) */\n  0x20\n  shr\n  jump\t// in\ntag_15:\n    /* \"TapToken.sol\":142:316  contract TapToken is ERC20, ERC20Burnable, Ownable {... */\n  jump(tag_23)\n    /* \"Context.sol\":601:699  function _msgSender() internal view virtual returns (address) {... */\ntag_12:\n    /* \"Context.sol\":654:661  address */\n  0x00\n    /* \"Context.sol\":681:691  msg.sender */\n  caller\n    /* \"Context.sol\":674:691  return msg.sender */\n  swap1\n  pop\n    /* \"Context.sol\":601:699  function _msgSender() internal view virtual returns (address) {... */\n  swap1\n  jump\t// out\n    /* \"Ownable.sol\":2425:2616  function _transferOwnership(address newOwner) internal virtual {... */\ntag_13:\n    /* \"Ownable.sol\":2499:2515  address oldOwner */\n  0x00\n    /* \"Ownable.sol\":2518:2524  _owner */\n  0x05\n  0x00\n  swap1\n  sload\n  swap1\n  0x0100\n  exp\n  swap1\n  div\n  0xffffffffffffffffffffffffffffffffffffffff\n  and\n    /* \"Ownable.sol\":2499:2524  address oldOwner = _owner */\n  swap1\n  pop\n    /* \"Ownable.sol\":2544:2552  newOwner */\n  dup2\n    /* \"Ownable.sol\":2535:2541  _owner */\n  0x05\n  0x00\n    /* \"Ownable.sol\":2535:2552  _owner = newOwner */\n  0x0100\n  exp\n  dup2\n  sload\n  dup2\n  0xffffffffffffffffffffffffffffffffffffffff\n  mul\n  not\n  and\n  swap1\n  dup4\n  0xffffffffffffffffffffffffffffffffffffffff\n  and\n  mul\n  or\n  swap1\n  sstore\n  pop\n    /* \"Ownable.sol\":2599:2607  newOwner */\n  dup2\n    /* \"Ownable.sol\":2568:2608  OwnershipTransferred(oldOwner, newOwner) */\n  0xffffffffffffffffffffffffffffffffffffffff\n  and\n    /* \"Ownable.sol\":2589:2597  oldOwner */\n  dup2\n    /* \"Ownable.sol\":2568:2608  OwnershipTransferred(oldOwner, newOwner) */\n  0xffffffffffffffffffffffffffffffffffffffff\n  and\n  0x8be0079c531659141344cd1fd0a4f28419497f9722a3daafe3b4186f6b6457e0\n  mload(0x40)\n  mload(0x40)\n  dup1\n  swap2\n  sub\n  swap1\n  log3\n    /* \"Ownable.sol\":2488:2616  {... */\n  pop\n    /* \"Ownable.sol\":2425:2616  function _transferOwnership(address newOwner) internal virtual {... */\n  pop\n  jump\t// out\n    /* \"ERC20.sol\":3121:3214  function decimals() public view virtual override returns (uint8) {... */\ntag_17:\n    /* \"ERC20.sol\":3179:3184  uint8 */\n  0x00\n    /* \"ERC20.sol\":3204:3206  18 */\n  0x12\n    /* \"ERC20.sol\":3197:3206  return 18 */\n  swap1\n  pop\n    /* \"ERC20.sol\":3121:3214  function decimals() public view virtual override returns (uint8) {... */\n  swap1\n  jump\t// out\n    /* \"ERC20.sol\":8768:9376  function _mint(address account, uint256 amount) internal virtual {... */\ntag_22:\n    /* \"ERC20.sol\":8871:8872  0 */\n  0x00\n    /* \"ERC20.sol\":8852:8873  account != address(0) */\n  0xffffffffffffffffffffffffffffffffffffffff\n  and\n    /* \"ERC20.sol\":8852:8859  account */\n  dup3\n    /* \"ERC20.sol\":8852:8873  account != address(0) */\n  0xffffffffffffffffffffffffffffffffffffffff\n  and\n  sub\n    /* \"ERC20.sol\":8844:8909  require(account != address(0), \"ERC20: mint to the zero address\") */\n  tag_28\n  jumpi\n  mload(0x40)\n  0x08c379a000000000000000000000000000000000000000000000000000000000\n  dup2\n  mstore\n  0x04\n  add\n  tag_29\n  swap1\n  tag_30\n  jump\t// in\ntag_29:\n  mload(0x40)\n  dup1\n  swap2\n  sub\n  swap1\n  revert\ntag_28:\n    /* \"ERC20.sol\":8922:8971  _beforeTokenTransfer(address(0), account, amount) */\n  tag_31\n    /* \"ERC20.sol\":8951:8952  0 */\n  0x00\n    /* \"ERC20.sol\":8955:8962  account */\n  dup4\n    /* \"ERC20.sol\":8964:8970  amount */\n  dup4\n    /* \"ERC20.sol\":8922:8942  _beforeTokenTransfer */\n  shl(0x20, tag_32)\n    /* \"ERC20.sol\":8922:8971  _beforeTokenTransfer(address(0), account, amount) */\n  0x20\n  shr\n  jump\t// in\ntag_31:\n    /* \"ERC20.sol\":8999:9033  SafeMath.add(_totalSupply, amount) */\n  tag_33\n    /* \"ERC20.sol\":9012:9024  _totalSupply */\n  sload(0x02)\n    /* \"ERC20.sol\":9026:9032  amount */\n  dup3\n    /* \"ERC20.sol\":8999:9011  SafeMath.add */\n  shl(0x20, tag_34)\n    /* \"ERC20.sol\":8999:9033  SafeMath.add(_totalSupply, amount) */\n  0x20\n  shr\n  jump\t// in\ntag_33:\n    /* \"ERC20.sol\":8984:8996  _totalSupply */\n  0x02\n    /* \"ERC20.sol\":8984:9033  _totalSupply = SafeMath.add(_totalSupply, amount) */\n  dup2\n  swap1\n  sstore\n  pop\n    /* \"ERC20.sol\":9203:9243  SafeMath.add(_balances[account], amount) */\n  tag_35\n    /* \"ERC20.sol\":9216:9225  _balances */\n  0x00\n    /* \"ERC20.sol\":9216:9234  _balances[account] */\n  0x00\n    /* \"ERC20.sol\":9226:9233  account */\n  dup5\n    /* \"ERC20.sol\":9216:9234  _balances[account] */\n  0xffffffffffffffffffffffffffffffffffffffff\n  and\n  0xffffffffffffffffffffffffffffffffffffffff\n  and\n  dup2\n  mstore\n  0x20\n  add\n  swap1\n  dup2\n  mstore\n  0x20\n  add\n  0x00\n  keccak256\n  sload\n    /* \"ERC20.sol\":9236:9242  amount */\n  dup3\n    /* \"ERC20.sol\":9203:9215  SafeMath.add */\n  shl(0x20, tag_34)\n    /* \"ERC20.sol\":9203:9243  SafeMath.add(_balances[account], amount) */\n  0x20\n  shr\n  jump\t// in\ntag_35:\n    /* \"ERC20.sol\":9182:9191  _balances */\n  0x00\n    /* \"ERC20.sol\":9182:9200  _balances[account] */\n  0x00\n    /* \"ERC20.sol\":9192:9199  account */\n  dup5\n    /* \"ERC20.sol\":9182:9200  _balances[account] */\n  0xffffffffffffffffffffffffffffffffffffffff\n  and\n  0xffffffffffffffffffffffffffffffffffffffff\n  and\n  dup2\n  mstore\n  0x20\n  add\n  swap1\n  dup2\n  mstore\n  0x20\n  add\n  0x00\n  keccak256\n    /* \"ERC20.sol\":9182:9243  _balances[account] = SafeMath.add(_balances[account], amount) */\n  dup2\n  swap1\n  sstore\n  pop\n    /* \"ERC20.sol\":9291:9298  account */\n  dup2\n    /* \"ERC20.sol\":9270:9307  Transfer(address(0), account, amount) */\n  0xffffffffffffffffffffffffffffffffffffffff\n  and\n    /* \"ERC20.sol\":9287:9288  0 */\n  0x00\n    /* \"ERC20.sol\":9270:9307  Transfer(address(0), account, amount) */\n  0xffffffffffffffffffffffffffffffffffffffff\n  and\n  0xddf252ad1be2c89b69c2b068fc378daa952ba7f163c4a11628f55a4df523b3ef\n    /* \"ERC20.sol\":9300:9306  amount */\n  dup4\n    /* \"ERC20.sol\":9270:9307  Transfer(address(0), account, amount) */\n  mload(0x40)\n  tag_36\n  swap2\n  swap1\n  tag_37\n  jump\t// in\ntag_36:\n  mload(0x40)\n  dup1\n  swap2\n  sub\n  swap1\n  log3\n    /* \"ERC20.sol\":9320:9368  _afterTokenTransfer(address(0), account, amount) */\n  tag_38\n    /* \"ERC20.sol\":9348:9349  0 */\n  0x00\n    /* \"ERC20.sol\":9352:9359  account */\n  dup4\n    /* \"ERC20.sol\":9361:9367  amount */\n  dup4\n    /* \"ERC20.sol\":9320:9339  _afterTokenTransfer */\n  shl(0x20, tag_39)\n    /* \"ERC20.sol\":9320:9368  _afterTokenTransfer(address(0), account, amount) */\n  0x20\n  shr\n  jump\t// in\ntag_38:\n    /* \"ERC20.sol\":8768:9376  function _mint(address account, uint256 amount) internal virtual {... */\n  pop\n  pop\n  jump\t// out\n    /* \"ERC20.sol\":12531:12622  function _beforeTokenTransfer(address from, address to, uint256 amount) internal virtual {} */\ntag_32:\n  pop\n  pop\n  pop\n  jump\t// out\n    /* \"SafeMath.sol\":2765:2944  function add(uint256 a, uint256 b) internal pure returns (uint256) {... */\ntag_34:\n    /* \"SafeMath.sol\":2823:2830  uint256 */\n  0x00\n    /* \"SafeMath.sol\":2843:2852  uint256 c */\n  0x00\n    /* \"SafeMath.sol\":2859:2860  b */\n  dup3\n    /* \"SafeMath.sol\":2855:2856  a */\n  dup5\n    /* \"SafeMath.sol\":2855:2860  a + b */\n  tag_42\n  swap2\n  swap1\n  tag_43\n  jump\t// in\ntag_42:\n    /* \"SafeMath.sol\":2843:2860  uint256 c = a + b */\n  swap1\n  pop\n    /* \"SafeMath.sol\":2884:2885  a */\n  dup4\n    /* \"SafeMath.sol\":2879:2880  c */\n  dup2\n    /* \"SafeMath.sol\":2879:2885  c >= a */\n  lt\n  iszero\n    /* \"SafeMath.sol\":2871:2917  require(c >= a, \"SafeMath: addition overflow\") */\n  tag_44\n  jumpi\n  mload(0x40)\n  0x08c379a000000000000000000000000000000000000000000000000000000000\n  dup2\n  mstore\n  0x04\n  add\n  tag_45\n  swap1\n  tag_46\n  jump\t// in\ntag_45:\n  mload(0x40)\n  dup1\n  swap2\n  sub\n  swap1\n  revert\ntag_44:\n    /* \"SafeMath.sol\":2935:2936  c */\n  dup1\n    /* \"SafeMath.sol\":2928:2936  return c */\n  swap2\n  pop\n  pop\n    /* \"SafeMath.sol\":2765:2944  function add(uint256 a, uint256 b) internal pure returns (uint256) {... */\n  swap3\n  swap2\n  pop\n  pop\n  jump\t// out\n    /* \"ERC20.sol\":13226:13316  function _afterTokenTransfer(address from, address to, uint256 amount) internal virtual {} */\ntag_39:\n  pop\n  pop\n  pop\n  jump\t// out\n    /* \"#utility.yul\":7:106   */\ntag_48:\n    /* \"#utility.yul\":59:65   */\n  0x00\n    /* \"#utility.yul\":93:98   */\n  dup2\n    /* \"#utility.yul\":87:99   */\n  mload\n    /* \"#utility.yul\":77:99   */\n  swap1\n  pop\n    /* \"#utility.yul\":7:106   */\n  swap2\n  swap1\n  pop\n  jump\t// out\n    /* \"#utility.yul\":112:292   */\ntag_49:\n    /* \"#utility.yul\":160:237   */\n  0x4e487b7100000000000000000000000000000000000000000000000000000000\n    /* \"#utility.yul\":157:158   */\n  0x00\n    /* \"#utility.yul\":150:238   */\n  mstore\n    /* \"#utility.yul\":257:261   */\n  0x41\n    /* \"#utility.yul\":254:255   */\n  0x04\n    /* \"#utility.yul\":247:262   */\n  mstore\n    /* \"#utility.yul\":281:285   */\n  0x24\n    /* \"#utility.yul\":278:279   */\n  0x00\n    /* \"#utility.yul\":271:286   */\n  revert\n    /* \"#utility.yul\":298:478   */\ntag_50:\n    /* \"#utility.yul\":346:423   */\n  0x4e487b7100000000000000000000000000000000000000000000000000000000\n    /* \"#utility.yul\":343:344   */\n  0x00\n    /* \"#utility.yul\":336:424   */\n  mstore\n    /* \"#utility.yul\":443:447   */\n  0x22\n    /* \"#utility.yul\":440:441   */\n  0x04\n    /* \"#utility.yul\":433:448   */\n  mstore\n    /* \"#utility.yul\":467:471   */\n  0x24\n    /* \"#utility.yul\":464:465   */\n  0x00\n    /* \"#utility.yul\":457:472   */\n  revert\n    /* \"#utility.yul\":484:804   */\ntag_51:\n    /* \"#utility.yul\":528:534   */\n  0x00\n    /* \"#utility.yul\":565:566   */\n  0x02\n    /* \"#utility.yul\":559:563   */\n  dup3\n    /* \"#utility.yul\":555:567   */\n  div\n    /* \"#utility.yul\":545:567   */\n  swap1\n  pop\n    /* \"#utility.yul\":612:613   */\n  0x01\n    /* \"#utility.yul\":606:610   */\n  dup3\n    /* \"#utility.yul\":602:614   */\n  and\n    /* \"#utility.yul\":633:651   */\n  dup1\n    /* \"#utility.yul\":623:704   */\n  tag_84\n  jumpi\n    /* \"#utility.yul\":689:693   */\n  0x7f\n    /* \"#utility.yul\":681:687   */\n  dup3\n    /* \"#utility.yul\":677:694   */\n  and\n    /* \"#utility.yul\":667:694   */\n  swap2\n  pop\n    /* \"#utility.yul\":623:704   */\ntag_84:\n    /* \"#utility.yul\":751:753   */\n  0x20\n    /* \"#utility.yul\":743:749   */\n  dup3\n    /* \"#utility.yul\":740:754   */\n  lt\n    /* \"#utility.yul\":720:738   */\n  dup2\n    /* \"#utility.yul\":717:755   */\n  sub\n    /* \"#utility.yul\":714:798   */\n  tag_85\n  jumpi\n    /* \"#utility.yul\":770:788   */\n  tag_86\n  tag_50\n  jump\t// in\ntag_86:\n    /* \"#utility.yul\":714:798   */\ntag_85:\n    /* \"#utility.yul\":535:804   */\n  pop\n    /* \"#utility.yul\":484:804   */\n  swap2\n  swap1\n  pop\n  jump\t// out\n    /* \"#utility.yul\":810:951   */\ntag_52:\n    /* \"#utility.yul\":859:863   */\n  0x00\n    /* \"#utility.yul\":882:885   */\n  dup2\n    /* \"#utility.yul\":874:885   */\n  swap1\n  pop\n    /* \"#utility.yul\":905:908   */\n  dup2\n    /* \"#utility.yul\":902:903   */\n  0x00\n    /* \"#utility.yul\":895:909   */\n  mstore\n    /* \"#utility.yul\":939:943   */\n  0x20\n    /* \"#utility.yul\":936:937   */\n  0x00\n    /* \"#utility.yul\":926:944   */\n  keccak256\n    /* \"#utility.yul\":918:944   */\n  swap1\n  pop\n    /* \"#utility.yul\":810:951   */\n  swap2\n  swap1\n  pop\n  jump\t// out\n    /* \"#utility.yul\":957:1050   */\ntag_53:\n    /* \"#utility.yul\":994:1000   */\n  0x00\n    /* \"#utility.yul\":1041:1043   */\n  0x20\n    /* \"#utility.yul\":1036:1038   */\n  0x1f\n    /* \"#utility.yul\":1029:1034   */\n  dup4\n    /* \"#utility.yul\":1025:1039   */\n  add\n    /* \"#utility.yul\":1021:1044   */\n  div\n    /* \"#utility.yul\":1011:1044   */\n  swap1\n  pop\n    /* \"#utility.yul\":957:1050   */\n  swap2\n  swap1\n  pop\n  jump\t// out\n    /* \"#utility.yul\":1056:1163   */\ntag_54:\n    /* \"#utility.yul\":1100:1108   */\n  0x00\n    /* \"#utility.yul\":1150:1155   */\n  dup3\n    /* \"#utility.yul\":1144:1148   */\n  dup3\n    /* \"#utility.yul\":1140:1156   */\n  shl\n    /* \"#utility.yul\":1119:1156   */\n  swap1\n  pop\n    /* \"#utility.yul\":1056:1163   */\n  swap3\n  swap2\n  pop\n  pop\n  jump\t// out\n    /* \"#utility.yul\":1169:1562   */\ntag_55:\n    /* \"#utility.yul\":1238:1244   */\n  0x00\n    /* \"#utility.yul\":1288:1289   */\n  0x08\n    /* \"#utility.yul\":1276:1286   */\n  dup4\n    /* \"#utility.yul\":1272:1290   */\n  mul\n    /* \"#utility.yul\":1311:1408   */\n  tag_91\n    /* \"#utility.yul\":1341:1407   */\n  0xffffffffffffffffffffffffffffffffffffffffffffffffffffffffffffffff\n    /* \"#utility.yul\":1330:1339   */\n  dup3\n    /* \"#utility.yul\":1311:1408   */\n  tag_54\n  jump\t// in\ntag_91:\n    /* \"#utility.yul\":1429:1468   */\n  tag_92\n    /* \"#utility.yul\":1459:1467   */\n  dup7\n    /* \"#utility.yul\":1448:1457   */\n  dup4\n    /* \"#utility.yul\":1429:1468   */\n  tag_54\n  jump\t// in\ntag_92:\n    /* \"#utility.yul\":1417:1468   */\n  swap6\n  pop\n    /* \"#utility.yul\":1501:1505   */\n  dup1\n    /* \"#utility.yul\":1497:1506   */\n  not\n    /* \"#utility.yul\":1490:1495   */\n  dup5\n    /* \"#utility.yul\":1486:1507   */\n  and\n    /* \"#utility.yul\":1477:1507   */\n  swap4\n  pop\n    /* \"#utility.yul\":1550:1554   */\n  dup1\n    /* \"#utility.yul\":1540:1548   */\n  dup7\n    /* \"#utility.yul\":1536:1555   */\n  and\n    /* \"#utility.yul\":1529:1534   */\n  dup5\n    /* \"#utility.yul\":1526:1556   */\n  or\n    /* \"#utility.yul\":1516:1556   */\n  swap3\n  pop\n    /* \"#utility.yul\":1245:1562   */\n  pop\n  pop\n    /* \"#utility.yul\":1169:1562   */\n  swap4\n  swap3\n  pop\n  pop\n  pop\n  jump\t// out\n    /* \"#utility.yul\":1568:1645   */\ntag_56:\n    /* \"#utility.yul\":1605:1612   */\n  0x00\n    /* \"#utility.yul\":1634:1639   */\n  dup2\n    /* \"#utility.yul\":1623:1639   */\n  swap1\n  pop\n    /* \"#utility.yul\":1568:1645   */\n  swap2\n  swap1\n  pop\n  jump\t// out\n    /* \"#utility.yul\":1651:1711   */\ntag_57:\n    /* \"#utility.yul\":1679:1682   */\n  0x00\n    /* \"#utility.yul\":1700:1705   */\n  dup2\n    /* \"#utility.yul\":1693:1705   */\n  swap1\n  pop\n    /* \"#utility.yul\":1651:1711   */\n  swap2\n  swap1\n  pop\n  jump\t// out\n    /* \"#utility.yul\":1717:1859   */\ntag_58:\n    /* \"#utility.yul\":1767:1776   */\n  0x00\n    /* \"#utility.yul\":1800:1853   */\n  tag_96\n    /* \"#utility.yul\":1818:1852   */\n  tag_97\n    /* \"#utility.yul\":1827:1851   */\n  tag_98\n    /* \"#utility.yul\":1845:1850   */\n  dup5\n    /* \"#utility.yul\":1827:1851   */\n  tag_56\n  jump\t// in\ntag_98:\n    /* \"#utility.yul\":1818:1852   */\n  tag_57\n  jump\t// in\ntag_97:\n    /* \"#utility.yul\":1800:1853   */\n  tag_56\n  jump\t// in\ntag_96:\n    /* \"#utility.yul\":1787:1853   */\n  swap1\n  pop\n    /* \"#utility.yul\":1717:1859   */\n  swap2\n  swap1\n  pop\n  jump\t// out\n    /* \"#utility.yul\":1865:1940   */\ntag_59:\n    /* \"#utility.yul\":1908:1911   */\n  0x00\n    /* \"#utility.yul\":1929:1934   */\n  dup2\n    /* \"#utility.yul\":1922:1934   */\n  swap1\n  pop\n    /* \"#utility.yul\":1865:1940   */\n  swap2\n  swap1\n  pop\n  jump\t// out\n    /* \"#utility.yul\":1946:2215   */\ntag_60:\n    /* \"#utility.yul\":2056:2095   */\n  tag_101\n    /* \"#utility.yul\":2087:2094   */\n  dup4\n    /* \"#utility.yul\":2056:2095   */\n  tag_58\n  jump\t// in\ntag_101:\n    /* \"#utility.yul\":2117:2208   */\n  tag_102\n    /* \"#utility.yul\":2166:2207   */\n  tag_103\n    /* \"#utility.yul\":2190:2206   */\n  dup3\n    /* \"#utility.yul\":2166:2207   */\n  tag_59\n  jump\t// in\ntag_103:\n    /* \"#utility.yul\":2158:2164   */\n  dup5\n    /* \"#utility.yul\":2151:2155   */\n  dup5\n    /* \"#utility.yul\":2145:2156   */\n  sload\n    /* \"#utility.yul\":2117:2208   */\n  tag_55\n  jump\t// in\ntag_102:\n    /* \"#utility.yul\":2111:2115   */\n  dup3\n    /* \"#utility.yul\":2104:2209   */\n  sstore\n    /* \"#utility.yul\":2022:2215   */\n  pop\n    /* \"#utility.yul\":1946:2215   */\n  pop\n  pop\n  pop\n  jump\t// out\n    /* \"#utility.yul\":2221:2294   */\ntag_61:\n    /* \"#utility.yul\":2266:2269   */\n  0x00\n    /* \"#utility.yul\":2287:2288   */\n  0x00\n    /* \"#utility.yul\":2280:2288   */\n  swap1\n  pop\n    /* \"#utility.yul\":2221:2294   */\n  swap1\n  jump\t// out\n    /* \"#utility.yul\":2300:2489   */\ntag_62:\n    /* \"#utility.yul\":2377:2409   */\n  tag_106\n  tag_61\n  jump\t// in\ntag_106:\n    /* \"#utility.yul\":2418:2483   */\n  tag_107\n    /* \"#utility.yul\":2476:2482   */\n  dup2\n    /* \"#utility.yul\":2468:2474   */\n  dup5\n    /* \"#utility.yul\":2462:2466   */\n  dup5\n    /* \"#utility.yul\":2418:2483   */\n  tag_60\n  jump\t// in\ntag_107:\n    /* \"#utility.yul\":2353:2489   */\n  pop\n    /* \"#utility.yul\":2300:2489   */\n  pop\n  pop\n  jump\t// out\n    /* \"#utility.yul\":2495:2681   */\ntag_63:\n    /* \"#utility.yul\":2555:2675   */\ntag_109:\n    /* \"#utility.yul\":2572:2575   */\n  dup2\n    /* \"#utility.yul\":2565:2570   */\n  dup2\n    /* \"#utility.yul\":2562:2576   */\n  lt\n    /* \"#utility.yul\":2555:2675   */\n  iszero\n  tag_111\n  jumpi\n    /* \"#utility.yul\":2626:2665   */\n  tag_112\n    /* \"#utility.yul\":2663:2664   */\n  0x00\n    /* \"#utility.yul\":2656:2661   */\n  dup3\n    /* \"#utility.yul\":2626:2665   */\n  tag_62\n  jump\t// in\ntag_112:\n    /* \"#utility.yul\":2599:2600   */\n  0x01\n    /* \"#utility.yul\":2592:2597   */\n  dup2\n    /* \"#utility.yul\":2588:2601   */\n  add\n    /* \"#utility.yul\":2579:2601   */\n  swap1\n  pop\n    /* \"#utility.yul\":2555:2675   */\n  jump(tag_109)\ntag_111:\n    /* \"#utility.yul\":2495:2681   */\n  pop\n  pop\n  jump\t// out\n    /* \"#utility.yul\":2687:3230   */\ntag_64:\n    /* \"#utility.yul\":2788:2790   */\n  0x1f\n    /* \"#utility.yul\":2783:2786   */\n  dup3\n    /* \"#utility.yul\":2780:2791   */\n  gt\n    /* \"#utility.yul\":2777:3223   */\n  iszero\n  tag_114\n  jumpi\n    /* \"#utility.yul\":2822:2860   */\n  tag_115\n    /* \"#utility.yul\":2854:2859   */\n  dup2\n    /* \"#utility.yul\":2822:2860   */\n  tag_52\n  jump\t// in\ntag_115:\n    /* \"#utility.yul\":2906:2935   */\n  tag_116\n    /* \"#utility.yul\":2924:2934   */\n  dup5\n    /* \"#utility.yul\":2906:2935   */\n  tag_53\n  jump\t// in\ntag_116:\n    /* \"#utility.yul\":2896:2904   */\n  dup2\n    /* \"#utility.yul\":2892:2936   */\n  add\n    /* \"#utility.yul\":3089:3091   */\n  0x20\n    /* \"#utility.yul\":3077:3087   */\n  dup6\n    /* \"#utility.yul\":3074:3092   */\n  lt\n    /* \"#utility.yul\":3071:3120   */\n  iszero\n  tag_117\n  jumpi\n    /* \"#utility.yul\":3110:3118   */\n  dup2\n    /* \"#utility.yul\":3095:3118   */\n  swap1\n  pop\n    /* \"#utility.yul\":3071:3120   */\ntag_117:\n    /* \"#utility.yul\":3133:3213   */\n  tag_118\n    /* \"#utility.yul\":3189:3211   */\n  tag_119\n    /* \"#utility.yul\":3207:3210   */\n  dup6\n    /* \"#utility.yul\":3189:3211   */\n  tag_53\n  jump\t// in\ntag_119:\n    /* \"#utility.yul\":3179:3187   */\n  dup4\n    /* \"#utility.yul\":3175:3212   */\n  add\n    /* \"#utility.yul\":3162:3173   */\n  dup3\n    /* \"#utility.yul\":3133:3213   */\n  tag_63\n  jump\t// in\ntag_118:\n    /* \"#utility.yul\":2792:3223   */\n  pop\n  pop\n    /* \"#utility.yul\":2777:3223   */\ntag_114:\n    /* \"#utility.yul\":2687:3230   */\n  pop\n  pop\n  pop\n  jump\t// out\n    /* \"#utility.yul\":3236:3353   */\ntag_65:\n    /* \"#utility.yul\":3290:3298   */\n  0x00\n    /* \"#utility.yul\":3340:3345   */\n  dup3\n    /* \"#utility.yul\":3334:3338   */\n  dup3\n    /* \"#utility.yul\":3330:3346   */\n  shr\n    /* \"#utility.yul\":3309:3346   */\n  swap1\n  pop\n    /* \"#utility.yul\":3236:3353   */\n  swap3\n  swap2\n  pop\n  pop\n  jump\t// out\n    /* \"#utility.yul\":3359:3528   */\ntag_66:\n    /* \"#utility.yul\":3403:3409   */\n  0x00\n    /* \"#utility.yul\":3436:3487   */\n  tag_122\n    /* \"#utility.yul\":3484:3485   */\n  0x00\n    /* \"#utility.yul\":3480:3486   */\n  not\n    /* \"#utility.yul\":3472:3477   */\n  dup5\n    /* \"#utility.yul\":3469:3470   */\n  0x08\n    /* \"#utility.yul\":3465:3478   */\n  mul\n    /* \"#utility.yul\":3436:3487   */\n  tag_65\n  jump\t// in\ntag_122:\n    /* \"#utility.yul\":3432:3488   */\n  not\n    /* \"#utility.yul\":3517:3521   */\n  dup1\n    /* \"#utility.yul\":3511:3515   */\n  dup4\n    /* \"#utility.yul\":3507:3522   */\n  and\n    /* \"#utility.yul\":3497:3522   */\n  swap2\n  pop\n    /* \"#utility.yul\":3410:3528   */\n  pop\n    /* \"#utility.yul\":3359:3528   */\n  swap3\n  swap2\n  pop\n  pop\n  jump\t// out\n    /* \"#utility.yul\":3533:3828   */\ntag_67:\n    /* \"#utility.yul\":3609:3613   */\n  0x00\n    /* \"#utility.yul\":3755:3784   */\n  tag_124\n    /* \"#utility.yul\":3780:3783   */\n  dup4\n    /* \"#utility.yul\":3774:3778   */\n  dup4\n    /* \"#utility.yul\":3755:3784   */\n  tag_66\n  jump\t// in\ntag_124:\n    /* \"#utility.yul\":3747:3784   */\n  swap2\n  pop\n    /* \"#utility.yul\":3817:3820   */\n  dup3\n    /* \"#utility.yul\":3814:3815   */\n  0x02\n    /* \"#utility.yul\":3810:3821   */\n  mul\n    /* \"#utility.yul\":3804:3808   */\n  dup3\n    /* \"#utility.yul\":3801:3822   */\n  or\n    /* \"#utility.yul\":3793:3822   */\n  swap1\n  pop\n    /* \"#utility.yul\":3533:3828   */\n  swap3\n  swap2\n  pop\n  pop\n  jump\t// out\n    /* \"#utility.yul\":3833:5228   */\ntag_7:\n    /* \"#utility.yul\":3950:3987   */\n  tag_126\n    /* \"#utility.yul\":3983:3986   */\n  dup3\n    /* \"#utility.yul\":3950:3987   */\n  tag_48\n  jump\t// in\ntag_126:\n    /* \"#utility.yul\":4052:4070   */\n  0xffffffffffffffff\n    /* \"#utility.yul\":4044:4050   */\n  dup2\n    /* \"#utility.yul\":4041:4071   */\n  gt\n    /* \"#utility.yul\":4038:4094   */\n  iszero\n  tag_127\n  jumpi\n    /* \"#utility.yul\":4074:4092   */\n  tag_128\n  tag_49\n  jump\t// in\ntag_128:\n    /* \"#utility.yul\":4038:4094   */\ntag_127:\n    /* \"#utility.yul\":4118:4156   */\n  tag_129\n    /* \"#utility.yul\":4150:4154   */\n  dup3\n    /* \"#utility.yul\":4144:4155   */\n  sload\n    /* \"#utility.yul\":4118:4156   */\n  tag_51\n  jump\t// in\ntag_129:\n    /* \"#utility.yul\":4203:4270   */\n  tag_130\n    /* \"#utility.yul\":4263:4269   */\n  dup3\n    /* \"#utility.yul\":4255:4261   */\n  dup3\n    /* \"#utility.yul\":4249:4253   */\n  dup6\n    /* \"#utility.yul\":4203:4270   */\n  tag_64\n  jump\t// in\ntag_130:\n    /* \"#utility.yul\":4297:4298   */\n  0x00\n    /* \"#utility.yul\":4321:4325   */\n  0x20\n    /* \"#utility.yul\":4308:4325   */\n  swap1\n  pop\n    /* \"#utility.yul\":4353:4355   */\n  0x1f\n    /* \"#utility.yul\":4345:4351   */\n  dup4\n    /* \"#utility.yul\":4342:4356   */\n  gt\n    /* \"#utility.yul\":4370:4371   */\n  0x01\n    /* \"#utility.yul\":4365:4983   */\n  dup2\n  eq\n  tag_132\n  jumpi\n    /* \"#utility.yul\":5027:5028   */\n  0x00\n    /* \"#utility.yul\":5044:5050   */\n  dup5\n    /* \"#utility.yul\":5041:5118   */\n  iszero\n  tag_133\n  jumpi\n    /* \"#utility.yul\":5093:5102   */\n  dup3\n    /* \"#utility.yul\":5088:5091   */\n  dup8\n    /* \"#utility.yul\":5084:5103   */\n  add\n    /* \"#utility.yul\":5078:5104   */\n  mload\n    /* \"#utility.yul\":5069:5104   */\n  swap1\n  pop\n    /* \"#utility.yul\":5041:5118   */\ntag_133:\n    /* \"#utility.yul\":5144:5211   */\n  tag_134\n    /* \"#utility.yul\":5204:5210   */\n  dup6\n    /* \"#utility.yul\":5197:5202   */\n  dup3\n    /* \"#utility.yul\":5144:5211   */\n  tag_67\n  jump\t// in\ntag_134:\n    /* \"#utility.yul\":5138:5142   */\n  dup7\n    /* \"#utility.yul\":5131:5212   */\n  sstore\n    /* \"#utility.yul\":5000:5222   */\n  pop\n    /* \"#utility.yul\":4335:5222   */\n  jump(tag_131)\n    /* \"#utility.yul\":4365:4983   */\ntag_132:\n    /* \"#utility.yul\":4417:4421   */\n  0x1f\n    /* \"#utility.yul\":4413:4422   */\n  not\n    /* \"#utility.yul\":4405:4411   */\n  dup5\n    /* \"#utility.yul\":4401:4423   */\n  and\n    /* \"#utility.yul\":4451:4488   */\n  tag_135\n    /* \"#utility.yul\":4483:4487   */\n  dup7\n    /* \"#utility.yul\":4451:4488   */\n  tag_52\n  jump\t// in\ntag_135:\n    /* \"#utility.yul\":4510:4511   */\n  0x00\n    /* \"#utility.yul\":4524:4732   */\ntag_136:\n    /* \"#utility.yul\":4538:4545   */\n  dup3\n    /* \"#utility.yul\":4535:4536   */\n  dup2\n    /* \"#utility.yul\":4532:4546   */\n  lt\n    /* \"#utility.yul\":4524:4732   */\n  iszero\n  tag_138\n  jumpi\n    /* \"#utility.yul\":4617:4626   */\n  dup5\n    /* \"#utility.yul\":4612:4615   */\n  dup10\n    /* \"#utility.yul\":4608:4627   */\n  add\n    /* \"#utility.yul\":4602:4628   */\n  mload\n    /* \"#utility.yul\":4594:4600   */\n  dup3\n    /* \"#utility.yul\":4587:4629   */\n  sstore\n    /* \"#utility.yul\":4668:4669   */\n  0x01\n    /* \"#utility.yul\":4660:4666   */\n  dup3\n    /* \"#utility.yul\":4656:4670   */\n  add\n    /* \"#utility.yul\":4646:4670   */\n  swap2\n  pop\n    /* \"#utility.yul\":4715:4717   */\n  0x20\n    /* \"#utility.yul\":4704:4713   */\n  dup6\n    /* \"#utility.yul\":4700:4718   */\n  add\n    /* \"#utility.yul\":4687:4718   */\n  swap5\n  pop\n    /* \"#utility.yul\":4561:4565   */\n  0x20\n    /* \"#utility.yul\":4558:4559   */\n  dup2\n    /* \"#utility.yul\":4554:4566   */\n  add\n    /* \"#utility.yul\":4549:4566   */\n  swap1\n  pop\n    /* \"#utility.yul\":4524:4732   */\n  jump(tag_136)\ntag_138:\n    /* \"#utility.yul\":4760:4766   */\n  dup7\n    /* \"#utility.yul\":4751:4758   */\n  dup4\n    /* \"#utility.yul\":4748:4767   */\n  lt\n    /* \"#utility.yul\":4745:4924   */\n  iszero\n  tag_139\n  jumpi\n    /* \"#utility.yul\":4818:4827   */\n  dup5\n    /* \"#utility.yul\":4813:4816   */\n  dup10\n    /* \"#utility.yul\":4809:4828   */\n  add\n    /* \"#utility.yul\":4803:4829   */\n  mload\n    /* \"#utility.yul\":4861:4909   */\n  tag_140\n    /* \"#utility.yul\":4903:4907   */\n  0x1f\n    /* \"#utility.yul\":4895:4901   */\n  dup10\n    /* \"#utility.yul\":4891:4908   */\n  and\n    /* \"#utility.yul\":4880:4889   */\n  dup3\n    /* \"#utility.yul\":4861:4909   */\n  tag_66\n  jump\t// in\ntag_140:\n    /* \"#utility.yul\":4853:4859   */\n  dup4\n    /* \"#utility.yul\":4846:4910   */\n  sstore\n    /* \"#utility.yul\":4768:4924   */\n  pop\n    /* \"#utility.yul\":4745:4924   */\ntag_139:\n    /* \"#utility.yul\":4970:4971   */\n  0x01\n    /* \"#utility.yul\":4966:4967   */\n  0x02\n    /* \"#utility.yul\":4958:4964   */\n  dup9\n    /* \"#utility.yul\":4954:4968   */\n  mul\n    /* \"#utility.yul\":4950:4972   */\n  add\n    /* \"#utility.yul\":4944:4948   */\n  dup9\n    /* \"#utility.yul\":4937:4973   */\n  sstore\n    /* \"#utility.yul\":4372:4983   */\n  pop\n  pop\n  pop\n    /* \"#utility.yul\":4335:5222   */\ntag_131:\n  pop\n    /* \"#utility.yul\":3925:5228   */\n  pop\n  pop\n  pop\n    /* \"#utility.yul\":3833:5228   */\n  pop\n  pop\n  jump\t// out\n    /* \"#utility.yul\":5234:5414   */\ntag_68:\n    /* \"#utility.yul\":5282:5359   */\n  0x4e487b7100000000000000000000000000000000000000000000000000000000\n    /* \"#utility.yul\":5279:5280   */\n  0x00\n    /* \"#utility.yul\":5272:5360   */\n  mstore\n    /* \"#utility.yul\":5379:5383   */\n  0x11\n    /* \"#utility.yul\":5376:5377   */\n  0x04\n    /* \"#utility.yul\":5369:5384   */\n  mstore\n    /* \"#utility.yul\":5403:5407   */\n  0x24\n    /* \"#utility.yul\":5400:5401   */\n  0x00\n    /* \"#utility.yul\":5393:5408   */\n  revert\n    /* \"#utility.yul\":5420:5522   */\ntag_69:\n    /* \"#utility.yul\":5462:5470   */\n  0x00\n    /* \"#utility.yul\":5509:5514   */\n  dup2\n    /* \"#utility.yul\":5506:5507   */\n  0x01\n    /* \"#utility.yul\":5502:5515   */\n  shr\n    /* \"#utility.yul\":5481:5515   */\n  swap1\n  pop\n    /* \"#utility.yul\":5420:5522   */\n  swap2\n  swap1\n  pop\n  jump\t// out\n    /* \"#utility.yul\":5528:6376   */\ntag_70:\n    /* \"#utility.yul\":5589:5594   */\n  0x00\n    /* \"#utility.yul\":5596:5600   */\n  0x00\n    /* \"#utility.yul\":5620:5626   */\n  dup3\n    /* \"#utility.yul\":5611:5626   */\n  swap2\n  pop\n    /* \"#utility.yul\":5644:5649   */\n  dup4\n    /* \"#utility.yul\":5635:5649   */\n  swap1\n  pop\n    /* \"#utility.yul\":5658:6370   */\ntag_144:\n    /* \"#utility.yul\":5679:5680   */\n  0x01\n    /* \"#utility.yul\":5669:5677   */\n  dup6\n    /* \"#utility.yul\":5666:5681   */\n  gt\n    /* \"#utility.yul\":5658:6370   */\n  iszero\n  tag_146\n  jumpi\n    /* \"#utility.yul\":5774:5778   */\n  dup1\n    /* \"#utility.yul\":5769:5772   */\n  dup7\n    /* \"#utility.yul\":5765:5779   */\n  div\n    /* \"#utility.yul\":5759:5763   */\n  dup2\n    /* \"#utility.yul\":5756:5780   */\n  gt\n    /* \"#utility.yul\":5753:5803   */\n  iszero\n  tag_147\n  jumpi\n    /* \"#utility.yul\":5783:5801   */\n  tag_148\n  tag_68\n  jump\t// in\ntag_148:\n    /* \"#utility.yul\":5753:5803   */\ntag_147:\n    /* \"#utility.yul\":5833:5834   */\n  0x01\n    /* \"#utility.yul\":5823:5831   */\n  dup6\n    /* \"#utility.yul\":5819:5835   */\n  and\n    /* \"#utility.yul\":5816:6267   */\n  iszero\n  tag_149\n  jumpi\n    /* \"#utility.yul\":6248:6252   */\n  dup1\n    /* \"#utility.yul\":6241:6246   */\n  dup3\n    /* \"#utility.yul\":6237:6253   */\n  mul\n    /* \"#utility.yul\":6228:6253   */\n  swap2\n  pop\n    /* \"#utility.yul\":5816:6267   */\ntag_149:\n    /* \"#utility.yul\":6298:6302   */\n  dup1\n    /* \"#utility.yul\":6292:6296   */\n  dup2\n    /* \"#utility.yul\":6288:6303   */\n  mul\n    /* \"#utility.yul\":6280:6303   */\n  swap1\n  pop\n    /* \"#utility.yul\":6328:6360   */\n  tag_150\n    /* \"#utility.yul\":6351:6359   */\n  dup6\n    /* \"#utility.yul\":6328:6360   */\n  tag_69\n  jump\t// in\ntag_150:\n    /* \"#utility.yul\":6316:6360   */\n  swap5\n  pop\n    /* \"#utility.yul\":5658:6370   */\n  jump(tag_144)\ntag_146:\n    /* \"#utility.yul\":5528:6376   */\n  swap5\n  pop\n  swap5\n  swap3\n  pop\n  pop\n  pop\n  jump\t// out\n    /* \"#utility.yul\":6382:7455   */\ntag_71:\n    /* \"#utility.yul\":6436:6441   */\n  0x00\n    /* \"#utility.yul\":6627:6635   */\n  dup3\n    /* \"#utility.yul\":6617:6657   */\n  tag_152\n  jumpi\n    /* \"#utility.yul\":6648:6649   */\n  0x01\n    /* \"#utility.yul\":6639:6649   */\n  swap1\n  pop\n    /* \"#utility.yul\":6650:6655   */\n  jump(tag_151)\n    /* \"#utility.yul\":6617:6657   */\ntag_152:\n    /* \"#utility.yul\":6676:6680   */\n  dup2\n    /* \"#utility.yul\":6666:6702   */\n  tag_153\n  jumpi\n    /* \"#utility.yul\":6693:6694   */\n  0x00\n    /* \"#utility.yul\":6684:6694   */\n  swap1\n  pop\n    /* \"#utility.yul\":6695:6700   */\n  jump(tag_151)\n    /* \"#utility.yul\":6666:6702   */\ntag_153:\n    /* \"#utility.yul\":6762:6766   */\n  dup2\n    /* \"#utility.yul\":6810:6811   */\n  0x01\n    /* \"#utility.yul\":6805:6832   */\n  dup2\n  eq\n  tag_155\n  jumpi\n    /* \"#utility.yul\":6846:6847   */\n  0x02\n    /* \"#utility.yul\":6841:7032   */\n  dup2\n  eq\n  tag_156\n  jumpi\n    /* \"#utility.yul\":6755:7032   */\n  jump(tag_154)\n    /* \"#utility.yul\":6805:6832   */\ntag_155:\n    /* \"#utility.yul\":6823:6824   */\n  0x01\n    /* \"#utility.yul\":6814:6824   */\n  swap2\n  pop\n    /* \"#utility.yul\":6825:6830   */\n  pop\n  jump(tag_151)\n    /* \"#utility.yul\":6841:7032   */\ntag_156:\n    /* \"#utility.yul\":6886:6889   */\n  0xff\n    /* \"#utility.yul\":6876:6884   */\n  dup5\n    /* \"#utility.yul\":6873:6890   */\n  gt\n    /* \"#utility.yul\":6870:6913   */\n  iszero\n  tag_157\n  jumpi\n    /* \"#utility.yul\":6893:6911   */\n  tag_158\n  tag_68\n  jump\t// in\ntag_158:\n    /* \"#utility.yul\":6870:6913   */\ntag_157:\n    /* \"#utility.yul\":6942:6950   */\n  dup4\n    /* \"#utility.yul\":6939:6940   */\n  0x02\n    /* \"#utility.yul\":6935:6951   */\n  exp\n    /* \"#utility.yul\":6926:6951   */\n  swap2\n  pop\n    /* \"#utility.yul\":6977:6980   */\n  dup5\n    /* \"#utility.yul\":6970:6975   */\n  dup3\n    /* \"#utility.yul\":6967:6981   */\n  gt\n    /* \"#utility.yul\":6964:7004   */\n  iszero\n  tag_159\n  jumpi\n    /* \"#utility.yul\":6984:7002   */\n  tag_160\n  tag_68\n  jump\t// in\ntag_160:\n    /* \"#utility.yul\":6964:7004   */\ntag_159:\n    /* \"#utility.yul\":7017:7022   */\n  pop\n  jump(tag_151)\n    /* \"#utility.yul\":6755:7032   */\ntag_154:\n  pop\n    /* \"#utility.yul\":7141:7143   */\n  0x20\n    /* \"#utility.yul\":7131:7139   */\n  dup4\n    /* \"#utility.yul\":7128:7144   */\n  lt\n    /* \"#utility.yul\":7122:7125   */\n  0x0133\n    /* \"#utility.yul\":7116:7120   */\n  dup4\n    /* \"#utility.yul\":7113:7126   */\n  lt\n    /* \"#utility.yul\":7109:7145   */\n  and\n    /* \"#utility.yul\":7091:7093   */\n  0x4e\n    /* \"#utility.yul\":7081:7089   */\n  dup5\n    /* \"#utility.yul\":7078:7094   */\n  lt\n    /* \"#utility.yul\":7073:7075   */\n  0x0b\n    /* \"#utility.yul\":7067:7071   */\n  dup5\n    /* \"#utility.yul\":7064:7076   */\n  lt\n    /* \"#utility.yul\":7060:7095   */\n  and\n    /* \"#utility.yul\":7044:7155   */\n  or\n    /* \"#utility.yul\":7041:7287   */\n  iszero\n  tag_161\n  jumpi\n    /* \"#utility.yul\":7197:7205   */\n  dup3\n    /* \"#utility.yul\":7191:7195   */\n  dup3\n    /* \"#utility.yul\":7187:7206   */\n  exp\n    /* \"#utility.yul\":7178:7206   */\n  swap1\n  pop\n    /* \"#utility.yul\":7232:7235   */\n  dup4\n    /* \"#utility.yul\":7225:7230   */\n  dup2\n    /* \"#utility.yul\":7222:7236   */\n  gt\n    /* \"#utility.yul\":7219:7259   */\n  iszero\n  tag_162\n  jumpi\n    /* \"#utility.yul\":7239:7257   */\n  tag_163\n  tag_68\n  jump\t// in\ntag_163:\n    /* \"#utility.yul\":7219:7259   */\ntag_162:\n    /* \"#utility.yul\":7272:7277   */\n  jump(tag_151)\n    /* \"#utility.yul\":7041:7287   */\ntag_161:\n    /* \"#utility.yul\":7312:7354   */\n  tag_164\n    /* \"#utility.yul\":7350:7353   */\n  dup5\n    /* \"#utility.yul\":7340:7348   */\n  dup5\n    /* \"#utility.yul\":7334:7338   */\n  dup5\n    /* \"#utility.yul\":7331:7332   */\n  0x01\n    /* \"#utility.yul\":7312:7354   */\n  tag_70\n  jump\t// in\ntag_164:\n    /* \"#utility.yul\":7297:7354   */\n  swap3\n  pop\n  swap1\n  pop\n    /* \"#utility.yul\":7386:7390   */\n  dup2\n    /* \"#utility.yul\":7381:7384   */\n  dup5\n    /* \"#utility.yul\":7377:7391   */\n  div\n    /* \"#utility.yul\":7370:7375   */\n  dup2\n    /* \"#utility.yul\":7367:7392   */\n  gt\n    /* \"#utility.yul\":7364:7415   */\n  iszero\n  tag_165\n  jumpi\n    /* \"#utility.yul\":7395:7413   */\n  tag_166\n  tag_68\n  jump\t// in\ntag_166:\n    /* \"#utility.yul\":7364:7415   */\ntag_165:\n    /* \"#utility.yul\":7444:7448   */\n  dup2\n    /* \"#utility.yul\":7437:7442   */\n  dup2\n    /* \"#utility.yul\":7433:7449   */\n  mul\n    /* \"#utility.yul\":7424:7449   */\n  swap1\n  pop\n    /* \"#utility.yul\":6382:7455   */\ntag_151:\n  swap4\n  swap3\n  pop\n  pop\n  pop\n  jump\t// out\n    /* \"#utility.yul\":7461:7547   */\ntag_72:\n    /* \"#utility.yul\":7496:7503   */\n  0x00\n    /* \"#utility.yul\":7536:7540   */\n  0xff\n    /* \"#utility.yul\":7529:7534   */\n  dup3\n    /* \"#utility.yul\":7525:7541   */\n  and\n    /* \"#utility.yul\":7514:7541   */\n  swap1\n  pop\n    /* \"#utility.yul\":7461:7547   */\n  swap2\n  swap1\n  pop\n  jump\t// out\n    /* \"#utility.yul\":7553:7834   */\ntag_19:\n    /* \"#utility.yul\":7611:7616   */\n  0x00\n    /* \"#utility.yul\":7635:7658   */\n  tag_169\n    /* \"#utility.yul\":7653:7657   */\n  dup3\n    /* \"#utility.yul\":7635:7658   */\n  tag_56\n  jump\t// in\ntag_169:\n    /* \"#utility.yul\":7627:7658   */\n  swap2\n  pop\n    /* \"#utility.yul\":7679:7704   */\n  tag_170\n    /* \"#utility.yul\":7695:7703   */\n  dup4\n    /* \"#utility.yul\":7679:7704   */\n  tag_72\n  jump\t// in\ntag_170:\n    /* \"#utility.yul\":7667:7704   */\n  swap3\n  pop\n    /* \"#utility.yul\":7723:7827   */\n  tag_171\n    /* \"#utility.yul\":7760:7826   */\n  0xffffffffffffffffffffffffffffffffffffffffffffffffffffffffffffffff\n    /* \"#utility.yul\":7750:7758   */\n  dup5\n    /* \"#utility.yul\":7744:7748   */\n  dup5\n    /* \"#utility.yul\":7723:7827   */\n  tag_71\n  jump\t// in\ntag_171:\n    /* \"#utility.yul\":7714:7827   */\n  swap1\n  pop\n    /* \"#utility.yul\":7553:7834   */\n  swap3\n  swap2\n  pop\n  pop\n  jump\t// out\n    /* \"#utility.yul\":7840:8250   */\ntag_21:\n    /* \"#utility.yul\":7880:7887   */\n  0x00\n    /* \"#utility.yul\":7903:7923   */\n  tag_173\n    /* \"#utility.yul\":7921:7922   */\n  dup3\n    /* \"#utility.yul\":7903:7923   */\n  tag_56\n  jump\t// in\ntag_173:\n    /* \"#utility.yul\":7898:7923   */\n  swap2\n  pop\n    /* \"#utility.yul\":7937:7957   */\n  tag_174\n    /* \"#utility.yul\":7955:7956   */\n  dup4\n    /* \"#utility.yul\":7937:7957   */\n  tag_56\n  jump\t// in\ntag_174:\n    /* \"#utility.yul\":7932:7957   */\n  swap3\n  pop\n    /* \"#utility.yul\":7992:7993   */\n  dup3\n    /* \"#utility.yul\":7989:7990   */\n  dup3\n    /* \"#utility.yul\":7985:7994   */\n  mul\n    /* \"#utility.yul\":8014:8044   */\n  tag_175\n    /* \"#utility.yul\":8032:8043   */\n  dup2\n    /* \"#utility.yul\":8014:8044   */\n  tag_56\n  jump\t// in\ntag_175:\n    /* \"#utility.yul\":8003:8044   */\n  swap2\n  pop\n    /* \"#utility.yul\":8193:8194   */\n  dup3\n    /* \"#utility.yul\":8184:8191   */\n  dup3\n    /* \"#utility.yul\":8180:8195   */\n  div\n    /* \"#utility.yul\":8177:8178   */\n  dup5\n    /* \"#utility.yul\":8174:8196   */\n  eq\n    /* \"#utility.yul\":8154:8155   */\n  dup4\n    /* \"#utility.yul\":8147:8156   */\n  iszero\n    /* \"#utility.yul\":8127:8210   */\n  or\n    /* \"#utility.yul\":8104:8243   */\n  tag_176\n  jumpi\n    /* \"#utility.yul\":8223:8241   */\n  tag_177\n  tag_68\n  jump\t// in\ntag_177:\n    /* \"#utility.yul\":8104:8243   */\ntag_176:\n    /* \"#utility.yul\":7888:8250   */\n  pop\n    /* \"#utility.yul\":7840:8250   */\n  swap3\n  swap2\n  pop\n  pop\n  jump\t// out\n    /* \"#utility.yul\":8256:8425   */\ntag_73:\n    /* \"#utility.yul\":8340:8351   */\n  0x00\n    /* \"#utility.yul\":8374:8380   */\n  dup3\n    /* \"#utility.yul\":8369:8372   */\n  dup3\n    /* \"#utility.yul\":8362:8381   */\n  mstore\n    /* \"#utility.yul\":8414:8418   */\n  0x20\n    /* \"#utility.yul\":8409:8412   */\n  dup3\n    /* \"#utility.yul\":8405:8419   */\n  add\n    /* \"#utility.yul\":8390:8419   */\n  swap1\n  pop\n    /* \"#utility.yul\":8256:8425   */\n  swap3\n  swap2\n  pop\n  pop\n  jump\t// out\n    /* \"#utility.yul\":8431:8612   */\ntag_74:\n    /* \"#utility.yul\":8571:8604   */\n  0x45524332303a206d696e7420746f20746865207a65726f206164647265737300\n    /* \"#utility.yul\":8567:8568   */\n  0x00\n    /* \"#utility.yul\":8559:8565   */\n  dup3\n    /* \"#utility.yul\":8555:8569   */\n  add\n    /* \"#utility.yul\":8548:8605   */\n  mstore\n    /* \"#utility.yul\":8431:8612   */\n  pop\n  jump\t// out\n    /* \"#utility.yul\":8618:8984   */\ntag_75:\n    /* \"#utility.yul\":8760:8763   */\n  0x00\n    /* \"#utility.yul\":8781:8848   */\n  tag_181\n    /* \"#utility.yul\":8845:8847   */\n  0x1f\n    /* \"#utility.yul\":8840:8843   */\n  dup4\n    /* \"#utility.yul\":8781:8848   */\n  tag_73\n  jump\t// in\ntag_181:\n    /* \"#utility.yul\":8774:8848   */\n  swap2\n  pop\n    /* \"#utility.yul\":8857:8950   */\n  tag_182\n    /* \"#utility.yul\":8946:8949   */\n  dup3\n    /* \"#utility.yul\":8857:8950   */\n  tag_74\n  jump\t// in\ntag_182:\n    /* \"#utility.yul\":8975:8977   */\n  0x20\n    /* \"#utility.yul\":8970:8973   */\n  dup3\n    /* \"#utility.yul\":8966:8978   */\n  add\n    /* \"#utility.yul\":8959:8978   */\n  swap1\n  pop\n    /* \"#utility.yul\":8618:8984   */\n  swap2\n  swap1\n  pop\n  jump\t// out\n    /* \"#utility.yul\":8990:9409   */\ntag_30:\n    /* \"#utility.yul\":9156:9160   */\n  0x00\n    /* \"#utility.yul\":9194:9196   */\n  0x20\n    /* \"#utility.yul\":9183:9192   */\n  dup3\n    /* \"#utility.yul\":9179:9197   */\n  add\n    /* \"#utility.yul\":9171:9197   */\n  swap1\n  pop\n    /* \"#utility.yul\":9243:9252   */\n  dup2\n    /* \"#utility.yul\":9237:9241   */\n  dup2\n    /* \"#utility.yul\":9233:9253   */\n  sub\n    /* \"#utility.yul\":9229:9230   */\n  0x00\n    /* \"#utility.yul\":9218:9227   */\n  dup4\n    /* \"#utility.yul\":9214:9231   */\n  add\n    /* \"#utility.yul\":9207:9254   */\n  mstore\n    /* \"#utility.yul\":9271:9402   */\n  tag_184\n    /* \"#utility.yul\":9397:9401   */\n  dup2\n    /* \"#utility.yul\":9271:9402   */\n  tag_75\n  jump\t// in\ntag_184:\n    /* \"#utility.yul\":9263:9402   */\n  swap1\n  pop\n    /* \"#utility.yul\":8990:9409   */\n  swap2\n  swap1\n  pop\n  jump\t// out\n    /* \"#utility.yul\":9415:9533   */\ntag_76:\n    /* \"#utility.yul\":9502:9526   */\n  tag_186\n    /* \"#utility.yul\":9520:9525   */\n  dup2\n    /* \"#utility.yul\":9502:9526   */\n  tag_56\n  jump\t// in\ntag_186:\n    /* \"#utility.yul\":9497:9500   */\n  dup3\n    /* \"#utility.yul\":9490:9527   */\n  mstore\n    /* \"#utility.yul\":9415:9533   */\n  pop\n  pop\n  jump\t// out\n    /* \"#utility.yul\":9539:9761   */\ntag_37:\n    /* \"#utility.yul\":9632:9636   */\n  0x00\n    /* \"#utility.yul\":9670:9672   */\n  0x20\n    /* \"#utility.yul\":9659:9668   */\n  dup3\n    /* \"#utility.yul\":9655:9673   */\n  add\n    /* \"#utility.yul\":9647:9673   */\n  swap1\n  pop\n    /* \"#utility.yul\":9683:9754   */\n  tag_188\n    /* \"#utility.yul\":9751:9752   */\n  0x00\n    /* \"#utility.yul\":9740:9749   */\n  dup4\n    /* \"#utility.yul\":9736:9753   */\n  add\n    /* \"#utility.yul\":9727:9733   */\n  dup5\n    /* \"#utility.yul\":9683:9754   */\n  tag_76\n  jump\t// in\ntag_188:\n    /* \"#utility.yul\":9539:9761   */\n  swap3\n  swap2\n  pop\n  pop\n  jump\t// out\n    /* \"#utility.yul\":9767:9958   */\ntag_43:\n    /* \"#utility.yul\":9807:9810   */\n  0x00\n    /* \"#utility.yul\":9826:9846   */\n  tag_190\n    /* \"#utility.yul\":9844:9845   */\n  dup3\n    /* \"#utility.yul\":9826:9846   */\n  tag_56\n  jump\t// in\ntag_190:\n    /* \"#utility.yul\":9821:9846   */\n  swap2\n  pop\n    /* \"#utility.yul\":9860:9880   */\n  tag_191\n    /* \"#utility.yul\":9878:9879   */\n  dup4\n    /* \"#utility.yul\":9860:9880   */\n  tag_56\n  jump\t// in\ntag_191:\n    /* \"#utility.yul\":9855:9880   */\n  swap3\n  pop\n    /* \"#utility.yul\":9903:9904   */\n  dup3\n    /* \"#utility.yul\":9900:9901   */\n  dup3\n    /* \"#utility.yul\":9896:9905   */\n  add\n    /* \"#utility.yul\":9889:9905   */\n  swap1\n  pop\n    /* \"#utility.yul\":9924:9927   */\n  dup1\n    /* \"#utility.yul\":9921:9922   */\n  dup3\n    /* \"#utility.yul\":9918:9928   */\n  gt\n    /* \"#utility.yul\":9915:9951   */\n  iszero\n  tag_192\n  jumpi\n    /* \"#utility.yul\":9931:9949   */\n  tag_193\n  tag_68\n  jump\t// in\ntag_193:\n    /* \"#utility.yul\":9915:9951   */\ntag_192:\n    /* \"#utility.yul\":9767:9958   */\n  swap3\n  swap2\n  pop\n  pop\n  jump\t// out\n    /* \"#utility.yul\":9964:10141   */\ntag_77:\n    /* \"#utility.yul\":10104:10133   */\n  0x536166654d6174683a206164646974696f6e206f766572666c6f770000000000\n    /* \"#utility.yul\":10100:10101   */\n  0x00\n    /* \"#utility.yul\":10092:10098   */\n  dup3\n    /* \"#utility.yul\":10088:10102   */\n  add\n    /* \"#utility.yul\":10081:10134   */\n  mstore\n    /* \"#utility.yul\":9964:10141   */\n  pop\n  jump\t// out\n    /* \"#utility.yul\":10147:10513   */\ntag_78:\n    /* \"#utility.yul\":10289:10292   */\n  0x00\n    /* \"#utility.yul\":10310:10377   */\n  tag_196\n    /* \"#utility.yul\":10374:10376   */\n  0x1b\n    /* \"#utility.yul\":10369:10372   */\n  dup4\n    /* \"#utility.yul\":10310:10377   */\n  tag_73\n  jump\t// in\ntag_196:\n    /* \"#utility.yul\":10303:10377   */\n  swap2\n  pop\n    /* \"#utility.yul\":10386:10479   */\n  tag_197\n    /* \"#utility.yul\":10475:10478   */\n  dup3\n    /* \"#utility.yul\":10386:10479   */\n  tag_77\n  jump\t// in\ntag_197:\n    /* \"#utility.yul\":10504:10506   */\n  0x20\n    /* \"#utility.yul\":10499:10502   */\n  dup3\n    /* \"#utility.yul\":10495:10507   */\n  add\n    /* \"#utility.yul\":10488:10507   */\n  swap1\n  pop\n    /* \"#utility.yul\":10147:10513   */\n  swap2\n  swap1\n  pop\n  jump\t// out\n    /* \"#utility.yul\":10519:10938   */\ntag_46:\n    /* \"#utility.yul\":10685:10689   */\n  0x00\n    /* \"#utility.yul\":10723:10725   */\n  0x20\n    /* \"#utility.yul\":10712:10721   */\n  dup3\n    /* \"#utility.yul\":10708:10726   */\n  add\n    /* \"#utility.yul\":10700:10726   */\n  swap1\n  pop\n    /* \"#utility.yul\":10772:10781   */\n  dup2\n    /* \"#utility.yul\":10766:10770   */\n  dup2\n    /* \"#utility.yul\":10762:10782   */\n  sub\n    /* \"#utility.yul\":10758:10759   */\n  0x00\n    /* \"#utility.yul\":10747:10756   */\n  dup4\n    /* \"#utility.yul\":10743:10760   */\n  add\n    /* \"#utility.yul\":10736:10783   */\n  mstore\n    /* \"#utility.yul\":10800:10931   */\n  tag_199\n    /* \"#utility.yul\":10926:10930   */\n  dup2\n    /* \"#utility.yul\":10800:10931   */\n  tag_78\n  jump\t// in\ntag_199:\n    /* \"#utility.yul\":10792:10931   */\n  swap1\n  pop\n    /* \"#utility.yul\":10519:10938   */\n  swap2\n  swap1\n  pop\n  jump\t// out\n    /* \"TapToken.sol\":142:316  contract TapToken is ERC20, ERC20Burnable, Ownable {... */\ntag_23:\n  dataSize(sub_0)\n  dup1\n  dataOffset(sub_0)\n  0x00\n  codecopy\n  0x00\n  return\nstop\n\nsub_0: assembly {\n        /* \"TapToken.sol\":142:316  contract TapToken is ERC20, ERC20Burnable, Ownable {... */\n      mstore(0x40, 0x80)\n      callvalue\n      dup1\n      iszero\n      tag_1\n      jumpi\n      revert(0x00, 0x00)\n    tag_1:\n      pop\n      jumpi(tag_2, lt(calldatasize, 0x04))\n      shr(0xe0, calldataload(0x00))\n      dup1\n      0x715018a6\n      gt\n      tag_19\n      jumpi\n      dup1\n      0xa457c2d7\n      gt\n      tag_20\n      jumpi\n      dup1\n      0xa457c2d7\n      eq\n      tag_15\n      jumpi\n      dup1\n      0xa9059cbb\n      eq\n      tag_16\n      jumpi\n      dup1\n      0xdd62ed3e\n      eq\n      tag_17\n      jumpi\n      dup1\n      0xf2fde38b\n      eq\n      tag_18\n      jumpi\n      jump(tag_2)\n    tag_20:\n      dup1\n      0x715018a6\n      eq\n      tag_11\n      jumpi\n      dup1\n      0x79cc6790\n      eq\n      tag_12\n      jumpi\n      dup1\n      0x8da5cb5b\n      eq\n      tag_13\n      jumpi\n      dup1\n      0x95d89b41\n      eq\n      tag_14\n      jumpi\n      jump(tag_2)\n    tag_19:\n      dup1\n      0x313ce567\n      gt\n      tag_21\n      jumpi\n      dup1\n      0x313ce567\n      eq\n      tag_7\n      jumpi\n      dup1\n      0x39509351\n      eq\n      tag_8\n      jumpi\n      dup1\n      0x42966c68\n      eq\n      tag_9\n      jumpi\n      dup1\n      0x70a08231\n      eq\n      tag_10\n      jumpi\n      jump(tag_2)\n    tag_21:\n      dup1\n      0x06fdde03\n      eq\n      tag_3\n      jumpi\n      dup1\n      0x095ea7b3\n      eq\n      tag_4\n      jumpi\n      dup1\n      0x18160ddd\n      eq\n      tag_5\n      jumpi\n      dup1\n      0x23b872dd\n      eq\n      tag_6\n      jumpi\n    tag_2:\n      revert(0x00, 0x00)\n        /* \"ERC20.sol\":2150:2250  function name() public view virtual override returns (string memory) {... */\n    tag_3:\n      tag_22\n      tag_23\n      jump\t// in\n    tag_22:\n      mload(0x40)\n      tag_24\n      swap2\n      swap1\n      tag_25\n      jump\t// in\n    tag_24:\n      mload(0x40)\n      dup1\n      swap2\n      sub\n      swap1\n      return\n        /* \"ERC20.sol\":4510:4711  function approve(address spender, uint256 amount) public virtual override returns (bool) {... */\n    tag_4:\n      tag_26\n      0x04\n      dup1\n      calldatasize\n      sub\n      dup2\n      add\n      swap1\n      tag_27\n      swap2\n      swap1\n      tag_28\n      jump\t// in\n    tag_27:\n      tag_29\n      jump\t// in\n    tag_26:\n      mload(0x40)\n      tag_30\n      swap2\n      swap1\n      tag_31\n      jump\t// in\n    tag_30:\n      mload(0x40)\n      dup1\n      swap2\n      sub\n      swap1\n      return\n        /* \"ERC20.sol\":3279:3387  function totalSupply() public view virtual override returns (uint256) {... */\n    tag_5:\n      tag_32\n      tag_33\n      jump\t// in\n    tag_32:\n      mload(0x40)\n      tag_34\n      swap2\n      swap1\n      tag_35\n      jump\t// in\n    tag_34:\n      mload(0x40)\n      dup1\n      swap2\n      sub\n      swap1\n      return\n        /* \"ERC20.sol\":5291:5552  function transferFrom(address from, address to, uint256 amount) public virtual override returns (bool) {... */\n    tag_6:\n      tag_36\n      0x04\n      dup1\n      calldatasize\n      sub\n      dup2\n      add\n      swap1\n      tag_37\n      swap2\n      swap1\n      tag_38\n      jump\t// in\n    tag_37:\n      tag_39\n      jump\t// in\n    tag_36:\n      mload(0x40)\n      tag_40\n      swap2\n      swap1\n      tag_31\n      jump\t// in\n    tag_40:\n      mload(0x40)\n      dup1\n      swap2\n      sub\n      swap1\n      return\n        /* \"ERC20.sol\":3121:3214  function decimals() public view virtual override returns (uint8) {... */\n    tag_7:\n      tag_41\n      tag_42\n      jump\t// in\n    tag_41:\n      mload(0x40)\n      tag_43\n      swap2\n      swap1\n      tag_44\n      jump\t// in\n    tag_43:\n      mload(0x40)\n      dup1\n      swap2\n      sub\n      swap1\n      return\n        /* \"ERC20.sol\":5961:6212  function increaseAllowance(address spender, uint256 addedValue) public virtual returns (bool) {... */\n    tag_8:\n      tag_45\n      0x04\n      dup1\n      calldatasize\n      sub\n      dup2\n      add\n      swap1\n      tag_46\n      swap2\n      swap1\n      tag_28\n      jump\t// in\n    tag_46:\n      tag_47\n      jump\t// in\n    tag_45:\n      mload(0x40)\n      tag_48\n      swap2\n      swap1\n      tag_31\n      jump\t// in\n    tag_48:\n      mload(0x40)\n      dup1\n      swap2\n      sub\n      swap1\n      return\n        /* \"ERC20Burnable.sol\":490:581  function burn(uint256 amount) public virtual {... */\n    tag_9:\n      tag_49\n      0x04\n      dup1\n      calldatasize\n      sub\n      dup2\n      add\n      swap1\n      tag_50\n      swap2\n      swap1\n      tag_51\n      jump\t// in\n    tag_50:\n      tag_52\n      jump\t// in\n    tag_49:\n      stop\n        /* \"ERC20.sol\":3450:3577  function balanceOf(address account) public view virtual override returns (uint256) {... */\n    tag_10:\n      tag_53\n      0x04\n      dup1\n      calldatasize\n      sub\n      dup2\n      add\n      swap1\n      tag_54\n      swap2\n      swap1\n      tag_55\n      jump\t// in\n    tag_54:\n      tag_56\n      jump\t// in\n    tag_53:\n      mload(0x40)\n      tag_57\n      swap2\n      swap1\n      tag_35\n      jump\t// in\n    tag_57:\n      mload(0x40)\n      dup1\n      swap2\n      sub\n      swap1\n      return\n        /* \"Ownable.sol\":1806:1909  function renounceOwnership() public virtual onlyOwner {... */\n    tag_11:\n      tag_58\n      tag_59\n      jump\t// in\n    tag_58:\n      stop\n        /* \"ERC20Burnable.sol\":900:1064  function burnFrom(address account, uint256 amount) public virtual {... */\n    tag_12:\n      tag_60\n      0x04\n      dup1\n      calldatasize\n      sub\n      dup2\n      add\n      swap1\n      tag_61\n      swap2\n      swap1\n      tag_28\n      jump\t// in\n    tag_61:\n      tag_62\n      jump\t// in\n    tag_60:\n      stop\n        /* \"Ownable.sol\":1165:1252  function owner() public view virtual returns (address) {... */\n    tag_13:\n      tag_63\n      tag_64\n      jump\t// in\n    tag_63:\n      mload(0x40)\n      tag_65\n      swap2\n      swap1\n      tag_66\n      jump\t// in\n    tag_65:\n      mload(0x40)\n      dup1\n      swap2\n      sub\n      swap1\n      return\n        /* \"ERC20.sol\":2369:2473  function symbol() public view virtual override returns (string memory) {... */\n    tag_14:\n      tag_67\n      tag_68\n      jump\t// in\n    tag_67:\n      mload(0x40)\n      tag_69\n      swap2\n      swap1\n      tag_25\n      jump\t// in\n    tag_69:\n      mload(0x40)\n      dup1\n      swap2\n      sub\n      swap1\n      return\n        /* \"ERC20.sol\":6715:7164  function decreaseAllowance(address spender, uint256 subtractedValue) public virtual returns (bool) {... */\n    tag_15:\n      tag_70\n      0x04\n      dup1\n      calldatasize\n      sub\n      dup2\n      add\n      swap1\n      tag_71\n      swap2\n      swap1\n      tag_28\n      jump\t// in\n    tag_71:\n      tag_72\n      jump\t// in\n    tag_70:\n      mload(0x40)\n      tag_73\n      swap2\n      swap1\n      tag_31\n      jump\t// in\n    tag_73:\n      mload(0x40)\n      dup1\n      swap2\n      sub\n      swap1\n      return\n        /* \"ERC20.sol\":3783:3976  function transfer(address to, uint256 amount) public virtual override returns (bool) {... */\n    tag_16:\n      tag_74\n      0x04\n      dup1\n      calldatasize\n      sub\n      dup2\n      add\n      swap1\n      tag_75\n      swap2\n      swap1\n      tag_28\n      jump\t// in\n    tag_75:\n      tag_76\n      jump\t// in\n    tag_74:\n      mload(0x40)\n      tag_77\n      swap2\n      swap1\n      tag_31\n      jump\t// in\n    tag_77:\n      mload(0x40)\n      dup1\n      swap2\n      sub\n      swap1\n      return\n        /* \"ERC20.sol\":4039:4190  function allowance(address owner, address spender) public view virtual override returns (uint256) {... */\n    tag_17:\n      tag_78\n      0x04\n      dup1\n      calldatasize\n      sub\n      dup2\n      add\n      swap1\n      tag_79\n      swap2\n      swap1\n      tag_80\n      jump\t// in\n    tag_79:\n      tag_81\n      jump\t// in\n    tag_78:\n      mload(0x40)\n      tag_82\n      swap2\n      swap1\n      tag_35\n      jump\t// in\n    tag_82:\n      mload(0x40)\n      dup1\n      swap2\n      sub\n      swap1\n      return\n        /* \"Ownable.sol\":2064:2265  function transferOwnership(address newOwner) public virtual onlyOwner {... */\n    tag_18:\n      tag_83\n      0x04\n      dup1\n      calldatasize\n      sub\n      dup2\n      add\n      swap1\n      tag_84\n      swap2\n      swap1\n      tag_55\n      jump\t// in\n    tag_84:\n      tag_85\n      jump\t// in\n    tag_83:\n      stop\n        /* \"ERC20.sol\":2150:2250  function name() public view virtual override returns (string memory) {... */\n    tag_23:\n        /* \"ERC20.sol\":2204:2217  string memory */\n      0x60\n        /* \"ERC20.sol\":2237:2242  _name */\n      0x03\n        /* \"ERC20.sol\":2230:2242  return _name */\n      dup1\n      sload\n      tag_87\n      swap1\n      tag_88\n      jump\t// in\n    tag_87:\n      dup1\n      0x1f\n      add\n      0x20\n      dup1\n      swap2\n      div\n      mul\n      0x20\n      add\n      mload(0x40)\n      swap1\n      dup2\n      add\n      0x40\n      mstore\n      dup1\n      swap3\n      swap2\n      swap1\n      dup2\n      dup2\n      mstore\n      0x20\n      add\n      dup3\n      dup1\n      sload\n      tag_89\n      swap1\n      tag_88\n      jump\t// in\n    tag_89:\n      dup1\n      iszero\n      tag_90\n      jumpi\n      dup1\n      0x1f\n      lt\n      tag_91\n      jumpi\n      0x0100\n      dup1\n      dup4\n      sload\n      div\n      mul\n      dup4\n      mstore\n      swap2\n      0x20\n      add\n      swap2\n      jump(tag_90)\n    tag_91:\n      dup3\n      add\n      swap2\n      swap1\n      0x00\n      mstore\n      keccak256(0x00, 0x20)\n      swap1\n    tag_92:\n      dup2\n      sload\n      dup2\n      mstore\n      swap1\n      0x01\n      add\n      swap1\n      0x20\n      add\n      dup1\n      dup4\n      gt\n      tag_92\n      jumpi\n      dup3\n      swap1\n      sub\n      0x1f\n      and\n      dup3\n      add\n      swap2\n    tag_90:\n      pop\n      pop\n      pop\n      pop\n      pop\n      swap1\n      pop\n        /* \"ERC20.sol\":2150:2250  function name() public view virtual override returns (string memory) {... */\n      swap1\n      jump\t// out\n        /* \"ERC20.sol\":4510:4711  function approve(address spender, uint256 amount) public virtual override returns (bool) {... */\n    tag_29:\n        /* \"ERC20.sol\":4593:4597  bool */\n      0x00\n        /* \"ERC20.sol\":4610:4623  address owner */\n      0x00\n        /* \"ERC20.sol\":4626:4638  _msgSender() */\n      tag_94\n        /* \"ERC20.sol\":4626:4636  _msgSender */\n      tag_95\n        /* \"ERC20.sol\":4626:4638  _msgSender() */\n      jump\t// in\n    tag_94:\n        /* \"ERC20.sol\":4610:4638  address owner = _msgSender() */\n      swap1\n      pop\n        /* \"ERC20.sol\":4649:4681  _approve(owner, spender, amount) */\n      tag_96\n        /* \"ERC20.sol\":4658:4663  owner */\n      dup2\n        /* \"ERC20.sol\":4665:4672  spender */\n      dup6\n        /* \"ERC20.sol\":4674:4680  amount */\n      dup6\n        /* \"ERC20.sol\":4649:4657  _approve */\n      tag_97\n        /* \"ERC20.sol\":4649:4681  _approve(owner, spender, amount) */\n      jump\t// in\n    tag_96:\n        /* \"ERC20.sol\":4699:4703  true */\n      0x01\n        /* \"ERC20.sol\":4692:4703  return true */\n      swap2\n      pop\n      pop\n        /* \"ERC20.sol\":4510:4711  function approve(address spender, uint256 amount) public virtual override returns (bool) {... */\n      swap3\n      swap2\n      pop\n      pop\n      jump\t// out\n        /* \"ERC20.sol\":3279:3387  function totalSupply() public view virtual override returns (uint256) {... */\n    tag_33:\n        /* \"ERC20.sol\":3340:3347  uint256 */\n      0x00\n        /* \"ERC20.sol\":3367:3379  _totalSupply */\n      sload(0x02)\n        /* \"ERC20.sol\":3360:3379  return _totalSupply */\n      swap1\n      pop\n        /* \"ERC20.sol\":3279:3387  function totalSupply() public view virtual override returns (uint256) {... */\n      swap1\n      jump\t// out\n        /* \"ERC20.sol\":5291:5552  function transferFrom(address from, address to, uint256 amount) public virtual override returns (bool) {... */\n    tag_39:\n        /* \"ERC20.sol\":5388:5392  bool */\n      0x00\n        /* \"ERC20.sol\":5405:5420  address spender */\n      0x00\n        /* \"ERC20.sol\":5423:5435  _msgSender() */\n      tag_100\n        /* \"ERC20.sol\":5423:5433  _msgSender */\n      tag_95\n        /* \"ERC20.sol\":5423:5435  _msgSender() */\n      jump\t// in\n    tag_100:\n        /* \"ERC20.sol\":5405:5435  address spender = _msgSender() */\n      swap1\n      pop\n        /* \"ERC20.sol\":5446:5484  _spendAllowance(from, spender, amount) */\n      tag_101\n        /* \"ERC20.sol\":5462:5466  from */\n      dup6\n        /* \"ERC20.sol\":5468:5475  spender */\n      dup3\n        /* \"ERC20.sol\":5477:5483  amount */\n      dup6\n        /* \"ERC20.sol\":5446:5461  _spendAllowance */\n      tag_102\n        /* \"ERC20.sol\":5446:5484  _spendAllowance(from, spender, amount) */\n      jump\t// in\n    tag_101:\n        /* \"ERC20.sol\":5495:5522  _transfer(from, to, amount) */\n      tag_103\n        /* \"ERC20.sol\":5505:5509  from */\n      dup6\n        /* \"ERC20.sol\":5511:5513  to */\n      dup6\n        /* \"ERC20.sol\":5515:5521  amount */\n      dup6\n        /* \"ERC20.sol\":5495:5504  _transfer */\n      tag_104\n        /* \"ERC20.sol\":5495:5522  _transfer(from, to, amount) */\n      jump\t// in\n    tag_103:\n        /* \"ERC20.sol\":5540:5544  true */\n      0x01\n        /* \"ERC20.sol\":5533:5544  return true */\n      swap2\n      pop\n      pop\n        /* \"ERC20.sol\":5291:5552  function transferFrom(address from, address to, uint256 amount) public virtual override returns (bool) {... */\n      swap4\n      swap3\n      pop\n      pop\n      pop\n      jump\t// out\n        /* \"ERC20.sol\":3121:3214  function decimals() public view virtual override returns (uint8) {... */\n    tag_42:\n        /* \"ERC20.sol\":3179:3184  uint8 */\n      0x00\n        /* \"ERC20.sol\":3204:3206  18 */\n      0x12\n        /* \"ERC20.sol\":3197:3206  return 18 */\n      swap1\n      pop\n        /* \"ERC20.sol\":3121:3214  function decimals() public view virtual override returns (uint8) {... */\n      swap1\n      jump\t// out\n        /* \"ERC20.sol\":5961:6212  function increaseAllowance(address spender, uint256 addedValue) public virtual returns (bool) {... */\n    tag_47:\n        /* \"ERC20.sol\":6049:6053  bool */\n      0x00\n        /* \"ERC20.sol\":6066:6079  address owner */\n      0x00\n        /* \"ERC20.sol\":6082:6094  _msgSender() */\n      tag_107\n        /* \"ERC20.sol\":6082:6092  _msgSender */\n      tag_95\n        /* \"ERC20.sol\":6082:6094  _msgSender() */\n      jump\t// in\n    tag_107:\n        /* \"ERC20.sol\":6066:6094  address owner = _msgSender() */\n      swap1\n      pop\n        /* \"ERC20.sol\":6105:6182  _approve(owner, spender, SafeMath.add(allowance(owner, spender), addedValue)) */\n      tag_108\n        /* \"ERC20.sol\":6114:6119  owner */\n      dup2\n        /* \"ERC20.sol\":6121:6128  spender */\n      dup6\n        /* \"ERC20.sol\":6130:6181  SafeMath.add(allowance(owner, spender), addedValue) */\n      tag_109\n        /* \"ERC20.sol\":6143:6168  allowance(owner, spender) */\n      tag_110\n        /* \"ERC20.sol\":6153:6158  owner */\n      dup6\n        /* \"ERC20.sol\":6160:6167  spender */\n      dup10\n        /* \"ERC20.sol\":6143:6152  allowance */\n      tag_81\n        /* \"ERC20.sol\":6143:6168  allowance(owner, spender) */\n      jump\t// in\n    tag_110:\n        /* \"ERC20.sol\":6170:6180  addedValue */\n      dup8\n        /* \"ERC20.sol\":6130:6142  SafeMath.add */\n      tag_111\n        /* \"ERC20.sol\":6130:6181  SafeMath.add(allowance(owner, spender), addedValue) */\n      jump\t// in\n    tag_109:\n        /* \"ERC20.sol\":6105:6113  _approve */\n      tag_97\n        /* \"ERC20.sol\":6105:6182  _approve(owner, spender, SafeMath.add(allowance(owner, spender), addedValue)) */\n      jump\t// in\n    tag_108:\n        /* \"ERC20.sol\":6200:6204  true */\n      0x01\n        /* \"ERC20.sol\":6193:6204  return true */\n      swap2\n      pop\n      pop\n        /* \"ERC20.sol\":5961:6212  function increaseAllowance(address spender, uint256 addedValue) public virtual returns (bool) {... */\n      swap3\n      swap2\n      pop\n      pop\n      jump\t// out\n        /* \"ERC20Burnable.sol\":490:581  function burn(uint256 amount) public virtual {... */\n    tag_52:\n        /* \"ERC20Burnable.sol\":546:573  _burn(_msgSender(), amount) */\n      tag_113\n        /* \"ERC20Burnable.sol\":552:564  _msgSender() */\n      tag_114\n        /* \"ERC20Burnable.sol\":552:562  _msgSender */\n      tag_95\n        /* \"ERC20Burnable.sol\":552:564  _msgSender() */\n      jump\t// in\n    tag_114:\n        /* \"ERC20Burnable.sol\":566:572  amount */\n      dup3\n        /* \"ERC20Burnable.sol\":546:551  _burn */\n      tag_115\n        /* \"ERC20Burnable.sol\":546:573  _burn(_msgSender(), amount) */\n      jump\t// in\n    tag_113:\n        /* \"ERC20Burnable.sol\":490:581  function burn(uint256 amount) public virtual {... */\n      pop\n      jump\t// out\n        /* \"ERC20.sol\":3450:3577  function balanceOf(address account) public view virtual override returns (uint256) {... */\n    tag_56:\n        /* \"ERC20.sol\":3524:3531  uint256 */\n      0x00\n        /* \"ERC20.sol\":3551:3560  _balances */\n      0x00\n        /* \"ERC20.sol\":3551:3569  _balances[account] */\n      0x00\n        /* \"ERC20.sol\":3561:3568  account */\n      dup4\n        /* \"ERC20.sol\":3551:3569  _balances[account] */\n      0xffffffffffffffffffffffffffffffffffffffff\n      and\n      0xffffffffffffffffffffffffffffffffffffffff\n      and\n      dup2\n      mstore\n      0x20\n      add\n      swap1\n      dup2\n      mstore\n      0x20\n      add\n      0x00\n      keccak256\n      sload\n        /* \"ERC20.sol\":3544:3569  return _balances[account] */\n      swap1\n      pop\n        /* \"ERC20.sol\":3450:3577  function balanceOf(address account) public view virtual override returns (uint256) {... */\n      swap2\n      swap1\n      pop\n      jump\t// out\n        /* \"Ownable.sol\":1806:1909  function renounceOwnership() public virtual onlyOwner {... */\n    tag_59:\n        /* \"Ownable.sol\":1051:1064  _checkOwner() */\n      tag_118\n        /* \"Ownable.sol\":1051:1062  _checkOwner */\n      tag_119\n        /* \"Ownable.sol\":1051:1064  _checkOwner() */\n      jump\t// in\n    tag_118:\n        /* \"Ownable.sol\":1871:1901  _transferOwnership(address(0)) */\n      tag_121\n        /* \"Ownable.sol\":1898:1899  0 */\n      0x00\n        /* \"Ownable.sol\":1871:1889  _transferOwnership */\n      tag_122\n        /* \"Ownable.sol\":1871:1901  _transferOwnership(address(0)) */\n      jump\t// in\n    tag_121:\n        /* \"Ownable.sol\":1806:1909  function renounceOwnership() public virtual onlyOwner {... */\n      jump\t// out\n        /* \"ERC20Burnable.sol\":900:1064  function burnFrom(address account, uint256 amount) public virtual {... */\n    tag_62:\n        /* \"ERC20Burnable.sol\":977:1023  _spendAllowance(account, _msgSender(), amount) */\n      tag_124\n        /* \"ERC20Burnable.sol\":993:1000  account */\n      dup3\n        /* \"ERC20Burnable.sol\":1002:1014  _msgSender() */\n      tag_125\n        /* \"ERC20Burnable.sol\":1002:1012  _msgSender */\n      tag_95\n        /* \"ERC20Burnable.sol\":1002:1014  _msgSender() */\n      jump\t// in\n    tag_125:\n        /* \"ERC20Burnable.sol\":1016:1022  amount */\n      dup4\n        /* \"ERC20Burnable.sol\":977:992  _spendAllowance */\n      tag_102\n        /* \"ERC20Burnable.sol\":977:1023  _spendAllowance(account, _msgSender(), amount) */\n      jump\t// in\n    tag_124:\n        /* \"ERC20Burnable.sol\":1034:1056  _burn(account, amount) */\n      tag_126\n        /* \"ERC20Burnable.sol\":1040:1047  account */\n      dup3\n        /* \"ERC20Burnable.sol\":1049:1055  amount */\n      dup3\n        /* \"ERC20Burnable.sol\":1034:1039  _burn */\n      tag_115\n        /* \"ERC20Burnable.sol\":1034:1056  _burn(account, amount) */\n      jump\t// in\n    tag_126:\n        /* \"ERC20Burnable.sol\":900:1064  function burnFrom(address account, uint256 amount) public virtual {... */\n      pop\n      pop\n      jump\t// out\n        /* \"Ownable.sol\":1165:1252  function owner() public view virtual returns (address) {... */\n    tag_64:\n        /* \"Ownable.sol\":1211:1218  address */\n      0x00\n        /* \"Ownable.sol\":1238:1244  _owner */\n      0x05\n      0x00\n      swap1\n      sload\n      swap1\n      0x0100\n      exp\n      swap1\n      div\n      0xffffffffffffffffffffffffffffffffffffffff\n      and\n        /* \"Ownable.sol\":1231:1244  return _owner */\n      swap1\n      pop\n        /* \"Ownable.sol\":1165:1252  function owner() public view virtual returns (address) {... */\n      swap1\n      jump\t// out\n        /* \"ERC20.sol\":2369:2473  function symbol() public view virtual override returns (string memory) {... */\n    tag_68:\n        /* \"ERC20.sol\":2425:2438  string memory */\n      0x60\n        /* \"ERC20.sol\":2458:2465  _symbol */\n      0x04\n        /* \"ERC20.sol\":2451:2465  return _symbol */\n      dup1\n      sload\n      tag_129\n      swap1\n      tag_88\n      jump\t// in\n    tag_129:\n      dup1\n      0x1f\n      add\n      0x20\n      dup1\n      swap2\n      div\n      mul\n      0x20\n      add\n      mload(0x40)\n      swap1\n      dup2\n      add\n      0x40\n      mstore\n      dup1\n      swap3\n      swap2\n      swap1\n      dup2\n      dup2\n      mstore\n      0x20\n      add\n      dup3\n      dup1\n      sload\n      tag_130\n      swap1\n      tag_88\n      jump\t// in\n    tag_130:\n      dup1\n      iszero\n      tag_131\n      jumpi\n      dup1\n      0x1f\n      lt\n      tag_132\n      jumpi\n      0x0100\n      dup1\n      dup4\n      sload\n      div\n      mul\n      dup4\n      mstore\n      swap2\n      0x20\n      add\n      swap2\n      jump(tag_131)\n    tag_132:\n      dup3\n      add\n      swap2\n      swap1\n      0x00\n      mstore\n      keccak256(0x00, 0x20)\n      swap1\n    tag_133:\n      dup2\n      sload\n      dup2\n      mstore\n      swap1\n      0x01\n      add\n      swap1\n      0x20\n      add\n      dup1\n      dup4\n      gt\n      tag_133\n      jumpi\n      dup3\n      swap1\n      sub\n      0x1f\n      and\n      dup3\n      add\n      swap2\n    tag_131:\n      pop\n      pop\n      pop\n      pop\n      pop\n      swap1\n      pop\n        /* \"ERC20.sol\":2369:2473  function symbol() public view virtual override returns (string memory) {... */\n      swap1\n      jump\t// out\n        /* \"ERC20.sol\":6715:7164  function decreaseAllowance(address spender, uint256 subtractedValue) public virtual returns (bool) {... */\n    tag_72:\n        /* \"ERC20.sol\":6808:6812  bool */\n      0x00\n        /* \"ERC20.sol\":6825:6838  address owner */\n      0x00\n        /* \"ERC20.sol\":6841:6853  _msgSender() */\n      tag_135\n        /* \"ERC20.sol\":6841:6851  _msgSender */\n      tag_95\n        /* \"ERC20.sol\":6841:6853  _msgSender() */\n      jump\t// in\n    tag_135:\n        /* \"ERC20.sol\":6825:6853  address owner = _msgSender() */\n      swap1\n      pop\n        /* \"ERC20.sol\":6864:6888  uint256 currentAllowance */\n      0x00\n        /* \"ERC20.sol\":6891:6916  allowance(owner, spender) */\n      tag_136\n        /* \"ERC20.sol\":6901:6906  owner */\n      dup3\n        /* \"ERC20.sol\":6908:6915  spender */\n      dup7\n        /* \"ERC20.sol\":6891:6900  allowance */\n      tag_81\n        /* \"ERC20.sol\":6891:6916  allowance(owner, spender) */\n      jump\t// in\n    tag_136:\n        /* \"ERC20.sol\":6864:6916  uint256 currentAllowance = allowance(owner, spender) */\n      swap1\n      pop\n        /* \"ERC20.sol\":6955:6970  subtractedValue */\n      dup4\n        /* \"ERC20.sol\":6935:6951  currentAllowance */\n      dup2\n        /* \"ERC20.sol\":6935:6970  currentAllowance >= subtractedValue */\n      lt\n      iszero\n        /* \"ERC20.sol\":6927:7012  require(currentAllowance >= subtractedValue, \"ERC20: decreased allowance below zero\") */\n      tag_137\n      jumpi\n      mload(0x40)\n      0x08c379a000000000000000000000000000000000000000000000000000000000\n      dup2\n      mstore\n      0x04\n      add\n      tag_138\n      swap1\n      tag_139\n      jump\t// in\n    tag_138:\n      mload(0x40)\n      dup1\n      swap2\n      sub\n      swap1\n      revert\n    tag_137:\n        /* \"ERC20.sol\":7048:7121  _approve(owner, spender, SafeMath.sub(currentAllowance, subtractedValue)) */\n      tag_140\n        /* \"ERC20.sol\":7057:7062  owner */\n      dup3\n        /* \"ERC20.sol\":7064:7071  spender */\n      dup7\n        /* \"ERC20.sol\":7073:7120  SafeMath.sub(currentAllowance, subtractedValue) */\n      tag_141\n        /* \"ERC20.sol\":7086:7102  currentAllowance */\n      dup5\n        /* \"ERC20.sol\":7104:7119  subtractedValue */\n      dup9\n        /* \"ERC20.sol\":7073:7085  SafeMath.sub */\n      tag_142\n        /* \"ERC20.sol\":7073:7120  SafeMath.sub(currentAllowance, subtractedValue) */\n      jump\t// in\n    tag_141:\n        /* \"ERC20.sol\":7048:7056  _approve */\n      tag_97\n        /* \"ERC20.sol\":7048:7121  _approve(owner, spender, SafeMath.sub(currentAllowance, subtractedValue)) */\n      jump\t// in\n    tag_140:\n        /* \"ERC20.sol\":7152:7156  true */\n      0x01\n        /* \"ERC20.sol\":7145:7156  return true */\n      swap3\n      pop\n      pop\n      pop\n        /* \"ERC20.sol\":6715:7164  function decreaseAllowance(address spender, uint256 subtractedValue) public virtual returns (bool) {... */\n      swap3\n      swap2\n      pop\n      pop\n      jump\t// out\n        /* \"ERC20.sol\":3783:3976  function transfer(address to, uint256 amount) public virtual override returns (bool) {... */\n    tag_76:\n        /* \"ERC20.sol\":3862:3866  bool */\n      0x00\n        /* \"ERC20.sol\":3879:3892  address owner */\n      0x00\n        /* \"ERC20.sol\":3895:3907  _msgSender() */\n      tag_144\n        /* \"ERC20.sol\":3895:3905  _msgSender */\n      tag_95\n        /* \"ERC20.sol\":3895:3907  _msgSender() */\n      jump\t// in\n    tag_144:\n        /* \"ERC20.sol\":3879:3907  address owner = _msgSender() */\n      swap1\n      pop\n        /* \"ERC20.sol\":3918:3946  _transfer(owner, to, amount) */\n      tag_145\n        /* \"ERC20.sol\":3928:3933  owner */\n      dup2\n        /* \"ERC20.sol\":3935:3937  to */\n      dup6\n        /* \"ERC20.sol\":3939:3945  amount */\n      dup6\n        /* \"ERC20.sol\":3918:3927  _transfer */\n      tag_104\n        /* \"ERC20.sol\":3918:3946  _transfer(owner, to, amount) */\n      jump\t// in\n    tag_145:\n        /* \"ERC20.sol\":3964:3968  true */\n      0x01\n        /* \"ERC20.sol\":3957:3968  return true */\n      swap2\n      pop\n      pop\n        /* \"ERC20.sol\":3783:3976  function transfer(address to, uint256 amount) public virtual override returns (bool) {... */\n      swap3\n      swap2\n      pop\n      pop\n      jump\t// out\n        /* \"ERC20.sol\":4039:4190  function allowance(address owner, address spender) public view virtual override returns (uint256) {... */\n    tag_81:\n        /* \"ERC20.sol\":4128:4135  uint256 */\n      0x00\n        /* \"ERC20.sol\":4155:4166  _allowances */\n      0x01\n        /* \"ERC20.sol\":4155:4173  _allowances[owner] */\n      0x00\n        /* \"ERC20.sol\":4167:4172  owner */\n      dup5\n        /* \"ERC20.sol\":4155:4173  _allowances[owner] */\n      0xffffffffffffffffffffffffffffffffffffffff\n      and\n      0xffffffffffffffffffffffffffffffffffffffff\n      and\n      dup2\n      mstore\n      0x20\n      add\n      swap1\n      dup2\n      mstore\n      0x20\n      add\n      0x00\n      keccak256\n        /* \"ERC20.sol\":4155:4182  _allowances[owner][spender] */\n      0x00\n        /* \"ERC20.sol\":4174:4181  spender */\n      dup4\n        /* \"ERC20.sol\":4155:4182  _allowances[owner][spender] */\n      0xffffffffffffffffffffffffffffffffffffffff\n      and\n      0xffffffffffffffffffffffffffffffffffffffff\n      and\n      dup2\n      mstore\n      0x20\n      add\n      swap1\n      dup2\n      mstore\n      0x20\n      add\n      0x00\n      keccak256\n      sload\n        /* \"ERC20.sol\":4148:4182  return _allowances[owner][spender] */\n      swap1\n      pop\n        /* \"ERC20.sol\":4039:4190  function allowance(address owner, address spender) public view virtual override returns (uint256) {... */\n      swap3\n      swap2\n      pop\n      pop\n      jump\t// out\n        /* \"Ownable.sol\":2064:2265  function transferOwnership(address newOwner) public virtual onlyOwner {... */\n    tag_85:\n        /* \"Ownable.sol\":1051:1064  _checkOwner() */\n      tag_148\n        /* \"Ownable.sol\":1051:1062  _checkOwner */\n      tag_119\n        /* \"Ownable.sol\":1051:1064  _checkOwner() */\n      jump\t// in\n    tag_148:\n        /* \"Ownable.sol\":2173:2174  0 */\n      0x00\n        /* \"Ownable.sol\":2153:2175  newOwner != address(0) */\n      0xffffffffffffffffffffffffffffffffffffffff\n      and\n        /* \"Ownable.sol\":2153:2161  newOwner */\n      dup2\n        /* \"Ownable.sol\":2153:2175  newOwner != address(0) */\n      0xffffffffffffffffffffffffffffffffffffffff\n      and\n      sub\n        /* \"Ownable.sol\":2145:2218  require(newOwner != address(0), \"Ownable: new owner is the zero address\") */\n      tag_150\n      jumpi\n      mload(0x40)\n      0x08c379a000000000000000000000000000000000000000000000000000000000\n      dup2\n      mstore\n      0x04\n      add\n      tag_151\n      swap1\n      tag_152\n      jump\t// in\n    tag_151:\n      mload(0x40)\n      dup1\n      swap2\n      sub\n      swap1\n      revert\n    tag_150:\n        /* \"Ownable.sol\":2229:2257  _transferOwnership(newOwner) */\n      tag_153\n        /* \"Ownable.sol\":2248:2256  newOwner */\n      dup2\n        /* \"Ownable.sol\":2229:2247  _transferOwnership */\n      tag_122\n        /* \"Ownable.sol\":2229:2257  _transferOwnership(newOwner) */\n      jump\t// in\n    tag_153:\n        /* \"Ownable.sol\":2064:2265  function transferOwnership(address newOwner) public virtual onlyOwner {... */\n      pop\n      jump\t// out\n        /* \"Context.sol\":601:699  function _msgSender() internal view virtual returns (address) {... */\n    tag_95:\n        /* \"Context.sol\":654:661  address */\n      0x00\n        /* \"Context.sol\":681:691  msg.sender */\n      caller\n        /* \"Context.sol\":674:691  return msg.sender */\n      swap1\n      pop\n        /* \"Context.sol\":601:699  function _msgSender() internal view virtual returns (address) {... */\n      swap1\n      jump\t// out\n        /* \"ERC20.sol\":10862:11208  function _approve(address owner, address spender, uint256 amount) internal virtual {... */\n    tag_97:\n        /* \"ERC20.sol\":10981:10982  0 */\n      0x00\n        /* \"ERC20.sol\":10964:10983  owner != address(0) */\n      0xffffffffffffffffffffffffffffffffffffffff\n      and\n        /* \"ERC20.sol\":10964:10969  owner */\n      dup4\n        /* \"ERC20.sol\":10964:10983  owner != address(0) */\n      0xffffffffffffffffffffffffffffffffffffffff\n      and\n      sub\n        /* \"ERC20.sol\":10956:11024  require(owner != address(0), \"ERC20: approve from the zero address\") */\n      tag_156\n      jumpi\n      mload(0x40)\n      0x08c379a000000000000000000000000000000000000000000000000000000000\n      dup2\n      mstore\n      0x04\n      add\n      tag_157\n      swap1\n      tag_158\n      jump\t// in\n    tag_157:\n      mload(0x40)\n      dup1\n      swap2\n      sub\n      swap1\n      revert\n    tag_156:\n        /* \"ERC20.sol\":11062:11063  0 */\n      0x00\n        /* \"ERC20.sol\":11043:11064  spender != address(0) */\n      0xffffffffffffffffffffffffffffffffffffffff\n      and\n        /* \"ERC20.sol\":11043:11050  spender */\n      dup3\n        /* \"ERC20.sol\":11043:11064  spender != address(0) */\n      0xffffffffffffffffffffffffffffffffffffffff\n      and\n      sub\n        /* \"ERC20.sol\":11035:11103  require(spender != address(0), \"ERC20: approve to the zero address\") */\n      tag_159\n      jumpi\n      mload(0x40)\n      0x08c379a000000000000000000000000000000000000000000000000000000000\n      dup2\n      mstore\n      0x04\n      add\n      tag_160\n      swap1\n      tag_161\n      jump\t// in\n    tag_160:\n      mload(0x40)\n      dup1\n      swap2\n      sub\n      swap1\n      revert\n    tag_159:\n        /* \"ERC20.sol\":11146:11152  amount */\n      dup1\n        /* \"ERC20.sol\":11116:11127  _allowances */\n      0x01\n        /* \"ERC20.sol\":11116:11134  _allowances[owner] */\n      0x00\n        /* \"ERC20.sol\":11128:11133  owner */\n      dup6\n        /* \"ERC20.sol\":11116:11134  _allowances[owner] */\n      0xffffffffffffffffffffffffffffffffffffffff\n      and\n      0xffffffffffffffffffffffffffffffffffffffff\n      and\n      dup2\n      mstore\n      0x20\n      add\n      swap1\n      dup2\n      mstore\n      0x20\n      add\n      0x00\n      keccak256\n        /* \"ERC20.sol\":11116:11143  _allowances[owner][spender] */\n      0x00\n        /* \"ERC20.sol\":11135:11142  spender */\n      dup5\n        /* \"ERC20.sol\":11116:11143  _allowances[owner][spender] */\n      0xffffffffffffffffffffffffffffffffffffffff\n      and\n      0xffffffffffffffffffffffffffffffffffffffff\n      and\n      dup2\n      mstore\n      0x20\n      add\n      swap1\n      dup2\n      mstore\n      0x20\n      add\n      0x00\n      keccak256\n        /* \"ERC20.sol\":11116:11152  _allowances[owner][spender] = amount */\n      dup2\n      swap1\n      sstore\n      pop\n        /* \"ERC20.sol\":11184:11191  spender */\n      dup2\n        /* \"ERC20.sol\":11168:11200  Approval(owner, spender, amount) */\n      0xffffffffffffffffffffffffffffffffffffffff\n      and\n        /* \"ERC20.sol\":11177:11182  owner */\n      dup4\n        /* \"ERC20.sol\":11168:11200  Approval(owner, spender, amount) */\n      0xffffffffffffffffffffffffffffffffffffffff\n      and\n      0x8c5be1e5ebec7d5bd14f71427d1e84f3dd0314c0f7b2291e5b200ac8c7c3b925\n        /* \"ERC20.sol\":11193:11199  amount */\n      dup4\n        /* \"ERC20.sol\":11168:11200  Approval(owner, spender, amount) */\n      mload(0x40)\n      tag_162\n      swap2\n      swap1\n      tag_35\n      jump\t// in\n    tag_162:\n      mload(0x40)\n      dup1\n      swap2\n      sub\n      swap1\n      log3\n        /* \"ERC20.sol\":10862:11208  function _approve(address owner, address spender, uint256 amount) internal virtual {... */\n      pop\n      pop\n      pop\n      jump\t// out\n        /* \"ERC20.sol\":11499:11931  function _spendAllowance(address owner, address spender, uint256 amount) internal virtual {... */\n    tag_102:\n        /* \"ERC20.sol\":11600:11624  uint256 currentAllowance */\n      0x00\n        /* \"ERC20.sol\":11627:11652  allowance(owner, spender) */\n      tag_164\n        /* \"ERC20.sol\":11637:11642  owner */\n      dup5\n        /* \"ERC20.sol\":11644:11651  spender */\n      dup5\n        /* \"ERC20.sol\":11627:11636  allowance */\n      tag_81\n        /* \"ERC20.sol\":11627:11652  allowance(owner, spender) */\n      jump\t// in\n    tag_164:\n        /* \"ERC20.sol\":11600:11652  uint256 currentAllowance = allowance(owner, spender) */\n      swap1\n      pop\n        /* \"ERC20.sol\":11687:11704  type(uint256).max */\n      0xffffffffffffffffffffffffffffffffffffffffffffffffffffffffffffffff\n        /* \"ERC20.sol\":11667:11683  currentAllowance */\n      dup2\n        /* \"ERC20.sol\":11667:11704  currentAllowance != type(uint256).max */\n      eq\n        /* \"ERC20.sol\":11663:11924  if (currentAllowance != type(uint256).max) {... */\n      tag_165\n      jumpi\n        /* \"ERC20.sol\":11749:11755  amount */\n      dup2\n        /* \"ERC20.sol\":11729:11745  currentAllowance */\n      dup2\n        /* \"ERC20.sol\":11729:11755  currentAllowance >= amount */\n      lt\n      iszero\n        /* \"ERC20.sol\":11721:11789  require(currentAllowance >= amount, \"ERC20: insufficient allowance\") */\n      tag_166\n      jumpi\n      mload(0x40)\n      0x08c379a000000000000000000000000000000000000000000000000000000000\n      dup2\n      mstore\n      0x04\n      add\n      tag_167\n      swap1\n      tag_168\n      jump\t// in\n    tag_167:\n      mload(0x40)\n      dup1\n      swap2\n      sub\n      swap1\n      revert\n    tag_166:\n        /* \"ERC20.sol\":11833:11897  _approve(owner, spender, SafeMath.sub(currentAllowance, amount)) */\n      tag_169\n        /* \"ERC20.sol\":11842:11847  owner */\n      dup5\n        /* \"ERC20.sol\":11849:11856  spender */\n      dup5\n        /* \"ERC20.sol\":11858:11896  SafeMath.sub(currentAllowance, amount) */\n      tag_170\n        /* \"ERC20.sol\":11871:11887  currentAllowance */\n      dup5\n        /* \"ERC20.sol\":11889:11895  amount */\n      dup7\n        /* \"ERC20.sol\":11858:11870  SafeMath.sub */\n      tag_142\n        /* \"ERC20.sol\":11858:11896  SafeMath.sub(currentAllowance, amount) */\n      jump\t// in\n    tag_170:\n        /* \"ERC20.sol\":11833:11841  _approve */\n      tag_97\n        /* \"ERC20.sol\":11833:11897  _approve(owner, spender, SafeMath.sub(currentAllowance, amount)) */\n      jump\t// in\n    tag_169:\n        /* \"ERC20.sol\":11663:11924  if (currentAllowance != type(uint256).max) {... */\n    tag_165:\n        /* \"ERC20.sol\":11589:11931  {... */\n      pop\n        /* \"ERC20.sol\":11499:11931  function _spendAllowance(address owner, address spender, uint256 amount) internal virtual {... */\n      pop\n      pop\n      pop\n      jump\t// out\n        /* \"ERC20.sol\":7634:8481  function _transfer(address from, address to, uint256 amount) internal virtual {... */\n    tag_104:\n        /* \"ERC20.sol\":7747:7748  0 */\n      0x00\n        /* \"ERC20.sol\":7731:7749  from != address(0) */\n      0xffffffffffffffffffffffffffffffffffffffff\n      and\n        /* \"ERC20.sol\":7731:7735  from */\n      dup4\n        /* \"ERC20.sol\":7731:7749  from != address(0) */\n      0xffffffffffffffffffffffffffffffffffffffff\n      and\n      sub\n        /* \"ERC20.sol\":7723:7791  require(from != address(0), \"ERC20: transfer from the zero address\") */\n      tag_172\n      jumpi\n      mload(0x40)\n      0x08c379a000000000000000000000000000000000000000000000000000000000\n      dup2\n      mstore\n      0x04\n      add\n      tag_173\n      swap1\n      tag_174\n      jump\t// in\n    tag_173:\n      mload(0x40)\n      dup1\n      swap2\n      sub\n      swap1\n      revert\n    tag_172:\n        /* \"ERC20.sol\":7824:7825  0 */\n      0x00\n        /* \"ERC20.sol\":7810:7826  to != address(0) */\n      0xffffffffffffffffffffffffffffffffffffffff\n      and\n        /* \"ERC20.sol\":7810:7812  to */\n      dup3\n        /* \"ERC20.sol\":7810:7826  to != address(0) */\n      0xffffffffffffffffffffffffffffffffffffffff\n      and\n      sub\n        /* \"ERC20.sol\":7802:7866  require(to != address(0), \"ERC20: transfer to the zero address\") */\n      tag_175\n      jumpi\n      mload(0x40)\n      0x08c379a000000000000000000000000000000000000000000000000000000000\n      dup2\n      mstore\n      0x04\n      add\n      tag_176\n      swap1\n      tag_177\n      jump\t// in\n    tag_176:\n      mload(0x40)\n      dup1\n      swap2\n      sub\n      swap1\n      revert\n    tag_175:\n        /* \"ERC20.sol\":7879:7917  _beforeTokenTransfer(from, to, amount) */\n      tag_178\n        /* \"ERC20.sol\":7900:7904  from */\n      dup4\n        /* \"ERC20.sol\":7906:7908  to */\n      dup4\n        /* \"ERC20.sol\":7910:7916  amount */\n      dup4\n        /* \"ERC20.sol\":7879:7899  _beforeTokenTransfer */\n      tag_179\n        /* \"ERC20.sol\":7879:7917  _beforeTokenTransfer(from, to, amount) */\n      jump\t// in\n    tag_178:\n        /* \"ERC20.sol\":7930:7949  uint256 fromBalance */\n      0x00\n        /* \"ERC20.sol\":7952:7961  _balances */\n      0x00\n        /* \"ERC20.sol\":7952:7967  _balances[from] */\n      0x00\n        /* \"ERC20.sol\":7962:7966  from */\n      dup6\n        /* \"ERC20.sol\":7952:7967  _balances[from] */\n      0xffffffffffffffffffffffffffffffffffffffff\n      and\n      0xffffffffffffffffffffffffffffffffffffffff\n      and\n      dup2\n      mstore\n      0x20\n      add\n      swap1\n      dup2\n      mstore\n      0x20\n      add\n      0x00\n      keccak256\n      sload\n        /* \"ERC20.sol\":7930:7967  uint256 fromBalance = _balances[from] */\n      swap1\n      pop\n        /* \"ERC20.sol\":8001:8007  amount */\n      dup2\n        /* \"ERC20.sol\":7986:7997  fromBalance */\n      dup2\n        /* \"ERC20.sol\":7986:8007  fromBalance >= amount */\n      lt\n      iszero\n        /* \"ERC20.sol\":7978:8050  require(fromBalance >= amount, \"ERC20: transfer amount exceeds balance\") */\n      tag_180\n      jumpi\n      mload(0x40)\n      0x08c379a000000000000000000000000000000000000000000000000000000000\n      dup2\n      mstore\n      0x04\n      add\n      tag_181\n      swap1\n      tag_182\n      jump\t// in\n    tag_181:\n      mload(0x40)\n      dup1\n      swap2\n      sub\n      swap1\n      revert\n    tag_180:\n        /* \"ERC20.sol\":8104:8137  SafeMath.sub(fromBalance, amount) */\n      tag_183\n        /* \"ERC20.sol\":8117:8128  fromBalance */\n      dup2\n        /* \"ERC20.sol\":8130:8136  amount */\n      dup4\n        /* \"ERC20.sol\":8104:8116  SafeMath.sub */\n      tag_142\n        /* \"ERC20.sol\":8104:8137  SafeMath.sub(fromBalance, amount) */\n      jump\t// in\n    tag_183:\n        /* \"ERC20.sol\":8086:8095  _balances */\n      0x00\n        /* \"ERC20.sol\":8086:8101  _balances[from] */\n      0x00\n        /* \"ERC20.sol\":8096:8100  from */\n      dup7\n        /* \"ERC20.sol\":8086:8101  _balances[from] */\n      0xffffffffffffffffffffffffffffffffffffffff\n      and\n      0xffffffffffffffffffffffffffffffffffffffff\n      and\n      dup2\n      mstore\n      0x20\n      add\n      swap1\n      dup2\n      mstore\n      0x20\n      add\n      0x00\n      keccak256\n        /* \"ERC20.sol\":8086:8137  _balances[from] = SafeMath.sub(fromBalance, amount) */\n      dup2\n      swap1\n      sstore\n      pop\n        /* \"ERC20.sol\":8333:8368  SafeMath.add(_balances[to], amount) */\n      tag_184\n        /* \"ERC20.sol\":8346:8355  _balances */\n      0x00\n        /* \"ERC20.sol\":8346:8359  _balances[to] */\n      0x00\n        /* \"ERC20.sol\":8356:8358  to */\n      dup6\n        /* \"ERC20.sol\":8346:8359  _balances[to] */\n      0xffffffffffffffffffffffffffffffffffffffff\n      and\n      0xffffffffffffffffffffffffffffffffffffffff\n      and\n      dup2\n      mstore\n      0x20\n      add\n      swap1\n      dup2\n      mstore\n      0x20\n      add\n      0x00\n      keccak256\n      sload\n        /* \"ERC20.sol\":8361:8367  amount */\n      dup4\n        /* \"ERC20.sol\":8333:8345  SafeMath.add */\n      tag_111\n        /* \"ERC20.sol\":8333:8368  SafeMath.add(_balances[to], amount) */\n      jump\t// in\n    tag_184:\n        /* \"ERC20.sol\":8317:8326  _balances */\n      0x00\n        /* \"ERC20.sol\":8317:8330  _balances[to] */\n      0x00\n        /* \"ERC20.sol\":8327:8329  to */\n      dup6\n        /* \"ERC20.sol\":8317:8330  _balances[to] */\n      0xffffffffffffffffffffffffffffffffffffffff\n      and\n      0xffffffffffffffffffffffffffffffffffffffff\n      and\n      dup2\n      mstore\n      0x20\n      add\n      swap1\n      dup2\n      mstore\n      0x20\n      add\n      0x00\n      keccak256\n        /* \"ERC20.sol\":8317:8368  _balances[to] = SafeMath.add(_balances[to], amount) */\n      dup2\n      swap1\n      sstore\n      pop\n        /* \"ERC20.sol\":8412:8414  to */\n      dup3\n        /* \"ERC20.sol\":8397:8423  Transfer(from, to, amount) */\n      0xffffffffffffffffffffffffffffffffffffffff\n      and\n        /* \"ERC20.sol\":8406:8410  from */\n      dup5\n        /* \"ERC20.sol\":8397:8423  Transfer(from, to, amount) */\n      0xffffffffffffffffffffffffffffffffffffffff\n      and\n      0xddf252ad1be2c89b69c2b068fc378daa952ba7f163c4a11628f55a4df523b3ef\n        /* \"ERC20.sol\":8416:8422  amount */\n      dup5\n        /* \"ERC20.sol\":8397:8423  Transfer(from, to, amount) */\n      mload(0x40)\n      tag_185\n      swap2\n      swap1\n      tag_35\n      jump\t// in\n    tag_185:\n      mload(0x40)\n      dup1\n      swap2\n      sub\n      swap1\n      log3\n        /* \"ERC20.sol\":8436:8473  _afterTokenTransfer(from, to, amount) */\n      tag_186\n        /* \"ERC20.sol\":8456:8460  from */\n      dup5\n        /* \"ERC20.sol\":8462:8464  to */\n      dup5\n        /* \"ERC20.sol\":8466:8472  amount */\n      dup5\n        /* \"ERC20.sol\":8436:8455  _afterTokenTransfer */\n      tag_187\n        /* \"ERC20.sol\":8436:8473  _afterTokenTransfer(from, to, amount) */\n      jump\t// in\n    tag_186:\n        /* \"ERC20.sol\":7712:8481  {... */\n      pop\n        /* \"ERC20.sol\":7634:8481  function _transfer(address from, address to, uint256 amount) internal virtual {... */\n      pop\n      pop\n      pop\n      jump\t// out\n        /* \"SafeMath.sol\":2765:2944  function add(uint256 a, uint256 b) internal pure returns (uint256) {... */\n    tag_111:\n        /* \"SafeMath.sol\":2823:2830  uint256 */\n      0x00\n        /* \"SafeMath.sol\":2843:2852  uint256 c */\n      0x00\n        /* \"SafeMath.sol\":2859:2860  b */\n      dup3\n        /* \"SafeMath.sol\":2855:2856  a */\n      dup5\n        /* \"SafeMath.sol\":2855:2860  a + b */\n      tag_189\n      swap2\n      swap1\n      tag_190\n      jump\t// in\n    tag_189:\n        /* \"SafeMath.sol\":2843:2860  uint256 c = a + b */\n      swap1\n      pop\n        /* \"SafeMath.sol\":2884:2885  a */\n      dup4\n        /* \"SafeMath.sol\":2879:2880  c */\n      dup2\n        /* \"SafeMath.sol\":2879:2885  c >= a */\n      lt\n      iszero\n        /* \"SafeMath.sol\":2871:2917  require(c >= a, \"SafeMath: addition overflow\") */\n      tag_191\n      jumpi\n      mload(0x40)\n      0x08c379a000000000000000000000000000000000000000000000000000000000\n      dup2\n      mstore\n      0x04\n      add\n      tag_192\n      swap1\n      tag_193\n      jump\t// in\n    tag_192:\n      mload(0x40)\n      dup1\n      swap2\n      sub\n      swap1\n      revert\n    tag_191:\n        /* \"SafeMath.sol\":2935:2936  c */\n      dup1\n        /* \"SafeMath.sol\":2928:2936  return c */\n      swap2\n      pop\n      pop\n        /* \"SafeMath.sol\":2765:2944  function add(uint256 a, uint256 b) internal pure returns (uint256) {... */\n      swap3\n      swap2\n      pop\n      pop\n      jump\t// out\n        /* \"ERC20.sol\":9709:10424  function _burn(address account, uint256 amount) internal virtual {... */\n    tag_115:\n        /* \"ERC20.sol\":9812:9813  0 */\n      0x00\n        /* \"ERC20.sol\":9793:9814  account != address(0) */\n      0xffffffffffffffffffffffffffffffffffffffff\n      and\n        /* \"ERC20.sol\":9793:9800  account */\n      dup3\n        /* \"ERC20.sol\":9793:9814  account != address(0) */\n      0xffffffffffffffffffffffffffffffffffffffff\n      and\n      sub\n        /* \"ERC20.sol\":9785:9852  require(account != address(0), \"ERC20: burn from the zero address\") */\n      tag_195\n      jumpi\n      mload(0x40)\n      0x08c379a000000000000000000000000000000000000000000000000000000000\n      dup2\n      mstore\n      0x04\n      add\n      tag_196\n      swap1\n      tag_197\n      jump\t// in\n    tag_196:\n      mload(0x40)\n      dup1\n      swap2\n      sub\n      swap1\n      revert\n    tag_195:\n        /* \"ERC20.sol\":9865:9914  _beforeTokenTransfer(account, address(0), amount) */\n      tag_198\n        /* \"ERC20.sol\":9886:9893  account */\n      dup3\n        /* \"ERC20.sol\":9903:9904  0 */\n      0x00\n        /* \"ERC20.sol\":9907:9913  amount */\n      dup4\n        /* \"ERC20.sol\":9865:9885  _beforeTokenTransfer */\n      tag_179\n        /* \"ERC20.sol\":9865:9914  _beforeTokenTransfer(account, address(0), amount) */\n      jump\t// in\n    tag_198:\n        /* \"ERC20.sol\":9927:9949  uint256 accountBalance */\n      0x00\n        /* \"ERC20.sol\":9952:9961  _balances */\n      0x00\n        /* \"ERC20.sol\":9952:9970  _balances[account] */\n      0x00\n        /* \"ERC20.sol\":9962:9969  account */\n      dup5\n        /* \"ERC20.sol\":9952:9970  _balances[account] */\n      0xffffffffffffffffffffffffffffffffffffffff\n      and\n      0xffffffffffffffffffffffffffffffffffffffff\n      and\n      dup2\n      mstore\n      0x20\n      add\n      swap1\n      dup2\n      mstore\n      0x20\n      add\n      0x00\n      keccak256\n      sload\n        /* \"ERC20.sol\":9927:9970  uint256 accountBalance = _balances[account] */\n      swap1\n      pop\n        /* \"ERC20.sol\":10007:10013  amount */\n      dup2\n        /* \"ERC20.sol\":9989:10003  accountBalance */\n      dup2\n        /* \"ERC20.sol\":9989:10013  accountBalance >= amount */\n      lt\n      iszero\n        /* \"ERC20.sol\":9981:10052  require(accountBalance >= amount, \"ERC20: burn amount exceeds balance\") */\n      tag_199\n      jumpi\n      mload(0x40)\n      0x08c379a000000000000000000000000000000000000000000000000000000000\n      dup2\n      mstore\n      0x04\n      add\n      tag_200\n      swap1\n      tag_201\n      jump\t// in\n    tag_200:\n      mload(0x40)\n      dup1\n      swap2\n      sub\n      swap1\n      revert\n    tag_199:\n        /* \"ERC20.sol\":10109:10145  SafeMath.sub(accountBalance, amount) */\n      tag_202\n        /* \"ERC20.sol\":10122:10136  accountBalance */\n      dup2\n        /* \"ERC20.sol\":10138:10144  amount */\n      dup4\n        /* \"ERC20.sol\":10109:10121  SafeMath.sub */\n      tag_142\n        /* \"ERC20.sol\":10109:10145  SafeMath.sub(accountBalance, amount) */\n      jump\t// in\n    tag_202:\n        /* \"ERC20.sol\":10088:10097  _balances */\n      0x00\n        /* \"ERC20.sol\":10088:10106  _balances[account] */\n      0x00\n        /* \"ERC20.sol\":10098:10105  account */\n      dup6\n        /* \"ERC20.sol\":10088:10106  _balances[account] */\n      0xffffffffffffffffffffffffffffffffffffffff\n      and\n      0xffffffffffffffffffffffffffffffffffffffff\n      and\n      dup2\n      mstore\n      0x20\n      add\n      swap1\n      dup2\n      mstore\n      0x20\n      add\n      0x00\n      keccak256\n        /* \"ERC20.sol\":10088:10145  _balances[account] = SafeMath.sub(accountBalance, amount) */\n      dup2\n      swap1\n      sstore\n      pop\n        /* \"ERC20.sol\":10255:10289  SafeMath.sub(_totalSupply, amount) */\n      tag_203\n        /* \"ERC20.sol\":10268:10280  _totalSupply */\n      sload(0x02)\n        /* \"ERC20.sol\":10282:10288  amount */\n      dup4\n        /* \"ERC20.sol\":10255:10267  SafeMath.sub */\n      tag_142\n        /* \"ERC20.sol\":10255:10289  SafeMath.sub(_totalSupply, amount) */\n      jump\t// in\n    tag_203:\n        /* \"ERC20.sol\":10240:10252  _totalSupply */\n      0x02\n        /* \"ERC20.sol\":10240:10289  _totalSupply = SafeMath.sub(_totalSupply, amount) */\n      dup2\n      swap1\n      sstore\n      pop\n        /* \"ERC20.sol\":10344:10345  0 */\n      0x00\n        /* \"ERC20.sol\":10318:10355  Transfer(account, address(0), amount) */\n      0xffffffffffffffffffffffffffffffffffffffff\n      and\n        /* \"ERC20.sol\":10327:10334  account */\n      dup4\n        /* \"ERC20.sol\":10318:10355  Transfer(account, address(0), amount) */\n      0xffffffffffffffffffffffffffffffffffffffff\n      and\n      0xddf252ad1be2c89b69c2b068fc378daa952ba7f163c4a11628f55a4df523b3ef\n        /* \"ERC20.sol\":10348:10354  amount */\n      dup5\n        /* \"ERC20.sol\":10318:10355  Transfer(account, address(0), amount) */\n      mload(0x40)\n      tag_204\n      swap2\n      swap1\n      tag_35\n      jump\t// in\n    tag_204:\n      mload(0x40)\n      dup1\n      swap2\n      sub\n      swap1\n      log3\n        /* \"ERC20.sol\":10368:10416  _afterTokenTransfer(account, address(0), amount) */\n      tag_205\n        /* \"ERC20.sol\":10388:10395  account */\n      dup4\n        /* \"ERC20.sol\":10405:10406  0 */\n      0x00\n        /* \"ERC20.sol\":10409:10415  amount */\n      dup5\n        /* \"ERC20.sol\":10368:10387  _afterTokenTransfer */\n      tag_187\n        /* \"ERC20.sol\":10368:10416  _afterTokenTransfer(account, address(0), amount) */\n      jump\t// in\n    tag_205:\n        /* \"ERC20.sol\":9774:10424  {... */\n      pop\n        /* \"ERC20.sol\":9709:10424  function _burn(address account, uint256 amount) internal virtual {... */\n      pop\n      pop\n      jump\t// out\n        /* \"Ownable.sol\":1330:1462  function _checkOwner() internal view virtual {... */\n    tag_119:\n        /* \"Ownable.sol\":1405:1417  _msgSender() */\n      tag_207\n        /* \"Ownable.sol\":1405:1415  _msgSender */\n      tag_95\n        /* \"Ownable.sol\":1405:1417  _msgSender() */\n      jump\t// in\n    tag_207:\n        /* \"Ownable.sol\":1394:1417  owner() == _msgSender() */\n      0xffffffffffffffffffffffffffffffffffffffff\n      and\n        /* \"Ownable.sol\":1394:1401  owner() */\n      tag_208\n        /* \"Ownable.sol\":1394:1399  owner */\n      tag_64\n        /* \"Ownable.sol\":1394:1401  owner() */\n      jump\t// in\n    tag_208:\n        /* \"Ownable.sol\":1394:1417  owner() == _msgSender() */\n      0xffffffffffffffffffffffffffffffffffffffff\n      and\n      eq\n        /* \"Ownable.sol\":1386:1454  require(owner() == _msgSender(), \"Ownable: caller is not the owner\") */\n      tag_209\n      jumpi\n      mload(0x40)\n      0x08c379a000000000000000000000000000000000000000000000000000000000\n      dup2\n      mstore\n      0x04\n      add\n      tag_210\n      swap1\n      tag_211\n      jump\t// in\n    tag_210:\n      mload(0x40)\n      dup1\n      swap2\n      sub\n      swap1\n      revert\n    tag_209:\n        /* \"Ownable.sol\":1330:1462  function _checkOwner() internal view virtual {... */\n      jump\t// out\n        /* \"Ownable.sol\":2425:2616  function _transferOwnership(address newOwner) internal virtual {... */\n    tag_122:\n        /* \"Ownable.sol\":2499:2515  address oldOwner */\n      0x00\n        /* \"Ownable.sol\":2518:2524  _owner */\n      0x05\n      0x00\n      swap1\n      sload\n      swap1\n      0x0100\n      exp\n      swap1\n      div\n      0xffffffffffffffffffffffffffffffffffffffff\n      and\n        /* \"Ownable.sol\":2499:2524  address oldOwner = _owner */\n      swap1\n      pop\n        /* \"Ownable.sol\":2544:2552  newOwner */\n      dup2\n        /* \"Ownable.sol\":2535:2541  _owner */\n      0x05\n      0x00\n        /* \"Ownable.sol\":2535:2552  _owner = newOwner */\n      0x0100\n      exp\n      dup2\n      sload\n      dup2\n      0xffffffffffffffffffffffffffffffffffffffff\n      mul\n      not\n      and\n      swap1\n      dup4\n      0xffffffffffffffffffffffffffffffffffffffff\n      and\n      mul\n      or\n      swap1\n      sstore\n      pop\n        /* \"Ownable.sol\":2599:2607  newOwner */\n      dup2\n        /* \"Ownable.sol\":2568:2608  OwnershipTransferred(oldOwner, newOwner) */\n      0xffffffffffffffffffffffffffffffffffffffff\n      and\n        /* \"Ownable.sol\":2589:2597  oldOwner */\n      dup2\n        /* \"Ownable.sol\":2568:2608  OwnershipTransferred(oldOwner, newOwner) */\n      0xffffffffffffffffffffffffffffffffffffffff\n      and\n      0x8be0079c531659141344cd1fd0a4f28419497f9722a3daafe3b4186f6b6457e0\n      mload(0x40)\n      mload(0x40)\n      dup1\n      swap2\n      sub\n      swap1\n      log3\n        /* \"Ownable.sol\":2488:2616  {... */\n      pop\n        /* \"Ownable.sol\":2425:2616  function _transferOwnership(address newOwner) internal virtual {... */\n      pop\n      jump\t// out\n        /* \"SafeMath.sol\":3227:3385  function sub(uint256 a, uint256 b) internal pure returns (uint256) {... */\n    tag_142:\n        /* \"SafeMath.sol\":3285:3292  uint256 */\n      0x00\n        /* \"SafeMath.sol\":3318:3319  a */\n      dup3\n        /* \"SafeMath.sol\":3313:3314  b */\n      dup3\n        /* \"SafeMath.sol\":3313:3319  b <= a */\n      gt\n      iszero\n        /* \"SafeMath.sol\":3305:3354  require(b <= a, \"SafeMath: subtraction overflow\") */\n      tag_214\n      jumpi\n      mload(0x40)\n      0x08c379a000000000000000000000000000000000000000000000000000000000\n      dup2\n      mstore\n      0x04\n      add\n      tag_215\n      swap1\n      tag_216\n      jump\t// in\n    tag_215:\n      mload(0x40)\n      dup1\n      swap2\n      sub\n      swap1\n      revert\n    tag_214:\n        /* \"SafeMath.sol\":3376:3377  b */\n      dup2\n        /* \"SafeMath.sol\":3372:3373  a */\n      dup4\n        /* \"SafeMath.sol\":3372:3377  a - b */\n      tag_217\n      swap2\n      swap1\n      tag_218\n      jump\t// in\n    tag_217:\n        /* \"SafeMath.sol\":3365:3377  return a - b */\n      swap1\n      pop\n        /* \"SafeMath.sol\":3227:3385  function sub(uint256 a, uint256 b) internal pure returns (uint256) {... */\n      swap3\n      swap2\n      pop\n      pop\n      jump\t// out\n        /* \"ERC20.sol\":12531:12622  function _beforeTokenTransfer(address from, address to, uint256 amount) internal virtual {} */\n    tag_179:\n      pop\n      pop\n      pop\n      jump\t// out\n        /* \"ERC20.sol\":13226:13316  function _afterTokenTransfer(address from, address to, uint256 amount) internal virtual {} */\n    tag_187:\n      pop\n      pop\n      pop\n      jump\t// out\n        /* \"#utility.yul\":7:106   */\n    tag_221:\n        /* \"#utility.yul\":59:65   */\n      0x00\n        /* \"#utility.yul\":93:98   */\n      dup2\n        /* \"#utility.yul\":87:99   */\n      mload\n        /* \"#utility.yul\":77:99   */\n      swap1\n      pop\n        /* \"#utility.yul\":7:106   */\n      swap2\n      swap1\n      pop\n      jump\t// out\n        /* \"#utility.yul\":112:281   */\n    tag_222:\n        /* \"#utility.yul\":196:207   */\n      0x00\n        /* \"#utility.yul\":230:236   */\n      dup3\n        /* \"#utility.yul\":225:228   */\n      dup3\n        /* \"#utility.yul\":218:237   */\n      mstore\n        /* \"#utility.yul\":270:274   */\n      0x20\n        /* \"#utility.yul\":265:268   */\n      dup3\n        /* \"#utility.yul\":261:275   */\n      add\n        /* \"#utility.yul\":246:275   */\n      swap1\n      pop\n        /* \"#utility.yul\":112:281   */\n      swap3\n      swap2\n      pop\n      pop\n      jump\t// out\n        /* \"#utility.yul\":287:426   */\n    tag_223:\n        /* \"#utility.yul\":376:382   */\n      dup3\n        /* \"#utility.yul\":371:374   */\n      dup2\n        /* \"#utility.yul\":366:369   */\n      dup4\n        /* \"#utility.yul\":360:383   */\n      mcopy\n        /* \"#utility.yul\":417:418   */\n      0x00\n        /* \"#utility.yul\":408:414   */\n      dup4\n        /* \"#utility.yul\":403:406   */\n      dup4\n        /* \"#utility.yul\":399:415   */\n      add\n        /* \"#utility.yul\":392:419   */\n      mstore\n        /* \"#utility.yul\":287:426   */\n      pop\n      pop\n      pop\n      jump\t// out\n        /* \"#utility.yul\":432:534   */\n    tag_224:\n        /* \"#utility.yul\":473:479   */\n      0x00\n        /* \"#utility.yul\":524:526   */\n      0x1f\n        /* \"#utility.yul\":520:527   */\n      not\n        /* \"#utility.yul\":515:517   */\n      0x1f\n        /* \"#utility.yul\":508:513   */\n      dup4\n        /* \"#utility.yul\":504:518   */\n      add\n        /* \"#utility.yul\":500:528   */\n      and\n        /* \"#utility.yul\":490:528   */\n      swap1\n      pop\n        /* \"#utility.yul\":432:534   */\n      swap2\n      swap1\n      pop\n      jump\t// out\n        /* \"#utility.yul\":540:917   */\n    tag_225:\n        /* \"#utility.yul\":628:631   */\n      0x00\n        /* \"#utility.yul\":656:695   */\n      tag_276\n        /* \"#utility.yul\":689:694   */\n      dup3\n        /* \"#utility.yul\":656:695   */\n      tag_221\n      jump\t// in\n    tag_276:\n        /* \"#utility.yul\":711:782   */\n      tag_277\n        /* \"#utility.yul\":775:781   */\n      dup2\n        /* \"#utility.yul\":770:773   */\n      dup6\n        /* \"#utility.yul\":711:782   */\n      tag_222\n      jump\t// in\n    tag_277:\n        /* \"#utility.yul\":704:782   */\n      swap4\n      pop\n        /* \"#utility.yul\":791:856   */\n      tag_278\n        /* \"#utility.yul\":849:855   */\n      dup2\n        /* \"#utility.yul\":844:847   */\n      dup6\n        /* \"#utility.yul\":837:841   */\n      0x20\n        /* \"#utility.yul\":830:835   */\n      dup7\n        /* \"#utility.yul\":826:842   */\n      add\n        /* \"#utility.yul\":791:856   */\n      tag_223\n      jump\t// in\n    tag_278:\n        /* \"#utility.yul\":881:910   */\n      tag_279\n        /* \"#utility.yul\":903:909   */\n      dup2\n        /* \"#utility.yul\":881:910   */\n      tag_224\n      jump\t// in\n    tag_279:\n        /* \"#utility.yul\":876:879   */\n      dup5\n        /* \"#utility.yul\":872:911   */\n      add\n        /* \"#utility.yul\":865:911   */\n      swap2\n      pop\n        /* \"#utility.yul\":632:917   */\n      pop\n        /* \"#utility.yul\":540:917   */\n      swap3\n      swap2\n      pop\n      pop\n      jump\t// out\n        /* \"#utility.yul\":923:1236   */\n    tag_25:\n        /* \"#utility.yul\":1036:1040   */\n      0x00\n        /* \"#utility.yul\":1074:1076   */\n      0x20\n        /* \"#utility.yul\":1063:1072   */\n      dup3\n        /* \"#utility.yul\":1059:1077   */\n      add\n        /* \"#utility.yul\":1051:1077   */\n      swap1\n      pop\n        /* \"#utility.yul\":1123:1132   */\n      dup2\n        /* \"#utility.yul\":1117:1121   */\n      dup2\n        /* \"#utility.yul\":1113:1133   */\n      sub\n        /* \"#utility.yul\":1109:1110   */\n      0x00\n        /* \"#utility.yul\":1098:1107   */\n      dup4\n        /* \"#utility.yul\":1094:1111   */\n      add\n        /* \"#utility.yul\":1087:1134   */\n      mstore\n        /* \"#utility.yul\":1151:1229   */\n      tag_281\n        /* \"#utility.yul\":1224:1228   */\n      dup2\n        /* \"#utility.yul\":1215:1221   */\n      dup5\n        /* \"#utility.yul\":1151:1229   */\n      tag_225\n      jump\t// in\n    tag_281:\n        /* \"#utility.yul\":1143:1229   */\n      swap1\n      pop\n        /* \"#utility.yul\":923:1236   */\n      swap3\n      swap2\n      pop\n      pop\n      jump\t// out\n        /* \"#utility.yul\":1323:1440   */\n    tag_227:\n        /* \"#utility.yul\":1432:1433   */\n      0x00\n        /* \"#utility.yul\":1429:1430   */\n      0x00\n        /* \"#utility.yul\":1422:1434   */\n      revert\n        /* \"#utility.yul\":1569:1695   */\n    tag_229:\n        /* \"#utility.yul\":1606:1613   */\n      0x00\n        /* \"#utility.yul\":1646:1688   */\n      0xffffffffffffffffffffffffffffffffffffffff\n        /* \"#utility.yul\":1639:1644   */\n      dup3\n        /* \"#utility.yul\":1635:1689   */\n      and\n        /* \"#utility.yul\":1624:1689   */\n      swap1\n      pop\n        /* \"#utility.yul\":1569:1695   */\n      swap2\n      swap1\n      pop\n      jump\t// out\n        /* \"#utility.yul\":1701:1797   */\n    tag_230:\n        /* \"#utility.yul\":1738:1745   */\n      0x00\n        /* \"#utility.yul\":1767:1791   */\n      tag_287\n        /* \"#utility.yul\":1785:1790   */\n      dup3\n        /* \"#utility.yul\":1767:1791   */\n      tag_229\n      jump\t// in\n    tag_287:\n        /* \"#utility.yul\":1756:1791   */\n      swap1\n      pop\n        /* \"#utility.yul\":1701:1797   */\n      swap2\n      swap1\n      pop\n      jump\t// out\n        /* \"#utility.yul\":1803:1925   */\n    tag_231:\n        /* \"#utility.yul\":1876:1900   */\n      tag_289\n        /* \"#utility.yul\":1894:1899   */\n      dup2\n        /* \"#utility.yul\":1876:1900   */\n      tag_230\n      jump\t// in\n    tag_289:\n        /* \"#utility.yul\":1869:1874   */\n      dup2\n        /* \"#utility.yul\":1866:1901   */\n      eq\n        /* \"#utility.yul\":1856:1919   */\n      tag_290\n      jumpi\n        /* \"#utility.yul\":1915:1916   */\n      0x00\n        /* \"#utility.yul\":1912:1913   */\n      0x00\n        /* \"#utility.yul\":1905:1917   */\n      revert\n        /* \"#utility.yul\":1856:1919   */\n    tag_290:\n        /* \"#utility.yul\":1803:1925   */\n      pop\n      jump\t// out\n        /* \"#utility.yul\":1931:2070   */\n    tag_232:\n        /* \"#utility.yul\":1977:1982   */\n      0x00\n        /* \"#utility.yul\":2015:2021   */\n      dup2\n        /* \"#utility.yul\":2002:2022   */\n      calldataload\n        /* \"#utility.yul\":1993:2022   */\n      swap1\n      pop\n        /* \"#utility.yul\":2031:2064   */\n      tag_292\n        /* \"#utility.yul\":2058:2063   */\n      dup2\n        /* \"#utility.yul\":2031:2064   */\n      tag_231\n      jump\t// in\n    tag_292:\n        /* \"#utility.yul\":1931:2070   */\n      swap3\n      swap2\n      pop\n      pop\n      jump\t// out\n        /* \"#utility.yul\":2076:2153   */\n    tag_233:\n        /* \"#utility.yul\":2113:2120   */\n      0x00\n        /* \"#utility.yul\":2142:2147   */\n      dup2\n        /* \"#utility.yul\":2131:2147   */\n      swap1\n      pop\n        /* \"#utility.yul\":2076:2153   */\n      swap2\n      swap1\n      pop\n      jump\t// out\n        /* \"#utility.yul\":2159:2281   */\n    tag_234:\n        /* \"#utility.yul\":2232:2256   */\n      tag_295\n        /* \"#utility.yul\":2250:2255   */\n      dup2\n        /* \"#utility.yul\":2232:2256   */\n      tag_233\n      jump\t// in\n    tag_295:\n        /* \"#utility.yul\":2225:2230   */\n      dup2\n        /* \"#utility.yul\":2222:2257   */\n      eq\n        /* \"#utility.yul\":2212:2275   */\n      tag_296\n      jumpi\n        /* \"#utility.yul\":2271:2272   */\n      0x00\n        /* \"#utility.yul\":2268:2269   */\n      0x00\n        /* \"#utility.yul\":2261:2273   */\n      revert\n        /* \"#utility.yul\":2212:2275   */\n    tag_296:\n        /* \"#utility.yul\":2159:2281   */\n      pop\n      jump\t// out\n        /* \"#utility.yul\":2287:2426   */\n    tag_235:\n        /* \"#utility.yul\":2333:2338   */\n      0x00\n        /* \"#utility.yul\":2371:2377   */\n      dup2\n        /* \"#utility.yul\":2358:2378   */\n      calldataload\n        /* \"#utility.yul\":2349:2378   */\n      swap1\n      pop\n        /* \"#utility.yul\":2387:2420   */\n      tag_298\n        /* \"#utility.yul\":2414:2419   */\n      dup2\n        /* \"#utility.yul\":2387:2420   */\n      tag_234\n      jump\t// in\n    tag_298:\n        /* \"#utility.yul\":2287:2426   */\n      swap3\n      swap2\n      pop\n      pop\n      jump\t// out\n        /* \"#utility.yul\":2432:2906   */\n    tag_28:\n        /* \"#utility.yul\":2500:2506   */\n      0x00\n        /* \"#utility.yul\":2508:2514   */\n      0x00\n        /* \"#utility.yul\":2557:2559   */\n      0x40\n        /* \"#utility.yul\":2545:2554   */\n      dup4\n        /* \"#utility.yul\":2536:2543   */\n      dup6\n        /* \"#utility.yul\":2532:2555   */\n      sub\n        /* \"#utility.yul\":2528:2560   */\n      slt\n        /* \"#utility.yul\":2525:2644   */\n      iszero\n      tag_300\n      jumpi\n        /* \"#utility.yul\":2563:2642   */\n      tag_301\n      tag_227\n      jump\t// in\n    tag_301:\n        /* \"#utility.yul\":2525:2644   */\n    tag_300:\n        /* \"#utility.yul\":2683:2684   */\n      0x00\n        /* \"#utility.yul\":2708:2761   */\n      tag_302\n        /* \"#utility.yul\":2753:2760   */\n      dup6\n        /* \"#utility.yul\":2744:2750   */\n      dup3\n        /* \"#utility.yul\":2733:2742   */\n      dup7\n        /* \"#utility.yul\":2729:2751   */\n      add\n        /* \"#utility.yul\":2708:2761   */\n      tag_232\n      jump\t// in\n    tag_302:\n        /* \"#utility.yul\":2698:2761   */\n      swap3\n      pop\n        /* \"#utility.yul\":2654:2771   */\n      pop\n        /* \"#utility.yul\":2810:2812   */\n      0x20\n        /* \"#utility.yul\":2836:2889   */\n      tag_303\n        /* \"#utility.yul\":2881:2888   */\n      dup6\n        /* \"#utility.yul\":2872:2878   */\n      dup3\n        /* \"#utility.yul\":2861:2870   */\n      dup7\n        /* \"#utility.yul\":2857:2879   */\n      add\n        /* \"#utility.yul\":2836:2889   */\n      tag_235\n      jump\t// in\n    tag_303:\n        /* \"#utility.yul\":2826:2889   */\n      swap2\n      pop\n        /* \"#utility.yul\":2781:2899   */\n      pop\n        /* \"#utility.yul\":2432:2906   */\n      swap3\n      pop\n      swap3\n      swap1\n      pop\n      jump\t// out\n        /* \"#utility.yul\":2912:3002   */\n    tag_236:\n        /* \"#utility.yul\":2946:2953   */\n      0x00\n        /* \"#utility.yul\":2989:2994   */\n      dup2\n        /* \"#utility.yul\":2982:2995   */\n      iszero\n        /* \"#utility.yul\":2975:2996   */\n      iszero\n        /* \"#utility.yul\":2964:2996   */\n      swap1\n      pop\n        /* \"#utility.yul\":2912:3002   */\n      swap2\n      swap1\n      pop\n      jump\t// out\n        /* \"#utility.yul\":3008:3117   */\n    tag_237:\n        /* \"#utility.yul\":3089:3110   */\n      tag_306\n        /* \"#utility.yul\":3104:3109   */\n      dup2\n        /* \"#utility.yul\":3089:3110   */\n      tag_236\n      jump\t// in\n    tag_306:\n        /* \"#utility.yul\":3084:3087   */\n      dup3\n        /* \"#utility.yul\":3077:3111   */\n      mstore\n        /* \"#utility.yul\":3008:3117   */\n      pop\n      pop\n      jump\t// out\n        /* \"#utility.yul\":3123:3333   */\n    tag_31:\n        /* \"#utility.yul\":3210:3214   */\n      0x00\n        /* \"#utility.yul\":3248:3250   */\n      0x20\n        /* \"#utility.yul\":3237:3246   */\n      dup3\n        /* \"#utility.yul\":3233:3251   */\n      add\n        /* \"#utility.yul\":3225:3251   */\n      swap1\n      pop\n        /* \"#utility.yul\":3261:3326   */\n      tag_308\n        /* \"#utility.yul\":3323:3324   */\n      0x00\n        /* \"#utility.yul\":3312:3321   */\n      dup4\n        /* \"#utility.yul\":3308:3325   */\n      add\n        /* \"#utility.yul\":3299:3305   */\n      dup5\n        /* \"#utility.yul\":3261:3326   */\n      tag_237\n      jump\t// in\n    tag_308:\n        /* \"#utility.yul\":3123:3333   */\n      swap3\n      swap2\n      pop\n      pop\n      jump\t// out\n        /* \"#utility.yul\":3339:3457   */\n    tag_238:\n        /* \"#utility.yul\":3426:3450   */\n      tag_310\n        /* \"#utility.yul\":3444:3449   */\n      dup2\n        /* \"#utility.yul\":3426:3450   */\n      tag_233\n      jump\t// in\n    tag_310:\n        /* \"#utility.yul\":3421:3424   */\n      dup3\n        /* \"#utility.yul\":3414:3451   */\n      mstore\n        /* \"#utility.yul\":3339:3457   */\n      pop\n      pop\n      jump\t// out\n        /* \"#utility.yul\":3463:3685   */\n    tag_35:\n        /* \"#utility.yul\":3556:3560   */\n      0x00\n        /* \"#utility.yul\":3594:3596   */\n      0x20\n        /* \"#utility.yul\":3583:3592   */\n      dup3\n        /* \"#utility.yul\":3579:3597   */\n      add\n        /* \"#utility.yul\":3571:3597   */\n      swap1\n      pop\n        /* \"#utility.yul\":3607:3678   */\n      tag_312\n        /* \"#utility.yul\":3675:3676   */\n      0x00\n        /* \"#utility.yul\":3664:3673   */\n      dup4\n        /* \"#utility.yul\":3660:3677   */\n      add\n        /* \"#utility.yul\":3651:3657   */\n      dup5\n        /* \"#utility.yul\":3607:3678   */\n      tag_238\n      jump\t// in\n    tag_312:\n        /* \"#utility.yul\":3463:3685   */\n      swap3\n      swap2\n      pop\n      pop\n      jump\t// out\n        /* \"#utility.yul\":3691:4310   */\n    tag_38:\n        /* \"#utility.yul\":3768:3774   */\n      0x00\n        /* \"#utility.yul\":3776:3782   */\n      0x00\n        /* \"#utility.yul\":3784:3790   */\n      0x00\n        /* \"#utility.yul\":3833:3835   */\n      0x60\n        /* \"#utility.yul\":3821:3830   */\n      dup5\n        /* \"#utility.yul\":3812:3819   */\n      dup7\n        /* \"#utility.yul\":3808:3831   */\n      sub\n        /* \"#utility.yul\":3804:3836   */\n      slt\n        /* \"#utility.yul\":3801:3920   */\n      iszero\n      tag_314\n      jumpi\n        /* \"#utility.yul\":3839:3918   */\n      tag_315\n      tag_227\n      jump\t// in\n    tag_315:\n        /* \"#utility.yul\":3801:3920   */\n    tag_314:\n        /* \"#utility.yul\":3959:3960   */\n      0x00\n        /* \"#utility.yul\":3984:4037   */\n      tag_316\n        /* \"#utility.yul\":4029:4036   */\n      dup7\n        /* \"#utility.yul\":4020:4026   */\n      dup3\n        /* \"#utility.yul\":4009:4018   */\n      dup8\n        /* \"#utility.yul\":4005:4027   */\n      add\n        /* \"#utility.yul\":3984:4037   */\n      tag_232\n      jump\t// in\n    tag_316:\n        /* \"#utility.yul\":3974:4037   */\n      swap4\n      pop\n        /* \"#utility.yul\":3930:4047   */\n      pop\n        /* \"#utility.yul\":4086:4088   */\n      0x20\n        /* \"#utility.yul\":4112:4165   */\n      tag_317\n        /* \"#utility.yul\":4157:4164   */\n      dup7\n        /* \"#utility.yul\":4148:4154   */\n      dup3\n        /* \"#utility.yul\":4137:4146   */\n      dup8\n        /* \"#utility.yul\":4133:4155   */\n      add\n        /* \"#utility.yul\":4112:4165   */\n      tag_232\n      jump\t// in\n    tag_317:\n        /* \"#utility.yul\":4102:4165   */\n      swap3\n      pop\n        /* \"#utility.yul\":4057:4175   */\n      pop\n        /* \"#utility.yul\":4214:4216   */\n      0x40\n        /* \"#utility.yul\":4240:4293   */\n      tag_318\n        /* \"#utility.yul\":4285:4292   */\n      dup7\n        /* \"#utility.yul\":4276:4282   */\n      dup3\n        /* \"#utility.yul\":4265:4274   */\n      dup8\n        /* \"#utility.yul\":4261:4283   */\n      add\n        /* \"#utility.yul\":4240:4293   */\n      tag_235\n      jump\t// in\n    tag_318:\n        /* \"#utility.yul\":4230:4293   */\n      swap2\n      pop\n        /* \"#utility.yul\":4185:4303   */\n      pop\n        /* \"#utility.yul\":3691:4310   */\n      swap3\n      pop\n      swap3\n      pop\n      swap3\n      jump\t// out\n        /* \"#utility.yul\":4316:4402   */\n    tag_239:\n        /* \"#utility.yul\":4351:4358   */\n      0x00\n        /* \"#utility.yul\":4391:4395   */\n      0xff\n        /* \"#utility.yul\":4384:4389   */\n      dup3\n        /* \"#utility.yul\":4380:4396   */\n      and\n        /* \"#utility.yul\":4369:4396   */\n      swap1\n      pop\n        /* \"#utility.yul\":4316:4402   */\n      swap2\n      swap1\n      pop\n      jump\t// out\n        /* \"#utility.yul\":4408:4520   */\n    tag_240:\n        /* \"#utility.yul\":4491:4513   */\n      tag_321\n        /* \"#utility.yul\":4507:4512   */\n      dup2\n        /* \"#utility.yul\":4491:4513   */\n      tag_239\n      jump\t// in\n    tag_321:\n        /* \"#utility.yul\":4486:4489   */\n      dup3\n        /* \"#utility.yul\":4479:4514   */\n      mstore\n        /* \"#utility.yul\":4408:4520   */\n      pop\n      pop\n      jump\t// out\n        /* \"#utility.yul\":4526:4740   */\n    tag_44:\n        /* \"#utility.yul\":4615:4619   */\n      0x00\n        /* \"#utility.yul\":4653:4655   */\n      0x20\n        /* \"#utility.yul\":4642:4651   */\n      dup3\n        /* \"#utility.yul\":4638:4656   */\n      add\n        /* \"#utility.yul\":4630:4656   */\n      swap1\n      pop\n        /* \"#utility.yul\":4666:4733   */\n      tag_323\n        /* \"#utility.yul\":4730:4731   */\n      0x00\n        /* \"#utility.yul\":4719:4728   */\n      dup4\n        /* \"#utility.yul\":4715:4732   */\n      add\n        /* \"#utility.yul\":4706:4712   */\n      dup5\n        /* \"#utility.yul\":4666:4733   */\n      tag_240\n      jump\t// in\n    tag_323:\n        /* \"#utility.yul\":4526:4740   */\n      swap3\n      swap2\n      pop\n      pop\n      jump\t// out\n        /* \"#utility.yul\":4746:5075   */\n    tag_51:\n        /* \"#utility.yul\":4805:4811   */\n      0x00\n        /* \"#utility.yul\":4854:4856   */\n      0x20\n        /* \"#utility.yul\":4842:4851   */\n      dup3\n        /* \"#utility.yul\":4833:4840   */\n      dup5\n        /* \"#utility.yul\":4829:4852   */\n      sub\n        /* \"#utility.yul\":4825:4857   */\n      slt\n        /* \"#utility.yul\":4822:4941   */\n      iszero\n      tag_325\n      jumpi\n        /* \"#utility.yul\":4860:4939   */\n      tag_326\n      tag_227\n      jump\t// in\n    tag_326:\n        /* \"#utility.yul\":4822:4941   */\n    tag_325:\n        /* \"#utility.yul\":4980:4981   */\n      0x00\n        /* \"#utility.yul\":5005:5058   */\n      tag_327\n        /* \"#utility.yul\":5050:5057   */\n      dup5\n        /* \"#utility.yul\":5041:5047   */\n      dup3\n        /* \"#utility.yul\":5030:5039   */\n      dup6\n        /* \"#utility.yul\":5026:5048   */\n      add\n        /* \"#utility.yul\":5005:5058   */\n      tag_235\n      jump\t// in\n    tag_327:\n        /* \"#utility.yul\":4995:5058   */\n      swap2\n      pop\n        /* \"#utility.yul\":4951:5068   */\n      pop\n        /* \"#utility.yul\":4746:5075   */\n      swap3\n      swap2\n      pop\n      pop\n      jump\t// out\n        /* \"#utility.yul\":5081:5410   */\n    tag_55:\n        /* \"#utility.yul\":5140:5146   */\n      0x00\n        /* \"#utility.yul\":5189:5191   */\n      0x20\n        /* \"#utility.yul\":5177:5186   */\n      dup3\n        /* \"#utility.yul\":5168:5175   */\n      dup5\n        /* \"#utility.yul\":5164:5187   */\n      sub\n        /* \"#utility.yul\":5160:5192   */\n      slt\n        /* \"#utility.yul\":5157:5276   */\n      iszero\n      tag_329\n      jumpi\n        /* \"#utility.yul\":5195:5274   */\n      tag_330\n      tag_227\n      jump\t// in\n    tag_330:\n        /* \"#utility.yul\":5157:5276   */\n    tag_329:\n        /* \"#utility.yul\":5315:5316   */\n      0x00\n        /* \"#utility.yul\":5340:5393   */\n      tag_331\n        /* \"#utility.yul\":5385:5392   */\n      dup5\n        /* \"#utility.yul\":5376:5382   */\n      dup3\n        /* \"#utility.yul\":5365:5374   */\n      dup6\n        /* \"#utility.yul\":5361:5383   */\n      add\n        /* \"#utility.yul\":5340:5393   */\n      tag_232\n      jump\t// in\n    tag_331:\n        /* \"#utility.yul\":5330:5393   */\n      swap2\n      pop\n        /* \"#utility.yul\":5286:5403   */\n      pop\n        /* \"#utility.yul\":5081:5410   */\n      swap3\n      swap2\n      pop\n      pop\n      jump\t// out\n        /* \"#utility.yul\":5416:5534   */\n    tag_241:\n        /* \"#utility.yul\":5503:5527   */\n      tag_333\n        /* \"#utility.yul\":5521:5526   */\n      dup2\n        /* \"#utility.yul\":5503:5527   */\n      tag_230\n      jump\t// in\n    tag_333:\n        /* \"#utility.yul\":5498:5501   */\n      dup3\n        /* \"#utility.yul\":5491:5528   */\n      mstore\n        /* \"#utility.yul\":5416:5534   */\n      pop\n      pop\n      jump\t// out\n        /* \"#utility.yul\":5540:5762   */\n    tag_66:\n        /* \"#utility.yul\":5633:5637   */\n      0x00\n        /* \"#utility.yul\":5671:5673   */\n      0x20\n        /* \"#utility.yul\":5660:5669   */\n      dup3\n        /* \"#utility.yul\":5656:5674   */\n      add\n        /* \"#utility.yul\":5648:5674   */\n      swap1\n      pop\n        /* \"#utility.yul\":5684:5755   */\n      tag_335\n        /* \"#utility.yul\":5752:5753   */\n      0x00\n        /* \"#utility.yul\":5741:5750   */\n      dup4\n        /* \"#utility.yul\":5737:5754   */\n      add\n        /* \"#utility.yul\":5728:5734   */\n      dup5\n        /* \"#utility.yul\":5684:5755   */\n      tag_241\n      jump\t// in\n    tag_335:\n        /* \"#utility.yul\":5540:5762   */\n      swap3\n      swap2\n      pop\n      pop\n      jump\t// out\n        /* \"#utility.yul\":5768:6242   */\n    tag_80:\n        /* \"#utility.yul\":5836:5842   */\n      0x00\n        /* \"#utility.yul\":5844:5850   */\n      0x00\n        /* \"#utility.yul\":5893:5895   */\n      0x40\n        /* \"#utility.yul\":5881:5890   */\n      dup4\n        /* \"#utility.yul\":5872:5879   */\n      dup6\n        /* \"#utility.yul\":5868:5891   */\n      sub\n        /* \"#utility.yul\":5864:5896   */\n      slt\n        /* \"#utility.yul\":5861:5980   */\n      iszero\n      tag_337\n      jumpi\n        /* \"#utility.yul\":5899:5978   */\n      tag_338\n      tag_227\n      jump\t// in\n    tag_338:\n        /* \"#utility.yul\":5861:5980   */\n    tag_337:\n        /* \"#utility.yul\":6019:6020   */\n      0x00\n        /* \"#utility.yul\":6044:6097   */\n      tag_339\n        /* \"#utility.yul\":6089:6096   */\n      dup6\n        /* \"#utility.yul\":6080:6086   */\n      dup3\n        /* \"#utility.yul\":6069:6078   */\n      dup7\n        /* \"#utility.yul\":6065:6087   */\n      add\n        /* \"#utility.yul\":6044:6097   */\n      tag_232\n      jump\t// in\n    tag_339:\n        /* \"#utility.yul\":6034:6097   */\n      swap3\n      pop\n        /* \"#utility.yul\":5990:6107   */\n      pop\n        /* \"#utility.yul\":6146:6148   */\n      0x20\n        /* \"#utility.yul\":6172:6225   */\n      tag_340\n        /* \"#utility.yul\":6217:6224   */\n      dup6\n        /* \"#utility.yul\":6208:6214   */\n      dup3\n        /* \"#utility.yul\":6197:6206   */\n      dup7\n        /* \"#utility.yul\":6193:6215   */\n      add\n        /* \"#utility.yul\":6172:6225   */\n      tag_232\n      jump\t// in\n    tag_340:\n        /* \"#utility.yul\":6162:6225   */\n      swap2\n      pop\n        /* \"#utility.yul\":6117:6235   */\n      pop\n        /* \"#utility.yul\":5768:6242   */\n      swap3\n      pop\n      swap3\n      swap1\n      pop\n      jump\t// out\n        /* \"#utility.yul\":6248:6428   */\n    tag_242:\n        /* \"#utility.yul\":6296:6373   */\n      0x4e487b7100000000000000000000000000000000000000000000000000000000\n        /* \"#utility.yul\":6293:6294   */\n      0x00\n        /* \"#utility.yul\":6286:6374   */\n      mstore\n        /* \"#utility.yul\":6393:6397   */\n      0x22\n        /* \"#utility.yul\":6390:6391   */\n      0x04\n        /* \"#utility.yul\":6383:6398   */\n      mstore\n        /* \"#utility.yul\":6417:6421   */\n      0x24\n        /* \"#utility.yul\":6414:6415   */\n      0x00\n        /* \"#utility.yul\":6407:6422   */\n      revert\n        /* \"#utility.yul\":6434:6754   */\n    tag_88:\n        /* \"#utility.yul\":6478:6484   */\n      0x00\n        /* \"#utility.yul\":6515:6516   */\n      0x02\n        /* \"#utility.yul\":6509:6513   */\n      dup3\n        /* \"#utility.yul\":6505:6517   */\n      div\n        /* \"#utility.yul\":6495:6517   */\n      swap1\n      pop\n        /* \"#utility.yul\":6562:6563   */\n      0x01\n        /* \"#utility.yul\":6556:6560   */\n      dup3\n        /* \"#utility.yul\":6552:6564   */\n      and\n        /* \"#utility.yul\":6583:6601   */\n      dup1\n        /* \"#utility.yul\":6573:6654   */\n      tag_343\n      jumpi\n        /* \"#utility.yul\":6639:6643   */\n      0x7f\n        /* \"#utility.yul\":6631:6637   */\n      dup3\n        /* \"#utility.yul\":6627:6644   */\n      and\n        /* \"#utility.yul\":6617:6644   */\n      swap2\n      pop\n        /* \"#utility.yul\":6573:6654   */\n    tag_343:\n        /* \"#utility.yul\":6701:6703   */\n      0x20\n        /* \"#utility.yul\":6693:6699   */\n      dup3\n        /* \"#utility.yul\":6690:6704   */\n      lt\n        /* \"#utility.yul\":6670:6688   */\n      dup2\n        /* \"#utility.yul\":6667:6705   */\n      sub\n        /* \"#utility.yul\":6664:6748   */\n      tag_344\n      jumpi\n        /* \"#utility.yul\":6720:6738   */\n      tag_345\n      tag_242\n      jump\t// in\n    tag_345:\n        /* \"#utility.yul\":6664:6748   */\n    tag_344:\n        /* \"#utility.yul\":6485:6754   */\n      pop\n        /* \"#utility.yul\":6434:6754   */\n      swap2\n      swap1\n      pop\n      jump\t// out\n        /* \"#utility.yul\":6760:6984   */\n    tag_243:\n        /* \"#utility.yul\":6900:6934   */\n      0x45524332303a2064656372656173656420616c6c6f77616e63652062656c6f77\n        /* \"#utility.yul\":6896:6897   */\n      0x00\n        /* \"#utility.yul\":6888:6894   */\n      dup3\n        /* \"#utility.yul\":6884:6898   */\n      add\n        /* \"#utility.yul\":6877:6935   */\n      mstore\n        /* \"#utility.yul\":6969:6976   */\n      0x207a65726f000000000000000000000000000000000000000000000000000000\n        /* \"#utility.yul\":6964:6966   */\n      0x20\n        /* \"#utility.yul\":6956:6962   */\n      dup3\n        /* \"#utility.yul\":6952:6967   */\n      add\n        /* \"#utility.yul\":6945:6977   */\n      mstore\n        /* \"#utility.yul\":6760:6984   */\n      pop\n      jump\t// out\n        /* \"#utility.yul\":6990:7356   */\n    tag_244:\n        /* \"#utility.yul\":7132:7135   */\n      0x00\n        /* \"#utility.yul\":7153:7220   */\n      tag_348\n        /* \"#utility.yul\":7217:7219   */\n      0x25\n        /* \"#utility.yul\":7212:7215   */\n      dup4\n        /* \"#utility.yul\":7153:7220   */\n      tag_222\n      jump\t// in\n    tag_348:\n        /* \"#utility.yul\":7146:7220   */\n      swap2\n      pop\n        /* \"#utility.yul\":7229:7322   */\n      tag_349\n        /* \"#utility.yul\":7318:7321   */\n      dup3\n        /* \"#utility.yul\":7229:7322   */\n      tag_243\n      jump\t// in\n    tag_349:\n        /* \"#utility.yul\":7347:7349   */\n      0x40\n        /* \"#utility.yul\":7342:7345   */\n      dup3\n        /* \"#utility.yul\":7338:7350   */\n      add\n        /* \"#utility.yul\":7331:7350   */\n      swap1\n      pop\n        /* \"#utility.yul\":6990:7356   */\n      swap2\n      swap1\n      pop\n      jump\t// out\n        /* \"#utility.yul\":7362:7781   */\n    tag_139:\n        /* \"#utility.yul\":7528:7532   */\n      0x00\n        /* \"#utility.yul\":7566:7568   */\n      0x20\n        /* \"#utility.yul\":7555:7564   */\n      dup3\n        /* \"#utility.yul\":7551:7569   */\n      add\n        /* \"#utility.yul\":7543:7569   */\n      swap1\n      pop\n        /* \"#utility.yul\":7615:7624   */\n      dup2\n        /* \"#utility.yul\":7609:7613   */\n      dup2\n        /* \"#utility.yul\":7605:7625   */\n      sub\n        /* \"#utility.yul\":7601:7602   */\n      0x00\n        /* \"#utility.yul\":7590:7599   */\n      dup4\n        /* \"#utility.yul\":7586:7603   */\n      add\n        /* \"#utility.yul\":7579:7626   */\n      mstore\n        /* \"#utility.yul\":7643:7774   */\n      tag_351\n        /* \"#utility.yul\":7769:7773   */\n      dup2\n        /* \"#utility.yul\":7643:7774   */\n      tag_244\n      jump\t// in\n    tag_351:\n        /* \"#utility.yul\":7635:7774   */\n      swap1\n      pop\n        /* \"#utility.yul\":7362:7781   */\n      swap2\n      swap1\n      pop\n      jump\t// out\n        /* \"#utility.yul\":7787:8012   */\n    tag_245:\n        /* \"#utility.yul\":7927:7961   */\n      0x4f776e61626c653a206e6577206f776e657220697320746865207a65726f2061\n        /* \"#utility.yul\":7923:7924   */\n      0x00\n        /* \"#utility.yul\":7915:7921   */\n      dup3\n        /* \"#utility.yul\":7911:7925   */\n      add\n        /* \"#utility.yul\":7904:7962   */\n      mstore\n        /* \"#utility.yul\":7996:8004   */\n      0x6464726573730000000000000000000000000000000000000000000000000000\n        /* \"#utility.yul\":7991:7993   */\n      0x20\n        /* \"#utility.yul\":7983:7989   */\n      dup3\n        /* \"#utility.yul\":7979:7994   */\n      add\n        /* \"#utility.yul\":7972:8005   */\n      mstore\n        /* \"#utility.yul\":7787:8012   */\n      pop\n      jump\t// out\n        /* \"#utility.yul\":8018:8384   */\n    tag_246:\n        /* \"#utility.yul\":8160:8163   */\n      0x00\n        /* \"#utility.yul\":8181:8248   */\n      tag_354\n        /* \"#utility.yul\":8245:8247   */\n      0x26\n        /* \"#utility.yul\":8240:8243   */\n      dup4\n        /* \"#utility.yul\":8181:8248   */\n      tag_222\n      jump\t// in\n    tag_354:\n        /* \"#utility.yul\":8174:8248   */\n      swap2\n      pop\n        /* \"#utility.yul\":8257:8350   */\n      tag_355\n        /* \"#utility.yul\":8346:8349   */\n      dup3\n        /* \"#utility.yul\":8257:8350   */\n      tag_245\n      jump\t// in\n    tag_355:\n        /* \"#utility.yul\":8375:8377   */\n      0x40\n        /* \"#utility.yul\":8370:8373   */\n      dup3\n        /* \"#utility.yul\":8366:8378   */\n      add\n        /* \"#utility.yul\":8359:8378   */\n      swap1\n      pop\n        /* \"#utility.yul\":8018:8384   */\n      swap2\n      swap1\n      pop\n      jump\t// out\n        /* \"#utility.yul\":8390:8809   */\n    tag_152:\n        /* \"#utility.yul\":8556:8560   */\n      0x00\n        /* \"#utility.yul\":8594:8596   */\n      0x20\n        /* \"#utility.yul\":8583:8592   */\n      dup3\n        /* \"#utility.yul\":8579:8597   */\n      add\n        /* \"#utility.yul\":8571:8597   */\n      swap1\n      pop\n        /* \"#utility.yul\":8643:8652   */\n      dup2\n        /* \"#utility.yul\":8637:8641   */\n      dup2\n        /* \"#utility.yul\":8633:8653   */\n      sub\n        /* \"#utility.yul\":8629:8630   */\n      0x00\n        /* \"#utility.yul\":8618:8627   */\n      dup4\n        /* \"#utility.yul\":8614:8631   */\n      add\n        /* \"#utility.yul\":8607:8654   */\n      mstore\n        /* \"#utility.yul\":8671:8802   */\n      tag_357\n        /* \"#utility.yul\":8797:8801   */\n      dup2\n        /* \"#utility.yul\":8671:8802   */\n      tag_246\n      jump\t// in\n    tag_357:\n        /* \"#utility.yul\":8663:8802   */\n      swap1\n      pop\n        /* \"#utility.yul\":8390:8809   */\n      swap2\n      swap1\n      pop\n      jump\t// out\n        /* \"#utility.yul\":8815:9038   */\n    tag_247:\n        /* \"#utility.yul\":8955:8989   */\n      0x45524332303a20617070726f76652066726f6d20746865207a65726f20616464\n        /* \"#utility.yul\":8951:8952   */\n      0x00\n        /* \"#utility.yul\":8943:8949   */\n      dup3\n        /* \"#utility.yul\":8939:8953   */\n      add\n        /* \"#utility.yul\":8932:8990   */\n      mstore\n        /* \"#utility.yul\":9024:9030   */\n      0x7265737300000000000000000000000000000000000000000000000000000000\n        /* \"#utility.yul\":9019:9021   */\n      0x20\n        /* \"#utility.yul\":9011:9017   */\n      dup3\n        /* \"#utility.yul\":9007:9022   */\n      add\n        /* \"#utility.yul\":9000:9031   */\n      mstore\n        /* \"#utility.yul\":8815:9038   */\n      pop\n      jump\t// out\n        /* \"#utility.yul\":9044:9410   */\n    tag_248:\n        /* \"#utility.yul\":9186:9189   */\n      0x00\n        /* \"#utility.yul\":9207:9274   */\n      tag_360\n        /* \"#utility.yul\":9271:9273   */\n      0x24\n        /* \"#utility.yul\":9266:9269   */\n      dup4\n        /* \"#utility.yul\":9207:9274   */\n      tag_222\n      jump\t// in\n    tag_360:\n        /* \"#utility.yul\":9200:9274   */\n      swap2\n      pop\n        /* \"#utility.yul\":9283:9376   */\n      tag_361\n        /* \"#utility.yul\":9372:9375   */\n      dup3\n        /* \"#utility.yul\":9283:9376   */\n      tag_247\n      jump\t// in\n    tag_361:\n        /* \"#utility.yul\":9401:9403   */\n      0x40\n        /* \"#utility.yul\":9396:9399   */\n      dup3\n        /* \"#utility.yul\":9392:9404   */\n      add\n        /* \"#utility.yul\":9385:9404   */\n      swap1\n      pop\n        /* \"#utility.yul\":9044:9410   */\n      swap2\n      swap1\n      pop\n      jump\t// out\n        /* \"#utility.yul\":9416:9835   */\n    tag_158:\n        /* \"#utility.yul\":9582:9586   */\n      0x00\n        /* \"#utility.yul\":9620:9622   */\n      0x20\n        /* \"#utility.yul\":9609:9618   */\n      dup3\n        /* \"#utility.yul\":9605:9623   */\n      add\n        /* \"#utility.yul\":9597:9623   */\n      swap1\n      pop\n        /* \"#utility.yul\":9669:9678   */\n      dup2\n        /* \"#utility.yul\":9663:9667   */\n      dup2\n        /* \"#utility.yul\":9659:9679   */\n      sub\n        /* \"#utility.yul\":9655:9656   */\n      0x00\n        /* \"#utility.yul\":9644:9653   */\n      dup4\n        /* \"#utility.yul\":9640:9657   */\n      add\n        /* \"#utility.yul\":9633:9680   */\n      mstore\n        /* \"#utility.yul\":9697:9828   */\n      tag_363\n        /* \"#utility.yul\":9823:9827   */\n      dup2\n        /* \"#utility.yul\":9697:9828   */\n      tag_248\n      jump\t// in\n    tag_363:\n        /* \"#utility.yul\":9689:9828   */\n      swap1\n      pop\n        /* \"#utility.yul\":9416:9835   */\n      swap2\n      swap1\n      pop\n      jump\t// out\n        /* \"#utility.yul\":9841:10062   */\n    tag_249:\n        /* \"#utility.yul\":9981:10015   */\n      0x45524332303a20617070726f766520746f20746865207a65726f206164647265\n        /* \"#utility.yul\":9977:9978   */\n      0x00\n        /* \"#utility.yul\":9969:9975   */\n      dup3\n        /* \"#utility.yul\":9965:9979   */\n      add\n        /* \"#utility.yul\":9958:10016   */\n      mstore\n        /* \"#utility.yul\":10050:10054   */\n      0x7373000000000000000000000000000000000000000000000000000000000000\n        /* \"#utility.yul\":10045:10047   */\n      0x20\n        /* \"#utility.yul\":10037:10043   */\n      dup3\n        /* \"#utility.yul\":10033:10048   */\n      add\n        /* \"#utility.yul\":10026:10055   */\n      mstore\n        /* \"#utility.yul\":9841:10062   */\n      pop\n      jump\t// out\n        /* \"#utility.yul\":10068:10434   */\n    tag_250:\n        /* \"#utility.yul\":10210:10213   */\n      0x00\n        /* \"#utility.yul\":10231:10298   */\n      tag_366\n        /* \"#utility.yul\":10295:10297   */\n      0x22\n        /* \"#utility.yul\":10290:10293   */\n      dup4\n        /* \"#utility.yul\":10231:10298   */\n      tag_222\n      jump\t// in\n    tag_366:\n        /* \"#utility.yul\":10224:10298   */\n      swap2\n      pop\n        /* \"#utility.yul\":10307:10400   */\n      tag_367\n        /* \"#utility.yul\":10396:10399   */\n      dup3\n        /* \"#utility.yul\":10307:10400   */\n      tag_249\n      jump\t// in\n    tag_367:\n        /* \"#utility.yul\":10425:10427   */\n      0x40\n        /* \"#utility.yul\":10420:10423   */\n      dup3\n        /* \"#utility.yul\":10416:10428   */\n      add\n        /* \"#utility.yul\":10409:10428   */\n      swap1\n      pop\n        /* \"#utility.yul\":10068:10434   */\n      swap2\n      swap1\n      pop\n      jump\t// out\n        /* \"#utility.yul\":10440:10859   */\n    tag_161:\n        /* \"#utility.yul\":10606:10610   */\n      0x00\n        /* \"#utility.yul\":10644:10646   */\n      0x20\n        /* \"#utility.yul\":10633:10642   */\n      dup3\n        /* \"#utility.yul\":10629:10647   */\n      add\n        /* \"#utility.yul\":10621:10647   */\n      swap1\n      pop\n        /* \"#utility.yul\":10693:10702   */\n      dup2\n        /* \"#utility.yul\":10687:10691   */\n      dup2\n        /* \"#utility.yul\":10683:10703   */\n      sub\n        /* \"#utility.yul\":10679:10680   */\n      0x00\n        /* \"#utility.yul\":10668:10677   */\n      dup4\n        /* \"#utility.yul\":10664:10681   */\n      add\n        /* \"#utility.yul\":10657:10704   */\n      mstore\n        /* \"#utility.yul\":10721:10852   */\n      tag_369\n        /* \"#utility.yul\":10847:10851   */\n      dup2\n        /* \"#utility.yul\":10721:10852   */\n      tag_250\n      jump\t// in\n    tag_369:\n        /* \"#utility.yul\":10713:10852   */\n      swap1\n      pop\n        /* \"#utility.yul\":10440:10859   */\n      swap2\n      swap1\n      pop\n      jump\t// out\n        /* \"#utility.yul\":10865:11044   */\n    tag_251:\n        /* \"#utility.yul\":11005:11036   */\n      0x45524332303a20696e73756666696369656e7420616c6c6f77616e6365000000\n        /* \"#utility.yul\":11001:11002   */\n      0x00\n        /* \"#utility.yul\":10993:10999   */\n      dup3\n        /* \"#utility.yul\":10989:11003   */\n      add\n        /* \"#utility.yul\":10982:11037   */\n      mstore\n        /* \"#utility.yul\":10865:11044   */\n      pop\n      jump\t// out\n        /* \"#utility.yul\":11050:11416   */\n    tag_252:\n        /* \"#utility.yul\":11192:11195   */\n      0x00\n        /* \"#utility.yul\":11213:11280   */\n      tag_372\n        /* \"#utility.yul\":11277:11279   */\n      0x1d\n        /* \"#utility.yul\":11272:11275   */\n      dup4\n        /* \"#utility.yul\":11213:11280   */\n      tag_222\n      jump\t// in\n    tag_372:\n        /* \"#utility.yul\":11206:11280   */\n      swap2\n      pop\n        /* \"#utility.yul\":11289:11382   */\n      tag_373\n        /* \"#utility.yul\":11378:11381   */\n      dup3\n        /* \"#utility.yul\":11289:11382   */\n      tag_251\n      jump\t// in\n    tag_373:\n        /* \"#utility.yul\":11407:11409   */\n      0x20\n        /* \"#utility.yul\":11402:11405   */\n      dup3\n        /* \"#utility.yul\":11398:11410   */\n      add\n        /* \"#utility.yul\":11391:11410   */\n      swap1\n      pop\n        /* \"#utility.yul\":11050:11416   */\n      swap2\n      swap1\n      pop\n      jump\t// out\n        /* \"#utility.yul\":11422:11841   */\n    tag_168:\n        /* \"#utility.yul\":11588:11592   */\n      0x00\n        /* \"#utility.yul\":11626:11628   */\n      0x20\n        /* \"#utility.yul\":11615:11624   */\n      dup3\n        /* \"#utility.yul\":11611:11629   */\n      add\n        /* \"#utility.yul\":11603:11629   */\n      swap1\n      pop\n        /* \"#utility.yul\":11675:11684   */\n      dup2\n        /* \"#utility.yul\":11669:11673   */\n      dup2\n        /* \"#utility.yul\":11665:11685   */\n      sub\n        /* \"#utility.yul\":11661:11662   */\n      0x00\n        /* \"#utility.yul\":11650:11659   */\n      dup4\n        /* \"#utility.yul\":11646:11663   */\n      add\n        /* \"#utility.yul\":11639:11686   */\n      mstore\n        /* \"#utility.yul\":11703:11834   */\n      tag_375\n        /* \"#utility.yul\":11829:11833   */\n      dup2\n        /* \"#utility.yul\":11703:11834   */\n      tag_252\n      jump\t// in\n    tag_375:\n        /* \"#utility.yul\":11695:11834   */\n      swap1\n      pop\n        /* \"#utility.yul\":11422:11841   */\n      swap2\n      swap1\n      pop\n      jump\t// out\n        /* \"#utility.yul\":11847:12071   */\n    tag_253:\n        /* \"#utility.yul\":11987:12021   */\n      0x45524332303a207472616e736665722066726f6d20746865207a65726f206164\n        /* \"#utility.yul\":11983:11984   */\n      0x00\n        /* \"#utility.yul\":11975:11981   */\n      dup3\n        /* \"#utility.yul\":11971:11985   */\n      add\n        /* \"#utility.yul\":11964:12022   */\n      mstore\n        /* \"#utility.yul\":12056:12063   */\n      0x6472657373000000000000000000000000000000000000000000000000000000\n        /* \"#utility.yul\":12051:12053   */\n      0x20\n        /* \"#utility.yul\":12043:12049   */\n      dup3\n        /* \"#utility.yul\":12039:12054   */\n      add\n        /* \"#utility.yul\":12032:12064   */\n      mstore\n        /* \"#utility.yul\":11847:12071   */\n      pop\n      jump\t// out\n        /* \"#utility.yul\":12077:12443   */\n    tag_254:\n        /* \"#utility.yul\":12219:12222   */\n      0x00\n        /* \"#utility.yul\":12240:12307   */\n      tag_378\n        /* \"#utility.yul\":12304:12306   */\n      0x25\n        /* \"#utility.yul\":12299:12302   */\n      dup4\n        /* \"#utility.yul\":12240:12307   */\n      tag_222\n      jump\t// in\n    tag_378:\n        /* \"#utility.yul\":12233:12307   */\n      swap2\n      pop\n        /* \"#utility.yul\":12316:12409   */\n      tag_379\n        /* \"#utility.yul\":12405:12408   */\n      dup3\n        /* \"#utility.yul\":12316:12409   */\n      tag_253\n      jump\t// in\n    tag_379:\n        /* \"#utility.yul\":12434:12436   */\n      0x40\n        /* \"#utility.yul\":12429:12432   */\n      dup3\n        /* \"#utility.yul\":12425:12437   */\n      add\n        /* \"#utility.yul\":12418:12437   */\n      swap1\n      pop\n        /* \"#utility.yul\":12077:12443   */\n      swap2\n      swap1\n      pop\n      jump\t// out\n        /* \"#utility.yul\":12449:12868   */\n    tag_174:\n        /* \"#utility.yul\":12615:12619   */\n      0x00\n        /* \"#utility.yul\":12653:12655   */\n      0x20\n        /* \"#utility.yul\":12642:12651   */\n      dup3\n        /* \"#utility.yul\":12638:12656   */\n      add\n        /* \"#utility.yul\":12630:12656   */\n      swap1\n      pop\n        /* \"#utility.yul\":12702:12711   */\n      dup2\n        /* \"#utility.yul\":12696:12700   */\n      dup2\n        /* \"#utility.yul\":12692:12712   */\n      sub\n        /* \"#utility.yul\":12688:12689   */\n      0x00\n        /* \"#utility.yul\":12677:12686   */\n      dup4\n        /* \"#utility.yul\":12673:12690   */\n      add\n        /* \"#utility.yul\":12666:12713   */\n      mstore\n        /* \"#utility.yul\":12730:12861   */\n      tag_381\n        /* \"#utility.yul\":12856:12860   */\n      dup2\n        /* \"#utility.yul\":12730:12861   */\n      tag_254\n      jump\t// in\n    tag_381:\n        /* \"#utility.yul\":12722:12861   */\n      swap1\n      pop\n        /* \"#utility.yul\":12449:12868   */\n      swap2\n      swap1\n      pop\n      jump\t// out\n        /* \"#utility.yul\":12874:13096   */\n    tag_255:\n        /* \"#utility.yul\":13014:13048   */\n      0x45524332303a207472616e7366657220746f20746865207a65726f2061646472\n        /* \"#utility.yul\":13010:13011   */\n      0x00\n        /* \"#utility.yul\":13002:13008   */\n      dup3\n        /* \"#utility.yul\":12998:13012   */\n      add\n        /* \"#utility.yul\":12991:13049   */\n      mstore\n        /* \"#utility.yul\":13083:13088   */\n      0x6573730000000000000000000000000000000000000000000000000000000000\n        /* \"#utility.yul\":13078:13080   */\n      0x20\n        /* \"#utility.yul\":13070:13076   */\n      dup3\n        /* \"#utility.yul\":13066:13081   */\n      add\n        /* \"#utility.yul\":13059:13089   */\n      mstore\n        /* \"#utility.yul\":12874:13096   */\n      pop\n      jump\t// out\n        /* \"#utility.yul\":13102:13468   */\n    tag_256:\n        /* \"#utility.yul\":13244:13247   */\n      0x00\n        /* \"#utility.yul\":13265:13332   */\n      tag_384\n        /* \"#utility.yul\":13329:13331   */\n      0x23\n        /* \"#utility.yul\":13324:13327   */\n      dup4\n        /* \"#utility.yul\":13265:13332   */\n      tag_222\n      jump\t// in\n    tag_384:\n        /* \"#utility.yul\":13258:13332   */\n      swap2\n      pop\n        /* \"#utility.yul\":13341:13434   */\n      tag_385\n        /* \"#utility.yul\":13430:13433   */\n      dup3\n        /* \"#utility.yul\":13341:13434   */\n      tag_255\n      jump\t// in\n    tag_385:\n        /* \"#utility.yul\":13459:13461   */\n      0x40\n        /* \"#utility.yul\":13454:13457   */\n      dup3\n        /* \"#utility.yul\":13450:13462   */\n      add\n        /* \"#utility.yul\":13443:13462   */\n      swap1\n      pop\n        /* \"#utility.yul\":13102:13468   */\n      swap2\n      swap1\n      pop\n      jump\t// out\n        /* \"#utility.yul\":13474:13893   */\n    tag_177:\n        /* \"#utility.yul\":13640:13644   */\n      0x00\n        /* \"#utility.yul\":13678:13680   */\n      0x20\n        /* \"#utility.yul\":13667:13676   */\n      dup3\n        /* \"#utility.yul\":13663:13681   */\n      add\n        /* \"#utility.yul\":13655:13681   */\n      swap1\n      pop\n        /* \"#utility.yul\":13727:13736   */\n      dup2\n        /* \"#utility.yul\":13721:13725   */\n      dup2\n        /* \"#utility.yul\":13717:13737   */\n      sub\n        /* \"#utility.yul\":13713:13714   */\n      0x00\n        /* \"#utility.yul\":13702:13711   */\n      dup4\n        /* \"#utility.yul\":13698:13715   */\n      add\n        /* \"#utility.yul\":13691:13738   */\n      mstore\n        /* \"#utility.yul\":13755:13886   */\n      tag_387\n        /* \"#utility.yul\":13881:13885   */\n      dup2\n        /* \"#utility.yul\":13755:13886   */\n      tag_256\n      jump\t// in\n    tag_387:\n        /* \"#utility.yul\":13747:13886   */\n      swap1\n      pop\n        /* \"#utility.yul\":13474:13893   */\n      swap2\n      swap1\n      pop\n      jump\t// out\n        /* \"#utility.yul\":13899:14124   */\n    tag_257:\n        /* \"#utility.yul\":14039:14073   */\n      0x45524332303a207472616e7366657220616d6f756e7420657863656564732062\n        /* \"#utility.yul\":14035:14036   */\n      0x00\n        /* \"#utility.yul\":14027:14033   */\n      dup3\n        /* \"#utility.yul\":14023:14037   */\n      add\n        /* \"#utility.yul\":14016:14074   */\n      mstore\n        /* \"#utility.yul\":14108:14116   */\n      0x616c616e63650000000000000000000000000000000000000000000000000000\n        /* \"#utility.yul\":14103:14105   */\n      0x20\n        /* \"#utility.yul\":14095:14101   */\n      dup3\n        /* \"#utility.yul\":14091:14106   */\n      add\n        /* \"#utility.yul\":14084:14117   */\n      mstore\n        /* \"#utility.yul\":13899:14124   */\n      pop\n      jump\t// out\n        /* \"#utility.yul\":14130:14496   */\n    tag_258:\n        /* \"#utility.yul\":14272:14275   */\n      0x00\n        /* \"#utility.yul\":14293:14360   */\n      tag_390\n        /* \"#utility.yul\":14357:14359   */\n      0x26\n        /* \"#utility.yul\":14352:14355   */\n      dup4\n        /* \"#utility.yul\":14293:14360   */\n      tag_222\n      jump\t// in\n    tag_390:\n        /* \"#utility.yul\":14286:14360   */\n      swap2\n      pop\n        /* \"#utility.yul\":14369:14462   */\n      tag_391\n        /* \"#utility.yul\":14458:14461   */\n      dup3\n        /* \"#utility.yul\":14369:14462   */\n      tag_257\n      jump\t// in\n    tag_391:\n        /* \"#utility.yul\":14487:14489   */\n      0x40\n        /* \"#utility.yul\":14482:14485   */\n      dup3\n        /* \"#utility.yul\":14478:14490   */\n      add\n        /* \"#utility.yul\":14471:14490   */\n      swap1\n      pop\n        /* \"#utility.yul\":14130:14496   */\n      swap2\n      swap1\n      pop\n      jump\t// out\n        /* \"#utility.yul\":14502:14921   */\n    tag_182:\n        /* \"#utility.yul\":14668:14672   */\n      0x00\n        /* \"#utility.yul\":14706:14708   */\n      0x20\n        /* \"#utility.yul\":14695:14704   */\n      dup3\n        /* \"#utility.yul\":14691:14709   */\n      add\n        /* \"#utility.yul\":14683:14709   */\n      swap1\n      pop\n        /* \"#utility.yul\":14755:14764   */\n      dup2\n        /* \"#utility.yul\":14749:14753   */\n      dup2\n        /* \"#utility.yul\":14745:14765   */\n      sub\n        /* \"#utility.yul\":14741:14742   */\n      0x00\n        /* \"#utility.yul\":14730:14739   */\n      dup4\n        /* \"#utility.yul\":14726:14743   */\n      add\n        /* \"#utility.yul\":14719:14766   */\n      mstore\n        /* \"#utility.yul\":14783:14914   */\n      tag_393\n        /* \"#utility.yul\":14909:14913   */\n      dup2\n        /* \"#utility.yul\":14783:14914   */\n      tag_258\n      jump\t// in\n    tag_393:\n        /* \"#utility.yul\":14775:14914   */\n      swap1\n      pop\n        /* \"#utility.yul\":14502:14921   */\n      swap2\n      swap1\n      pop\n      jump\t// out\n        /* \"#utility.yul\":14927:15107   */\n    tag_259:\n        /* \"#utility.yul\":14975:15052   */\n      0x4e487b7100000000000000000000000000000000000000000000000000000000\n        /* \"#utility.yul\":14972:14973   */\n      0x00\n        /* \"#utility.yul\":14965:15053   */\n      mstore\n        /* \"#utility.yul\":15072:15076   */\n      0x11\n        /* \"#utility.yul\":15069:15070   */\n      0x04\n        /* \"#utility.yul\":15062:15077   */\n      mstore\n        /* \"#utility.yul\":15096:15100   */\n      0x24\n        /* \"#utility.yul\":15093:15094   */\n      0x00\n        /* \"#utility.yul\":15086:15101   */\n      revert\n        /* \"#utility.yul\":15113:15304   */\n    tag_190:\n        /* \"#utility.yul\":15153:15156   */\n      0x00\n        /* \"#utility.yul\":15172:15192   */\n      tag_396\n        /* \"#utility.yul\":15190:15191   */\n      dup3\n        /* \"#utility.yul\":15172:15192   */\n      tag_233\n      jump\t// in\n    tag_396:\n        /* \"#utility.yul\":15167:15192   */\n      swap2\n      pop\n        /* \"#utility.yul\":15206:15226   */\n      tag_397\n        /* \"#utility.yul\":15224:15225   */\n      dup4\n        /* \"#utility.yul\":15206:15226   */\n      tag_233\n      jump\t// in\n    tag_397:\n        /* \"#utility.yul\":15201:15226   */\n      swap3\n      pop\n        /* \"#utility.yul\":15249:15250   */\n      dup3\n        /* \"#utility.yul\":15246:15247   */\n      dup3\n        /* \"#utility.yul\":15242:15251   */\n      add\n        /* \"#utility.yul\":15235:15251   */\n      swap1\n      pop\n        /* \"#utility.yul\":15270:15273   */\n      dup1\n        /* \"#utility.yul\":15267:15268   */\n      dup3\n        /* \"#utility.yul\":15264:15274   */\n      gt\n        /* \"#utility.yul\":15261:15297   */\n      iszero\n      tag_398\n      jumpi\n        /* \"#utility.yul\":15277:15295   */\n      tag_399\n      tag_259\n      jump\t// in\n    tag_399:\n        /* \"#utility.yul\":15261:15297   */\n    tag_398:\n        /* \"#utility.yul\":15113:15304   */\n      swap3\n      swap2\n      pop\n      pop\n      jump\t// out\n        /* \"#utility.yul\":15310:15487   */\n    tag_260:\n        /* \"#utility.yul\":15450:15479   */\n      0x536166654d6174683a206164646974696f6e206f766572666c6f770000000000\n        /* \"#utility.yul\":15446:15447   */\n      0x00\n        /* \"#utility.yul\":15438:15444   */\n      dup3\n        /* \"#utility.yul\":15434:15448   */\n      add\n        /* \"#utility.yul\":15427:15480   */\n      mstore\n        /* \"#utility.yul\":15310:15487   */\n      pop\n      jump\t// out\n        /* \"#utility.yul\":15493:15859   */\n    tag_261:\n        /* \"#utility.yul\":15635:15638   */\n      0x00\n        /* \"#utility.yul\":15656:15723   */\n      tag_402\n        /* \"#utility.yul\":15720:15722   */\n      0x1b\n        /* \"#utility.yul\":15715:15718   */\n      dup4\n        /* \"#utility.yul\":15656:15723   */\n      tag_222\n      jump\t// in\n    tag_402:\n        /* \"#utility.yul\":15649:15723   */\n      swap2\n      pop\n        /* \"#utility.yul\":15732:15825   */\n      tag_403\n        /* \"#utility.yul\":15821:15824   */\n      dup3\n        /* \"#utility.yul\":15732:15825   */\n      tag_260\n      jump\t// in\n    tag_403:\n        /* \"#utility.yul\":15850:15852   */\n      0x20\n        /* \"#utility.yul\":15845:15848   */\n      dup3\n        /* \"#utility.yul\":15841:15853   */\n      add\n        /* \"#utility.yul\":15834:15853   */\n      swap1\n      pop\n        /* \"#utility.yul\":15493:15859   */\n      swap2\n      swap1\n      pop\n      jump\t// out\n        /* \"#utility.yul\":15865:16284   */\n    tag_193:\n        /* \"#utility.yul\":16031:16035   */\n      0x00\n        /* \"#utility.yul\":16069:16071   */\n      0x20\n        /* \"#utility.yul\":16058:16067   */\n      dup3\n        /* \"#utility.yul\":16054:16072   */\n      add\n        /* \"#utility.yul\":16046:16072   */\n      swap1\n      pop\n        /* \"#utility.yul\":16118:16127   */\n      dup2\n        /* \"#utility.yul\":16112:16116   */\n      dup2\n        /* \"#utility.yul\":16108:16128   */\n      sub\n        /* \"#utility.yul\":16104:16105   */\n      0x00\n        /* \"#utility.yul\":16093:16102   */\n      dup4\n        /* \"#utility.yul\":16089:16106   */\n      add\n        /* \"#utility.yul\":16082:16129   */\n      mstore\n        /* \"#utility.yul\":16146:16277   */\n      tag_405\n        /* \"#utility.yul\":16272:16276   */\n      dup2\n        /* \"#utility.yul\":16146:16277   */\n      tag_261\n      jump\t// in\n    tag_405:\n        /* \"#utility.yul\":16138:16277   */\n      swap1\n      pop\n        /* \"#utility.yul\":15865:16284   */\n      swap2\n      swap1\n      pop\n      jump\t// out\n        /* \"#utility.yul\":16290:16510   */\n    tag_262:\n        /* \"#utility.yul\":16430:16464   */\n      0x45524332303a206275726e2066726f6d20746865207a65726f20616464726573\n        /* \"#utility.yul\":16426:16427   */\n      0x00\n        /* \"#utility.yul\":16418:16424   */\n      dup3\n        /* \"#utility.yul\":16414:16428   */\n      add\n        /* \"#utility.yul\":16407:16465   */\n      mstore\n        /* \"#utility.yul\":16499:16502   */\n      0x7300000000000000000000000000000000000000000000000000000000000000\n        /* \"#utility.yul\":16494:16496   */\n      0x20\n        /* \"#utility.yul\":16486:16492   */\n      dup3\n        /* \"#utility.yul\":16482:16497   */\n      add\n        /* \"#utility.yul\":16475:16503   */\n      mstore\n        /* \"#utility.yul\":16290:16510   */\n      pop\n      jump\t// out\n        /* \"#utility.yul\":16516:16882   */\n    tag_263:\n        /* \"#utility.yul\":16658:16661   */\n      0x00\n        /* \"#utility.yul\":16679:16746   */\n      tag_408\n        /* \"#utility.yul\":16743:16745   */\n      0x21\n        /* \"#utility.yul\":16738:16741   */\n      dup4\n        /* \"#utility.yul\":16679:16746   */\n      tag_222\n      jump\t// in\n    tag_408:\n        /* \"#utility.yul\":16672:16746   */\n      swap2\n      pop\n        /* \"#utility.yul\":16755:16848   */\n      tag_409\n        /* \"#utility.yul\":16844:16847   */\n      dup3\n        /* \"#utility.yul\":16755:16848   */\n      tag_262\n      jump\t// in\n    tag_409:\n        /* \"#utility.yul\":16873:16875   */\n      0x40\n        /* \"#utility.yul\":16868:16871   */\n      dup3\n        /* \"#utility.yul\":16864:16876   */\n      add\n        /* \"#utility.yul\":16857:16876   */\n      swap1\n      pop\n        /* \"#utility.yul\":16516:16882   */\n      swap2\n      swap1\n      pop\n      jump\t// out\n        /* \"#utility.yul\":16888:17307   */\n    tag_197:\n        /* \"#utility.yul\":17054:17058   */\n      0x00\n        /* \"#utility.yul\":17092:17094   */\n      0x20\n        /* \"#utility.yul\":17081:17090   */\n      dup3\n        /* \"#utility.yul\":17077:17095   */\n      add\n        /* \"#utility.yul\":17069:17095   */\n      swap1\n      pop\n        /* \"#utility.yul\":17141:17150   */\n      dup2\n        /* \"#utility.yul\":17135:17139   */\n      dup2\n        /* \"#utility.yul\":17131:17151   */\n      sub\n        /* \"#utility.yul\":17127:17128   */\n      0x00\n        /* \"#utility.yul\":17116:17125   */\n      dup4\n        /* \"#utility.yul\":17112:17129   */\n      add\n        /* \"#utility.yul\":17105:17152   */\n      mstore\n        /* \"#utility.yul\":17169:17300   */\n      tag_411\n        /* \"#utility.yul\":17295:17299   */\n      dup2\n        /* \"#utility.yul\":17169:17300   */\n      tag_263\n      jump\t// in\n    tag_411:\n        /* \"#utility.yul\":17161:17300   */\n      swap1\n      pop\n        /* \"#utility.yul\":16888:17307   */\n      swap2\n      swap1\n      pop\n      jump\t// out\n        /* \"#utility.yul\":17313:17534   */\n    tag_264:\n        /* \"#utility.yul\":17453:17487   */\n      0x45524332303a206275726e20616d6f756e7420657863656564732062616c616e\n        /* \"#utility.yul\":17449:17450   */\n      0x00\n        /* \"#utility.yul\":17441:17447   */\n      dup3\n        /* \"#utility.yul\":17437:17451   */\n      add\n        /* \"#utility.yul\":17430:17488   */\n      mstore\n        /* \"#utility.yul\":17522:17526   */\n      0x6365000000000000000000000000000000000000000000000000000000000000\n        /* \"#utility.yul\":17517:17519   */\n      0x20\n        /* \"#utility.yul\":17509:17515   */\n      dup3\n        /* \"#utility.yul\":17505:17520   */\n      add\n        /* \"#utility.yul\":17498:17527   */\n      mstore\n        /* \"#utility.yul\":17313:17534   */\n      pop\n      jump\t// out\n        /* \"#utility.yul\":17540:17906   */\n    tag_265:\n        /* \"#utility.yul\":17682:17685   */\n      0x00\n        /* \"#utility.yul\":17703:17770   */\n      tag_414\n        /* \"#utility.yul\":17767:17769   */\n      0x22\n        /* \"#utility.yul\":17762:17765   */\n      dup4\n        /* \"#utility.yul\":17703:17770   */\n      tag_222\n      jump\t// in\n    tag_414:\n        /* \"#utility.yul\":17696:17770   */\n      swap2\n      pop\n        /* \"#utility.yul\":17779:17872   */\n      tag_415\n        /* \"#utility.yul\":17868:17871   */\n      dup3\n        /* \"#utility.yul\":17779:17872   */\n      tag_264\n      jump\t// in\n    tag_415:\n        /* \"#utility.yul\":17897:17899   */\n      0x40\n        /* \"#utility.yul\":17892:17895   */\n      dup3\n        /* \"#utility.yul\":17888:17900   */\n      add\n        /* \"#utility.yul\":17881:17900   */\n      swap1\n      pop\n        /* \"#utility.yul\":17540:17906   */\n      swap2\n      swap1\n      pop\n      jump\t// out\n        /* \"#utility.yul\":17912:18331   */\n    tag_201:\n        /* \"#utility.yul\":18078:18082   */\n      0x00\n        /* \"#utility.yul\":18116:18118   */\n      0x20\n        /* \"#utility.yul\":18105:18114   */\n      dup3\n        /* \"#utility.yul\":18101:18119   */\n      add\n        /* \"#utility.yul\":18093:18119   */\n      swap1\n      pop\n        /* \"#utility.yul\":18165:18174   */\n      dup2\n        /* \"#utility.yul\":18159:18163   */\n      dup2\n        /* \"#utility.yul\":18155:18175   */\n      sub\n        /* \"#utility.yul\":18151:18152   */\n      0x00\n        /* \"#utility.yul\":18140:18149   */\n      dup4\n        /* \"#utility.yul\":18136:18153   */\n      add\n        /* \"#utility.yul\":18129:18176   */\n      mstore\n        /* \"#utility.yul\":18193:18324   */\n      tag_417\n        /* \"#utility.yul\":18319:18323   */\n      dup2\n        /* \"#utility.yul\":18193:18324   */\n      tag_265\n      jump\t// in\n    tag_417:\n        /* \"#utility.yul\":18185:18324   */\n      swap1\n      pop\n        /* \"#utility.yul\":17912:18331   */\n      swap2\n      swap1\n      pop\n      jump\t// out\n        /* \"#utility.yul\":18337:18519   */\n    tag_266:\n        /* \"#utility.yul\":18477:18511   */\n      0x4f776e61626c653a2063616c6c6572206973206e6f7420746865206f776e6572\n        /* \"#utility.yul\":18473:18474   */\n      0x00\n        /* \"#utility.yul\":18465:18471   */\n      dup3\n        /* \"#utility.yul\":18461:18475   */\n      add\n        /* \"#utility.yul\":18454:18512   */\n      mstore\n        /* \"#utility.yul\":18337:18519   */\n      pop\n      jump\t// out\n        /* \"#utility.yul\":18525:18891   */\n    tag_267:\n        /* \"#utility.yul\":18667:18670   */\n      0x00\n        /* \"#utility.yul\":18688:18755   */\n      tag_420\n        /* \"#utility.yul\":18752:18754   */\n      0x20\n        /* \"#utility.yul\":18747:18750   */\n      dup4\n        /* \"#utility.yul\":18688:18755   */\n      tag_222\n      jump\t// in\n    tag_420:\n        /* \"#utility.yul\":18681:18755   */\n      swap2\n      pop\n        /* \"#utility.yul\":18764:18857   */\n      tag_421\n        /* \"#utility.yul\":18853:18856   */\n      dup3\n        /* \"#utility.yul\":18764:18857   */\n      tag_266\n      jump\t// in\n    tag_421:\n        /* \"#utility.yul\":18882:18884   */\n      0x20\n        /* \"#utility.yul\":18877:18880   */\n      dup3\n        /* \"#utility.yul\":18873:18885   */\n      add\n        /* \"#utility.yul\":18866:18885   */\n      swap1\n      pop\n        /* \"#utility.yul\":18525:18891   */\n      swap2\n      swap1\n      pop\n      jump\t// out\n        /* \"#utility.yul\":18897:19316   */\n    tag_211:\n        /* \"#utility.yul\":19063:19067   */\n      0x00\n        /* \"#utility.yul\":19101:19103   */\n      0x20\n        /* \"#utility.yul\":19090:19099   */\n      dup3\n        /* \"#utility.yul\":19086:19104   */\n      add\n        /* \"#utility.yul\":19078:19104   */\n      swap1\n      pop\n        /* \"#utility.yul\":19150:19159   */\n      dup2\n        /* \"#utility.yul\":19144:19148   */\n      dup2\n        /* \"#utility.yul\":19140:19160   */\n      sub\n        /* \"#utility.yul\":19136:19137   */\n      0x00\n        /* \"#utility.yul\":19125:19134   */\n      dup4\n        /* \"#utility.yul\":19121:19138   */\n      add\n        /* \"#utility.yul\":19114:19161   */\n      mstore\n        /* \"#utility.yul\":19178:19309   */\n      tag_423\n        /* \"#utility.yul\":19304:19308   */\n      dup2\n        /* \"#utility.yul\":19178:19309   */\n      tag_267\n      jump\t// in\n    tag_423:\n        /* \"#utility.yul\":19170:19309   */\n      swap1\n      pop\n        /* \"#utility.yul\":18897:19316   */\n      swap2\n      swap1\n      pop\n      jump\t// out\n        /* \"#utility.yul\":19322:19502   */\n    tag_268:\n        /* \"#utility.yul\":19462:19494   */\n      0x536166654d6174683a207375627472616374696f6e206f766572666c6f770000\n        /* \"#utility.yul\":19458:19459   */\n      0x00\n        /* \"#utility.yul\":19450:19456   */\n      dup3\n        /* \"#utility.yul\":19446:19460   */\n      add\n        /* \"#utility.yul\":19439:19495   */\n      mstore\n        /* \"#utility.yul\":19322:19502   */\n      pop\n      jump\t// out\n        /* \"#utility.yul\":19508:19874   */\n    tag_269:\n        /* \"#utility.yul\":19650:19653   */\n      0x00\n        /* \"#utility.yul\":19671:19738   */\n      tag_426\n        /* \"#utility.yul\":19735:19737   */\n      0x1e\n        /* \"#utility.yul\":19730:19733   */\n      dup4\n        /* \"#utility.yul\":19671:19738   */\n      tag_222\n      jump\t// in\n    tag_426:\n        /* \"#utility.yul\":19664:19738   */\n      swap2\n      pop\n        /* \"#utility.yul\":19747:19840   */\n      tag_427\n        /* \"#utility.yul\":19836:19839   */\n      dup3\n        /* \"#utility.yul\":19747:19840   */\n      tag_268\n      jump\t// in\n    tag_427:\n        /* \"#utility.yul\":19865:19867   */\n      0x20\n        /* \"#utility.yul\":19860:19863   */\n      dup3\n        /* \"#utility.yul\":19856:19868   */\n      add\n        /* \"#utility.yul\":19849:19868   */\n      swap1\n      pop\n        /* \"#utility.yul\":19508:19874   */\n      swap2\n      swap1\n      pop\n      jump\t// out\n        /* \"#utility.yul\":19880:20299   */\n    tag_216:\n        /* \"#utility.yul\":20046:20050   */\n      0x00\n        /* \"#utility.yul\":20084:20086   */\n      0x20\n        /* \"#utility.yul\":20073:20082   */\n      dup3\n        /* \"#utility.yul\":20069:20087   */\n      add\n        /* \"#utility.yul\":20061:20087   */\n      swap1\n      pop\n        /* \"#utility.yul\":20133:20142   */\n      dup2\n        /* \"#utility.yul\":20127:20131   */\n      dup2\n        /* \"#utility.yul\":20123:20143   */\n      sub\n        /* \"#utility.yul\":20119:20120   */\n      0x00\n        /* \"#utility.yul\":20108:20117   */\n      dup4\n        /* \"#utility.yul\":20104:20121   */\n      add\n        /* \"#utility.yul\":20097:20144   */\n      mstore\n        /* \"#utility.yul\":20161:20292   */\n      tag_429\n        /* \"#utility.yul\":20287:20291   */\n      dup2\n        /* \"#utility.yul\":20161:20292   */\n      tag_269\n      jump\t// in\n    tag_429:\n        /* \"#utility.yul\":20153:20292   */\n      swap1\n      pop\n        /* \"#utility.yul\":19880:20299   */\n      swap2\n      swap1\n      pop\n      jump\t// out\n        /* \"#utility.yul\":20305:20499   */\n    tag_218:\n        /* \"#utility.yul\":20345:20349   */\n      0x00\n        /* \"#utility.yul\":20365:20385   */\n      tag_431\n        /* \"#utility.yul\":20383:20384   */\n      dup3\n        /* \"#utility.yul\":20365:20385   */\n      tag_233\n      jump\t// in\n    tag_431:\n        /* \"#utility.yul\":20360:20385   */\n      swap2\n      pop\n        /* \"#utility.yul\":20399:20419   */\n      tag_432\n        /* \"#utility.yul\":20417:20418   */\n      dup4\n        /* \"#utility.yul\":20399:20419   */\n      tag_233\n      jump\t// in\n    tag_432:\n        /* \"#utility.yul\":20394:20419   */\n      swap3\n      pop\n        /* \"#utility.yul\":20443:20444   */\n      dup3\n        /* \"#utility.yul\":20440:20441   */\n      dup3\n        /* \"#utility.yul\":20436:20445   */\n      sub\n        /* \"#utility.yul\":20428:20445   */\n      swap1\n      pop\n        /* \"#utility.yul\":20467:20468   */\n      dup2\n        /* \"#utility.yul\":20461:20465   */\n      dup2\n        /* \"#utility.yul\":20458:20469   */\n      gt\n        /* \"#utility.yul\":20455:20492   */\n      iszero\n      tag_433\n      jumpi\n        /* \"#utility.yul\":20472:20490   */\n      tag_434\n      tag_259\n      jump\t// in\n    tag_434:\n        /* \"#utility.yul\":20455:20492   */\n    tag_433:\n        /* \"#utility.yul\":20305:20499   */\n      swap3\n      swap2\n      pop\n      pop\n      jump\t// out\n\n    auxdata: 0xa264697066735822122024c47df3e4f27aea5caa9ec93595b325c3e29ab60799aa08e2ca97b291eed19064736f6c634300081b0033\n}\n",
				"bytecode": {
					"linkReferences": {},
					"object": "608060405234801561000f575f5ffd5b506040518060400160405280600881526020017f546170546f6b656e0000000000000000000000000000000000000000000000008152506040518060400160405280600381526020017f5441500000000000000000000000000000000000000000000000000000000000815250816003908161008b919061060d565b50806004908161009b919061060d565b5050506100ba6100af6100fa60201b60201c565b61010160201b60201c565b6100f5336100cc6101c460201b60201c565b600a6100d89190610844565b662386f26fc100006100ea919061088e565b6101cc60201b60201c565b610a0a565b5f33905090565b5f60055f9054906101000a900473ffffffffffffffffffffffffffffffffffffffff1690508160055f6101000a81548173ffffffffffffffffffffffffffffffffffffffff021916908373ffffffffffffffffffffffffffffffffffffffff1602179055508173ffffffffffffffffffffffffffffffffffffffff168173ffffffffffffffffffffffffffffffffffffffff167f8be0079c531659141344cd1fd0a4f28419497f9722a3daafe3b4186f6b6457e060405160405180910390a35050565b5f6012905090565b5f73ffffffffffffffffffffffffffffffffffffffff168273ffffffffffffffffffffffffffffffffffffffff160361023a576040517f08c379a000000000000000000000000000000000000000000000000000000000815260040161023190610929565b60405180910390fd5b61024b5f838361036960201b60201c565b61025d6002548261036e60201b60201c565b6002819055506102af5f5f8473ffffffffffffffffffffffffffffffffffffffff1673ffffffffffffffffffffffffffffffffffffffff1681526020019081526020015f20548261036e60201b60201c565b5f5f8473ffffffffffffffffffffffffffffffffffffffff1673ffffffffffffffffffffffffffffffffffffffff1681526020019081526020015f20819055508173ffffffffffffffffffffffffffffffffffffffff165f73ffffffffffffffffffffffffffffffffffffffff167fddf252ad1be2c89b69c2b068fc378daa952ba7f163c4a11628f55a4df523b3ef8360405161034c9190610956565b60405180910390a36103655f83836103cb60201b60201c565b5050565b505050565b5f5f828461037c919061096f565b9050838110156103c1576040517f08c379a00000000000000000000000000000000000000000000000000000000081526004016103b8906109ec565b60405180910390fd5b8091505092915050565b505050565b5f81519050919050565b7f4e487b71000000000000000000000000000000000000000000000000000000005f52604160045260245ffd5b7f4e487b71000000000000000000000000000000000000000000000000000000005f52602260045260245ffd5b5f600282049050600182168061044b57607f821691505b60208210810361045e5761045d610407565b5b50919050565b5f819050815f5260205f209050919050565b5f6020601f8301049050919050565b5f82821b905092915050565b5f600883026104c07fffffffffffffffffffffffffffffffffffffffffffffffffffffffffffffffff82610485565b6104ca8683610485565b95508019841693508086168417925050509392505050565b5f819050919050565b5f819050919050565b5f61050e610509610504846104e2565b6104eb565b6104e2565b9050919050565b5f819050919050565b610527836104f4565b61053b61053382610515565b848454610491565b825550505050565b5f5f905090565b610552610543565b61055d81848461051e565b505050565b5b81811015610580576105755f8261054a565b600181019050610563565b5050565b601f8211156105c55761059681610464565b61059f84610476565b810160208510156105ae578190505b6105c26105ba85610476565b830182610562565b50505b505050565b5f82821c905092915050565b5f6105e55f19846008026105ca565b1980831691505092915050565b5f6105fd83836105d6565b9150826002028217905092915050565b610616826103d0565b67ffffffffffffffff81111561062f5761062e6103da565b5b6106398254610434565b610644828285610584565b5f60209050601f831160018114610675575f8415610663578287015190505b61066d85826105f2565b8655506106d4565b601f19841661068386610464565b5f5b828110156106aa57848901518255600182019150602085019450602081019050610685565b868310156106c757848901516106c3601f8916826105d6565b8355505b6001600288020188555050505b505050505050565b7f4e487b71000000000000000000000000000000000000000000000000000000005f52601160045260245ffd5b5f8160011c9050919050565b5f5f8291508390505b600185111561075e5780860481111561073a576107396106dc565b5b60018516156107495780820291505b808102905061075785610709565b945061071e565b94509492505050565b5f826107765760019050610831565b81610783575f9050610831565b816001811461079957600281146107a3576107d2565b6001915050610831565b60ff8411156107b5576107b46106dc565b5b8360020a9150848211156107cc576107cb6106dc565b5b50610831565b5060208310610133831016604e8410600b84101617156108075782820a905083811115610802576108016106dc565b5b610831565b6108148484846001610715565b9250905081840481111561082b5761082a6106dc565b5b81810290505b9392505050565b5f60ff82169050919050565b5f61084e826104e2565b915061085983610838565b92506108867fffffffffffffffffffffffffffffffffffffffffffffffffffffffffffffffff8484610767565b905092915050565b5f610898826104e2565b91506108a3836104e2565b92508282026108b1816104e2565b915082820484148315176108c8576108c76106dc565b5b5092915050565b5f82825260208201905092915050565b7f45524332303a206d696e7420746f20746865207a65726f2061646472657373005f82015250565b5f610913601f836108cf565b915061091e826108df565b602082019050919050565b5f6020820190508181035f83015261094081610907565b9050919050565b610950816104e2565b82525050565b5f6020820190506109695f830184610947565b92915050565b5f610979826104e2565b9150610984836104e2565b925082820190508082111561099c5761099b6106dc565b5b92915050565b7f536166654d6174683a206164646974696f6e206f766572666c6f7700000000005f82015250565b5f6109d6601b836108cf565b91506109e1826109a2565b602082019050919050565b5f6020820190508181035f830152610a03816109ca565b9050919050565b611ae880610a175f395ff3fe608060405234801561000f575f5ffd5b50600436106100fe575f3560e01c8063715018a611610095578063a457c2d711610064578063a457c2d71461029a578063a9059cbb146102ca578063dd62ed3e146102fa578063f2fde38b1461032a576100fe565b8063715018a61461023857806379cc6790146102425780638da5cb5b1461025e57806395d89b411461027c576100fe565b8063313ce567116100d1578063313ce5671461019e57806339509351146101bc57806342966c68146101ec57806370a0823114610208576100fe565b806306fdde0314610102578063095ea7b31461012057806318160ddd1461015057806323b872dd1461016e575b5f5ffd5b61010a610346565b604051610117919061109a565b60405180910390f35b61013a6004803603810190610135919061114b565b6103d6565b60405161014791906111a3565b60405180910390f35b6101586103f8565b60405161016591906111cb565b60405180910390f35b610188600480360381019061018391906111e4565b610401565b60405161019591906111a3565b60405180910390f35b6101a661042f565b6040516101b3919061124f565b60405180910390f35b6101d660048036038101906101d1919061114b565b610437565b6040516101e391906111a3565b60405180910390f35b61020660048036038101906102019190611268565b61046b565b005b610222600480360381019061021d9190611293565b61047f565b60405161022f91906111cb565b60405180910390f35b6102406104c4565b005b61025c6004803603810190610257919061114b565b6104d7565b005b6102666104f7565b60405161027391906112cd565b60405180910390f35b61028461051f565b604051610291919061109a565b60405180910390f35b6102b460048036038101906102af919061114b565b6105af565b6040516102c191906111a3565b60405180910390f35b6102e460048036038101906102df919061114b565b61062b565b6040516102f191906111a3565b60405180910390f35b610314600480360381019061030f91906112e6565b61064d565b60405161032191906111cb565b60405180910390f35b610344600480360381019061033f9190611293565b6106cf565b005b60606003805461035590611351565b80601f016020809104026020016040519081016040528092919081815260200182805461038190611351565b80156103cc5780601f106103a3576101008083540402835291602001916103cc565b820191905f5260205f20905b8154815290600101906020018083116103af57829003601f168201915b5050505050905090565b5f5f6103e0610751565b90506103ed818585610758565b600191505092915050565b5f600254905090565b5f5f61040b610751565b905061041885828561091b565b6104238585856109ad565b60019150509392505050565b5f6012905090565b5f5f610441610751565b9050610460818561045b610455858961064d565b87610c5d565b610758565b600191505092915050565b61047c610476610751565b82610cba565b50565b5f5f5f8373ffffffffffffffffffffffffffffffffffffffff1673ffffffffffffffffffffffffffffffffffffffff1681526020019081526020015f20549050919050565b6104cc610e87565b6104d55f610f05565b565b6104e9826104e3610751565b8361091b565b6104f38282610cba565b5050565b5f60055f9054906101000a900473ffffffffffffffffffffffffffffffffffffffff16905090565b60606004805461052e90611351565b80601f016020809104026020016040519081016040528092919081815260200182805461055a90611351565b80156105a55780601f1061057c576101008083540402835291602001916105a5565b820191905f5260205f20905b81548152906001019060200180831161058857829003601f168201915b5050505050905090565b5f5f6105b9610751565b90505f6105c6828661064d565b90508381101561060b576040517f08c379a0000000000000000000000000000000000000000000000000000000008152600401610602906113f1565b60405180910390fd5b61061f828661061a8488610fc8565b610758565b60019250505092915050565b5f5f610635610751565b90506106428185856109ad565b600191505092915050565b5f60015f8473ffffffffffffffffffffffffffffffffffffffff1673ffffffffffffffffffffffffffffffffffffffff1681526020019081526020015f205f8373ffffffffffffffffffffffffffffffffffffffff1673ffffffffffffffffffffffffffffffffffffffff1681526020019081526020015f2054905092915050565b6106d7610e87565b5f73ffffffffffffffffffffffffffffffffffffffff168173ffffffffffffffffffffffffffffffffffffffff1603610745576040517f08c379a000000000000000000000000000000000000000000000000000000000815260040161073c9061147f565b60405180910390fd5b61074e81610f05565b50565b5f33905090565b5f73ffffffffffffffffffffffffffffffffffffffff168373ffffffffffffffffffffffffffffffffffffffff16036107c6576040517f08c379a00000000000000000000000000000000000000000000000000000000081526004016107bd9061150d565b60405180910390fd5b5f73ffffffffffffffffffffffffffffffffffffffff168273ffffffffffffffffffffffffffffffffffffffff1603610834576040517f08c379a000000000000000000000000000000000000000000000000000000000815260040161082b9061159b565b60405180910390fd5b8060015f8573ffffffffffffffffffffffffffffffffffffffff1673ffffffffffffffffffffffffffffffffffffffff1681526020019081526020015f205f8473ffffffffffffffffffffffffffffffffffffffff1673ffffffffffffffffffffffffffffffffffffffff1681526020019081526020015f20819055508173ffffffffffffffffffffffffffffffffffffffff168373ffffffffffffffffffffffffffffffffffffffff167f8c5be1e5ebec7d5bd14f71427d1e84f3dd0314c0f7b2291e5b200ac8c7c3b9258360405161090e91906111cb565b60405180910390a3505050565b5f610926848461064d565b90507fffffffffffffffffffffffffffffffffffffffffffffffffffffffffffffffff81146109a75781811015610992576040517f08c379a000000000000000000000000000000000000000000000000000000000815260040161098990611603565b60405180910390fd5b6109a684846109a18486610fc8565b610758565b5b50505050565b5f73ffffffffffffffffffffffffffffffffffffffff168373ffffffffffffffffffffffffffffffffffffffff1603610a1b576040517f08c379a0000000000000000000000000000000000000000000000000000000008152600401610a1290611691565b60405180910390fd5b5f73ffffffffffffffffffffffffffffffffffffffff168273ffffffffffffffffffffffffffffffffffffffff1603610a89576040517f08c379a0000000000000000000000000000000000000000000000000000000008152600401610a809061171f565b60405180910390fd5b610a94838383611020565b5f5f5f8573ffffffffffffffffffffffffffffffffffffffff1673ffffffffffffffffffffffffffffffffffffffff1681526020019081526020015f2054905081811015610b17576040517f08c379a0000000000000000000000000000000000000000000000000000000008152600401610b0e906117ad565b60405180910390fd5b610b218183610fc8565b5f5f8673ffffffffffffffffffffffffffffffffffffffff1673ffffffffffffffffffffffffffffffffffffffff1681526020019081526020015f2081905550610ba75f5f8573ffffffffffffffffffffffffffffffffffffffff1673ffffffffffffffffffffffffffffffffffffffff1681526020019081526020015f205483610c5d565b5f5f8573ffffffffffffffffffffffffffffffffffffffff1673ffffffffffffffffffffffffffffffffffffffff1681526020019081526020015f20819055508273ffffffffffffffffffffffffffffffffffffffff168473ffffffffffffffffffffffffffffffffffffffff167fddf252ad1be2c89b69c2b068fc378daa952ba7f163c4a11628f55a4df523b3ef84604051610c4491906111cb565b60405180910390a3610c57848484611025565b50505050565b5f5f8284610c6b91906117f8565b905083811015610cb0576040517f08c379a0000000000000000000000000000000000000000000000000000000008152600401610ca790611875565b60405180910390fd5b8091505092915050565b5f73ffffffffffffffffffffffffffffffffffffffff168273ffffffffffffffffffffffffffffffffffffffff1603610d28576040517f08c379a0000000000000000000000000000000000000000000000000000000008152600401610d1f90611903565b60405180910390fd5b610d33825f83611020565b5f5f5f8473ffffffffffffffffffffffffffffffffffffffff1673ffffffffffffffffffffffffffffffffffffffff1681526020019081526020015f2054905081811015610db6576040517f08c379a0000000000000000000000000000000000000000000000000000000008152600401610dad90611991565b60405180910390fd5b610dc08183610fc8565b5f5f8573ffffffffffffffffffffffffffffffffffffffff1673ffffffffffffffffffffffffffffffffffffffff1681526020019081526020015f2081905550610e0c60025483610fc8565b6002819055505f73ffffffffffffffffffffffffffffffffffffffff168373ffffffffffffffffffffffffffffffffffffffff167fddf252ad1be2c89b69c2b068fc378daa952ba7f163c4a11628f55a4df523b3ef84604051610e6f91906111cb565b60405180910390a3610e82835f84611025565b505050565b610e8f610751565b73ffffffffffffffffffffffffffffffffffffffff16610ead6104f7565b73ffffffffffffffffffffffffffffffffffffffff1614610f03576040517f08c379a0000000000000000000000000000000000000000000000000000000008152600401610efa906119f9565b60405180910390fd5b565b5f60055f9054906101000a900473ffffffffffffffffffffffffffffffffffffffff1690508160055f6101000a81548173ffffffffffffffffffffffffffffffffffffffff021916908373ffffffffffffffffffffffffffffffffffffffff1602179055508173ffffffffffffffffffffffffffffffffffffffff168173ffffffffffffffffffffffffffffffffffffffff167f8be0079c531659141344cd1fd0a4f28419497f9722a3daafe3b4186f6b6457e060405160405180910390a35050565b5f8282111561100c576040517f08c379a000000000000000000000000000000000000000000000000000000000815260040161100390611a61565b60405180910390fd5b81836110189190611a7f565b905092915050565b505050565b505050565b5f81519050919050565b5f82825260208201905092915050565b8281835e5f83830152505050565b5f601f19601f8301169050919050565b5f61106c8261102a565b6110768185611034565b9350611086818560208601611044565b61108f81611052565b840191505092915050565b5f6020820190508181035f8301526110b28184611062565b905092915050565b5f5ffd5b5f73ffffffffffffffffffffffffffffffffffffffff82169050919050565b5f6110e7826110be565b9050919050565b6110f7816110dd565b8114611101575f5ffd5b50565b5f81359050611112816110ee565b92915050565b5f819050919050565b61112a81611118565b8114611134575f5ffd5b50565b5f8135905061114581611121565b92915050565b5f5f60408385031215611161576111606110ba565b5b5f61116e85828601611104565b925050602061117f85828601611137565b9150509250929050565b5f8115159050919050565b61119d81611189565b82525050565b5f6020820190506111b65f830184611194565b92915050565b6111c581611118565b82525050565b5f6020820190506111de5f8301846111bc565b92915050565b5f5f5f606084860312156111fb576111fa6110ba565b5b5f61120886828701611104565b935050602061121986828701611104565b925050604061122a86828701611137565b9150509250925092565b5f60ff82169050919050565b61124981611234565b82525050565b5f6020820190506112625f830184611240565b92915050565b5f6020828403121561127d5761127c6110ba565b5b5f61128a84828501611137565b91505092915050565b5f602082840312156112a8576112a76110ba565b5b5f6112b584828501611104565b91505092915050565b6112c7816110dd565b82525050565b5f6020820190506112e05f8301846112be565b92915050565b5f5f604083850312156112fc576112fb6110ba565b5b5f61130985828601611104565b925050602061131a85828601611104565b9150509250929050565b7f4e487b71000000000000000000000000000000000000000000000000000000005f52602260045260245ffd5b5f600282049050600182168061136857607f821691505b60208210810361137b5761137a611324565b5b50919050565b7f45524332303a2064656372656173656420616c6c6f77616e63652062656c6f775f8201527f207a65726f000000000000000000000000000000000000000000000000000000602082015250565b5f6113db602583611034565b91506113e682611381565b604082019050919050565b5f6020820190508181035f830152611408816113cf565b9050919050565b7f4f776e61626c653a206e6577206f776e657220697320746865207a65726f20615f8201527f6464726573730000000000000000000000000000000000000000000000000000602082015250565b5f611469602683611034565b91506114748261140f565b604082019050919050565b5f6020820190508181035f8301526114968161145d565b9050919050565b7f45524332303a20617070726f76652066726f6d20746865207a65726f206164645f8201527f7265737300000000000000000000000000000000000000000000000000000000602082015250565b5f6114f7602483611034565b91506115028261149d565b604082019050919050565b5f6020820190508181035f830152611524816114eb565b9050919050565b7f45524332303a20617070726f766520746f20746865207a65726f2061646472655f8201527f7373000000000000000000000000000000000000000000000000000000000000602082015250565b5f611585602283611034565b91506115908261152b565b604082019050919050565b5f6020820190508181035f8301526115b281611579565b9050919050565b7f45524332303a20696e73756666696369656e7420616c6c6f77616e63650000005f82015250565b5f6115ed601d83611034565b91506115f8826115b9565b602082019050919050565b5f6020820190508181035f83015261161a816115e1565b9050919050565b7f45524332303a207472616e736665722066726f6d20746865207a65726f2061645f8201527f6472657373000000000000000000000000000000000000000000000000000000602082015250565b5f61167b602583611034565b915061168682611621565b604082019050919050565b5f6020820190508181035f8301526116a88161166f565b9050919050565b7f45524332303a207472616e7366657220746f20746865207a65726f20616464725f8201527f6573730000000000000000000000000000000000000000000000000000000000602082015250565b5f611709602383611034565b9150611714826116af565b604082019050919050565b5f6020820190508181035f830152611736816116fd565b9050919050565b7f45524332303a207472616e7366657220616d6f756e74206578636565647320625f8201527f616c616e63650000000000000000000000000000000000000000000000000000602082015250565b5f611797602683611034565b91506117a28261173d565b604082019050919050565b5f6020820190508181035f8301526117c48161178b565b9050919050565b7f4e487b71000000000000000000000000000000000000000000000000000000005f52601160045260245ffd5b5f61180282611118565b915061180d83611118565b9250828201905080821115611825576118246117cb565b5b92915050565b7f536166654d6174683a206164646974696f6e206f766572666c6f7700000000005f82015250565b5f61185f601b83611034565b915061186a8261182b565b602082019050919050565b5f6020820190508181035f83015261188c81611853565b9050919050565b7f45524332303a206275726e2066726f6d20746865207a65726f206164647265735f8201527f7300000000000000000000000000000000000000000000000000000000000000602082015250565b5f6118ed602183611034565b91506118f882611893565b604082019050919050565b5f6020820190508181035f83015261191a816118e1565b9050919050565b7f45524332303a206275726e20616d6f756e7420657863656564732062616c616e5f8201527f6365000000000000000000000000000000000000000000000000000000000000602082015250565b5f61197b602283611034565b915061198682611921565b604082019050919050565b5f6020820190508181035f8301526119a88161196f565b9050919050565b7f4f776e61626c653a2063616c6c6572206973206e6f7420746865206f776e65725f82015250565b5f6119e3602083611034565b91506119ee826119af565b602082019050919050565b5f6020820190508181035f830152611a10816119d7565b9050919050565b7f536166654d6174683a207375627472616374696f6e206f766572666c6f7700005f82015250565b5f611a4b601e83611034565b9150611a5682611a17565b602082019050919050565b5f6020820190508181035f830152611a7881611a3f565b9050919050565b5f611a8982611118565b9150611a9483611118565b9250828203905081811115611aac57611aab6117cb565b5b9291505056fea264697066735822122024c47df3e4f27aea5caa9ec93595b325c3e29ab60799aa08e2ca97b291eed19064736f6c634300081b0033",
					"opcodes": "PUSH1 0x80 PUSH1 0x40 MSTORE CALLVALUE DUP1 ISZERO PUSH2 0xF JUMPI PUSH0 PUSH0 REVERT JUMPDEST POP PUSH1 0x40 MLOAD DUP1 PUSH1 0x40 ADD PUSH1 0x40 MSTORE DUP1 PUSH1 0x8 DUP2 MSTORE PUSH1 0x20 ADD PUSH32 0x546170546F6B656E000000000000000000000000000000000000000000000000 DUP2 MSTORE POP PUSH1 0x40 MLOAD DUP1 PUSH1 0x40 ADD PUSH1 0x40 MSTORE DUP1 PUSH1 0x3 DUP2 MSTORE PUSH1 0x20 ADD PUSH32 0x5441500000000000000000000000000000000000000000000000000000000000 DUP2 MSTORE POP DUP2 PUSH1 0x3 SWAP1 DUP2 PUSH2 0x8B SWAP2 SWAP1 PUSH2 0x60D JUMP JUMPDEST POP DUP1 PUSH1 0x4 SWAP1 DUP2 PUSH2 0x9B SWAP2 SWAP1 PUSH2 0x60D JUMP JUMPDEST POP POP POP PUSH2 0xBA PUSH2 0xAF PUSH2 0xFA PUSH1 0x20 SHL PUSH1 0x20 SHR JUMP JUMPDEST PUSH2 0x101 PUSH1 0x20 SHL PUSH1 0x20 SHR JUMP JUMPDEST PUSH2 0xF5 CALLER PUSH2 0xCC PUSH2 0x1C4 PUSH1 0x20 SHL PUSH1 0x20 SHR JUMP JUMPDEST PUSH1 0xA PUSH2 0xD8 SWAP2 SWAP1 PUSH2 0x844 JUMP JUMPDEST PUSH7 0x2386F26FC10000 PUSH2 0xEA SWAP2 SWAP1 PUSH2 0x88E JUMP JUMPDEST PUSH2 0x1CC PUSH1 0x20 SHL PUSH1 0x20 SHR JUMP JUMPDEST PUSH2 0xA0A JUMP JUMPDEST PUSH0 CALLER SWAP1 POP SWAP1 JUMP JUMPDEST PUSH0 PUSH1 0x5 PUSH0 SWAP1 SLOAD SWAP1 PUSH2 0x100 EXP SWAP1 DIV PUSH20 0xFFFFFFFFFFFFFFFFFFFFFFFFFFFFFFFFFFFFFFFF AND SWAP1 POP DUP2 PUSH1 0x5 PUSH0 PUSH2 0x100 EXP DUP2 SLOAD DUP2 PUSH20 0xFFFFFFFFFFFFFFFFFFFFFFFFFFFFFFFFFFFFFFFF MUL NOT AND SWAP1 DUP4 PUSH20 0xFFFFFFFFFFFFFFFFFFFFFFFFFFFFFFFFFFFFFFFF AND MUL OR SWAP1 SSTORE POP DUP2 PUSH20 0xFFFFFFFFFFFFFFFFFFFFFFFFFFFFFFFFFFFFFFFF AND DUP2 PUSH20 0xFFFFFFFFFFFFFFFFFFFFFFFFFFFFFFFFFFFFFFFF AND PUSH32 0x8BE0079C531659141344CD1FD0A4F28419497F9722A3DAAFE3B4186F6B6457E0 PUSH1 0x40 MLOAD PUSH1 0x40 MLOAD DUP1 SWAP2 SUB SWAP1 LOG3 POP POP JUMP JUMPDEST PUSH0 PUSH1 0x12 SWAP1 POP SWAP1 JUMP JUMPDEST PUSH0 PUSH20 0xFFFFFFFFFFFFFFFFFFFFFFFFFFFFFFFFFFFFFFFF AND DUP3 PUSH20 0xFFFFFFFFFFFFFFFFFFFFFFFFFFFFFFFFFFFFFFFF AND SUB PUSH2 0x23A JUMPI PUSH1 0x40 MLOAD PUSH32 0x8C379A000000000000000000000000000000000000000000000000000000000 DUP2 MSTORE PUSH1 0x4 ADD PUSH2 0x231 SWAP1 PUSH2 0x929 JUMP JUMPDEST PUSH1 0x40 MLOAD DUP1 SWAP2 SUB SWAP1 REVERT JUMPDEST PUSH2 0x24B PUSH0 DUP4 DUP4 PUSH2 0x369 PUSH1 0x20 SHL PUSH1 0x20 SHR JUMP JUMPDEST PUSH2 0x25D PUSH1 0x2 SLOAD DUP3 PUSH2 0x36E PUSH1 0x20 SHL PUSH1 0x20 SHR JUMP JUMPDEST PUSH1 0x2 DUP2 SWAP1 SSTORE POP PUSH2 0x2AF PUSH0 PUSH0 DUP5 PUSH20 0xFFFFFFFFFFFFFFFFFFFFFFFFFFFFFFFFFFFFFFFF AND PUSH20 0xFFFFFFFFFFFFFFFFFFFFFFFFFFFFFFFFFFFFFFFF AND DUP2 MSTORE PUSH1 0x20 ADD SWAP1 DUP2 MSTORE PUSH1 0x20 ADD PUSH0 KECCAK256 SLOAD DUP3 PUSH2 0x36E PUSH1 0x20 SHL PUSH1 0x20 SHR JUMP JUMPDEST PUSH0 PUSH0 DUP5 PUSH20 0xFFFFFFFFFFFFFFFFFFFFFFFFFFFFFFFFFFFFFFFF AND PUSH20 0xFFFFFFFFFFFFFFFFFFFFFFFFFFFFFFFFFFFFFFFF AND DUP2 MSTORE PUSH1 0x20 ADD SWAP1 DUP2 MSTORE PUSH1 0x20 ADD PUSH0 KECCAK256 DUP2 SWAP1 SSTORE POP DUP2 PUSH20 0xFFFFFFFFFFFFFFFFFFFFFFFFFFFFFFFFFFFFFFFF AND PUSH0 PUSH20 0xFFFFFFFFFFFFFFFFFFFFFFFFFFFFFFFFFFFFFFFF AND PUSH32 0xDDF252AD1BE2C89B69C2B068FC378DAA952BA7F163C4A11628F55A4DF523B3EF DUP4 PUSH1 0x40 MLOAD PUSH2 0x34C SWAP2 SWAP1 PUSH2 0x956 JUMP JUMPDEST PUSH1 0x40 MLOAD DUP1 SWAP2 SUB SWAP1 LOG3 PUSH2 0x365 PUSH0 DUP4 DUP4 PUSH2 0x3CB PUSH1 0x20 SHL PUSH1 0x20 SHR JUMP JUMPDEST POP POP JUMP JUMPDEST POP POP POP JUMP JUMPDEST PUSH0 PUSH0 DUP3 DUP5 PUSH2 0x37C SWAP2 SWAP1 PUSH2 0x96F JUMP JUMPDEST SWAP1 POP DUP4 DUP2 LT ISZERO PUSH2 0x3C1 JUMPI PUSH1 0x40 MLOAD PUSH32 0x8C379A000000000000000000000000000000000000000000000000000000000 DUP2 MSTORE PUSH1 0x4 ADD PUSH2 0x3B8 SWAP1 PUSH2 0x9EC JUMP JUMPDEST PUSH1 0x40 MLOAD DUP1 SWAP2 SUB SWAP1 REVERT JUMPDEST DUP1 SWAP2 POP POP SWAP3 SWAP2 POP POP JUMP JUMPDEST POP POP POP JUMP JUMPDEST PUSH0 DUP2 MLOAD SWAP1 POP SWAP2 SWAP1 POP JUMP JUMPDEST PUSH32 0x4E487B7100000000000000000000000000000000000000000000000000000000 PUSH0 MSTORE PUSH1 0x41 PUSH1 0x4 MSTORE PUSH1 0x24 PUSH0 REVERT JUMPDEST PUSH32 0x4E487B7100000000000000000000000000000000000000000000000000000000 PUSH0 MSTORE PUSH1 0x22 PUSH1 0x4 MSTORE PUSH1 0x24 PUSH0 REVERT JUMPDEST PUSH0 PUSH1 0x2 DUP3 DIV SWAP1 POP PUSH1 0x1 DUP3 AND DUP1 PUSH2 0x44B JUMPI PUSH1 0x7F DUP3 AND SWAP2 POP JUMPDEST PUSH1 0x20 DUP3 LT DUP2 SUB PUSH2 0x45E JUMPI PUSH2 0x45D PUSH2 0x407 JUMP JUMPDEST JUMPDEST POP SWAP2 SWAP1 POP JUMP JUMPDEST PUSH0 DUP2 SWAP1 POP DUP2 PUSH0 MSTORE PUSH1 0x20 PUSH0 KECCAK256 SWAP1 POP SWAP2 SWAP1 POP JUMP JUMPDEST PUSH0 PUSH1 0x20 PUSH1 0x1F DUP4 ADD DIV SWAP1 POP SWAP2 SWAP1 POP JUMP JUMPDEST PUSH0 DUP3 DUP3 SHL SWAP1 POP SWAP3 SWAP2 POP POP JUMP JUMPDEST PUSH0 PUSH1 0x8 DUP4 MUL PUSH2 0x4C0 PUSH32 0xFFFFFFFFFFFFFFFFFFFFFFFFFFFFFFFFFFFFFFFFFFFFFFFFFFFFFFFFFFFFFFFF DUP3 PUSH2 0x485 JUMP JUMPDEST PUSH2 0x4CA DUP7 DUP4 PUSH2 0x485 JUMP JUMPDEST SWAP6 POP DUP1 NOT DUP5 AND SWAP4 POP DUP1 DUP7 AND DUP5 OR SWAP3 POP POP POP SWAP4 SWAP3 POP POP POP JUMP JUMPDEST PUSH0 DUP2 SWAP1 POP SWAP2 SWAP1 POP JUMP JUMPDEST PUSH0 DUP2 SWAP1 POP SWAP2 SWAP1 POP JUMP JUMPDEST PUSH0 PUSH2 0x50E PUSH2 0x509 PUSH2 0x504 DUP5 PUSH2 0x4E2 JUMP JUMPDEST PUSH2 0x4EB JUMP JUMPDEST PUSH2 0x4E2 JUMP JUMPDEST SWAP1 POP SWAP2 SWAP1 POP JUMP JUMPDEST PUSH0 DUP2 SWAP1 POP SWAP2 SWAP1 POP JUMP JUMPDEST PUSH2 0x527 DUP4 PUSH2 0x4F4 JUMP JUMPDEST PUSH2 0x53B PUSH2 0x533 DUP3 PUSH2 0x515 JUMP JUMPDEST DUP5 DUP5 SLOAD PUSH2 0x491 JUMP JUMPDEST DUP3 SSTORE POP POP POP POP JUMP JUMPDEST PUSH0 PUSH0 SWAP1 POP SWAP1 JUMP JUMPDEST PUSH2 0x552 PUSH2 0x543 JUMP JUMPDEST PUSH2 0x55D DUP2 DUP5 DUP5 PUSH2 0x51E JUMP JUMPDEST POP POP POP JUMP JUMPDEST JUMPDEST DUP2 DUP2 LT ISZERO PUSH2 0x580 JUMPI PUSH2 0x575 PUSH0 DUP3 PUSH2 0x54A JUMP JUMPDEST PUSH1 0x1 DUP2 ADD SWAP1 POP PUSH2 0x563 JUMP JUMPDEST POP POP JUMP JUMPDEST PUSH1 0x1F DUP3 GT ISZERO PUSH2 0x5C5 JUMPI PUSH2 0x596 DUP2 PUSH2 0x464 JUMP JUMPDEST PUSH2 0x59F DUP5 PUSH2 0x476 JUMP JUMPDEST DUP2 ADD PUSH1 0x20 DUP6 LT ISZERO PUSH2 0x5AE JUMPI DUP2 SWAP1 POP JUMPDEST PUSH2 0x5C2 PUSH2 0x5BA DUP6 PUSH2 0x476 JUMP JUMPDEST DUP4 ADD DUP3 PUSH2 0x562 JUMP JUMPDEST POP POP JUMPDEST POP POP POP JUMP JUMPDEST PUSH0 DUP3 DUP3 SHR SWAP1 POP SWAP3 SWAP2 POP POP JUMP JUMPDEST PUSH0 PUSH2 0x5E5 PUSH0 NOT DUP5 PUSH1 0x8 MUL PUSH2 0x5CA JUMP JUMPDEST NOT DUP1 DUP4 AND SWAP2 POP POP SWAP3 SWAP2 POP POP JUMP JUMPDEST PUSH0 PUSH2 0x5FD DUP4 DUP4 PUSH2 0x5D6 JUMP JUMPDEST SWAP2 POP DUP3 PUSH1 0x2 MUL DUP3 OR SWAP1 POP SWAP3 SWAP2 POP POP JUMP JUMPDEST PUSH2 0x616 DUP3 PUSH2 0x3D0 JUMP JUMPDEST PUSH8 0xFFFFFFFFFFFFFFFF DUP2 GT ISZERO PUSH2 0x62F JUMPI PUSH2 0x62E PUSH2 0x3DA JUMP JUMPDEST JUMPDEST PUSH2 0x639 DUP3 SLOAD PUSH2 0x434 JUMP JUMPDEST PUSH2 0x644 DUP3 DUP3 DUP6 PUSH2 0x584 JUMP JUMPDEST PUSH0 PUSH1 0x20 SWAP1 POP PUSH1 0x1F DUP4 GT PUSH1 0x1 DUP2 EQ PUSH2 0x675 JUMPI PUSH0 DUP5 ISZERO PUSH2 0x663 JUMPI DUP3 DUP8 ADD MLOAD SWAP1 POP JUMPDEST PUSH2 0x66D DUP6 DUP3 PUSH2 0x5F2 JUMP JUMPDEST DUP7 SSTORE POP PUSH2 0x6D4 JUMP JUMPDEST PUSH1 0x1F NOT DUP5 AND PUSH2 0x683 DUP7 PUSH2 0x464 JUMP JUMPDEST PUSH0 JUMPDEST DUP3 DUP2 LT ISZERO PUSH2 0x6AA JUMPI DUP5 DUP10 ADD MLOAD DUP3 SSTORE PUSH1 0x1 DUP3 ADD SWAP2 POP PUSH1 0x20 DUP6 ADD SWAP5 POP PUSH1 0x20 DUP2 ADD SWAP1 POP PUSH2 0x685 JUMP JUMPDEST DUP7 DUP4 LT ISZERO PUSH2 0x6C7 JUMPI DUP5 DUP10 ADD MLOAD PUSH2 0x6C3 PUSH1 0x1F DUP10 AND DUP3 PUSH2 0x5D6 JUMP JUMPDEST DUP4 SSTORE POP JUMPDEST PUSH1 0x1 PUSH1 0x2 DUP9 MUL ADD DUP9 SSTORE POP POP POP JUMPDEST POP POP POP POP POP POP JUMP JUMPDEST PUSH32 0x4E487B7100000000000000000000000000000000000000000000000000000000 PUSH0 MSTORE PUSH1 0x11 PUSH1 0x4 MSTORE PUSH1 0x24 PUSH0 REVERT JUMPDEST PUSH0 DUP2 PUSH1 0x1 SHR SWAP1 POP SWAP2 SWAP1 POP JUMP JUMPDEST PUSH0 PUSH0 DUP3 SWAP2 POP DUP4 SWAP1 POP JUMPDEST PUSH1 0x1 DUP6 GT ISZERO PUSH2 0x75E JUMPI DUP1 DUP7 DIV DUP2 GT ISZERO PUSH2 0x73A JUMPI PUSH2 0x739 PUSH2 0x6DC JUMP JUMPDEST JUMPDEST PUSH1 0x1 DUP6 AND ISZERO PUSH2 0x749 JUMPI DUP1 DUP3 MUL SWAP2 POP JUMPDEST DUP1 DUP2 MUL SWAP1 POP PUSH2 0x757 DUP6 PUSH2 0x709 JUMP JUMPDEST SWAP5 POP PUSH2 0x71E JUMP JUMPDEST SWAP5 POP SWAP5 SWAP3 POP POP POP JUMP JUMPDEST PUSH0 DUP3 PUSH2 0x776 JUMPI PUSH1 0x1 SWAP1 POP PUSH2 0x831 JUMP JUMPDEST DUP2 PUSH2 0x783 JUMPI PUSH0 SWAP1 POP PUSH2 0x831 JUMP JUMPDEST DUP2 PUSH1 0x1 DUP2 EQ PUSH2 0x799 JUMPI PUSH1 0x2 DUP2 EQ PUSH2 0x7A3 JUMPI PUSH2 0x7D2 JUMP JUMPDEST PUSH1 0x1 SWAP2 POP POP PUSH2 0x831 JUMP JUMPDEST PUSH1 0xFF DUP5 GT ISZERO PUSH2 0x7B5 JUMPI PUSH2 0x7B4 PUSH2 0x6DC JUMP JUMPDEST JUMPDEST DUP4 PUSH1 0x2 EXP SWAP2 POP DUP5 DUP3 GT ISZERO PUSH2 0x7CC JUMPI PUSH2 0x7CB PUSH2 0x6DC JUMP JUMPDEST JUMPDEST POP PUSH2 0x831 JUMP JUMPDEST POP PUSH1 0x20 DUP4 LT PUSH2 0x133 DUP4 LT AND PUSH1 0x4E DUP5 LT PUSH1 0xB DUP5 LT AND OR ISZERO PUSH2 0x807 JUMPI DUP3 DUP3 EXP SWAP1 POP DUP4 DUP2 GT ISZERO PUSH2 0x802 JUMPI PUSH2 0x801 PUSH2 0x6DC JUMP JUMPDEST JUMPDEST PUSH2 0x831 JUMP JUMPDEST PUSH2 0x814 DUP5 DUP5 DUP5 PUSH1 0x1 PUSH2 0x715 JUMP JUMPDEST SWAP3 POP SWAP1 POP DUP2 DUP5 DIV DUP2 GT ISZERO PUSH2 0x82B JUMPI PUSH2 0x82A PUSH2 0x6DC JUMP JUMPDEST JUMPDEST DUP2 DUP2 MUL SWAP1 POP JUMPDEST SWAP4 SWAP3 POP POP POP JUMP JUMPDEST PUSH0 PUSH1 0xFF DUP3 AND SWAP1 POP SWAP2 SWAP1 POP JUMP JUMPDEST PUSH0 PUSH2 0x84E DUP3 PUSH2 0x4E2 JUMP JUMPDEST SWAP2 POP PUSH2 0x859 DUP4 PUSH2 0x838 JUMP JUMPDEST SWAP3 POP PUSH2 0x886 PUSH32 0xFFFFFFFFFFFFFFFFFFFFFFFFFFFFFFFFFFFFFFFFFFFFFFFFFFFFFFFFFFFFFFFF DUP5 DUP5 PUSH2 0x767 JUMP JUMPDEST SWAP1 POP SWAP3 SWAP2 POP POP JUMP JUMPDEST PUSH0 PUSH2 0x898 DUP3 PUSH2 0x4E2 JUMP JUMPDEST SWAP2 POP PUSH2 0x8A3 DUP4 PUSH2 0x4E2 JUMP JUMPDEST SWAP3 POP DUP3 DUP3 MUL PUSH2 0x8B1 DUP2 PUSH2 0x4E2 JUMP JUMPDEST SWAP2 POP DUP3 DUP3 DIV DUP5 EQ DUP4 ISZERO OR PUSH2 0x8C8 JUMPI PUSH2 0x8C7 PUSH2 0x6DC JUMP JUMPDEST JUMPDEST POP SWAP3 SWAP2 POP POP JUMP JUMPDEST PUSH0 DUP3 DUP3 MSTORE PUSH1 0x20 DUP3 ADD SWAP1 POP SWAP3 SWAP2 POP POP JUMP JUMPDEST PUSH32 0x45524332303A206D696E7420746F20746865207A65726F206164647265737300 PUSH0 DUP3 ADD MSTORE POP JUMP JUMPDEST PUSH0 PUSH2 0x913 PUSH1 0x1F DUP4 PUSH2 0x8CF JUMP JUMPDEST SWAP2 POP PUSH2 0x91E DUP3 PUSH2 0x8DF JUMP JUMPDEST PUSH1 0x20 DUP3 ADD SWAP1 POP SWAP2 SWAP1 POP JUMP JUMPDEST PUSH0 PUSH1 0x20 DUP3 ADD SWAP1 POP DUP2 DUP2 SUB PUSH0 DUP4 ADD MSTORE PUSH2 0x940 DUP2 PUSH2 0x907 JUMP JUMPDEST SWAP1 POP SWAP2 SWAP1 POP JUMP JUMPDEST PUSH2 0x950 DUP2 PUSH2 0x4E2 JUMP JUMPDEST DUP3 MSTORE POP POP JUMP JUMPDEST PUSH0 PUSH1 0x20 DUP3 ADD SWAP1 POP PUSH2 0x969 PUSH0 DUP4 ADD DUP5 PUSH2 0x947 JUMP JUMPDEST SWAP3 SWAP2 POP POP JUMP JUMPDEST PUSH0 PUSH2 0x979 DUP3 PUSH2 0x4E2 JUMP JUMPDEST SWAP2 POP PUSH2 0x984 DUP4 PUSH2 0x4E2 JUMP JUMPDEST SWAP3 POP DUP3 DUP3 ADD SWAP1 POP DUP1 DUP3 GT ISZERO PUSH2 0x99C JUMPI PUSH2 0x99B PUSH2 0x6DC JUMP JUMPDEST JUMPDEST SWAP3 SWAP2 POP POP JUMP JUMPDEST PUSH32 0x536166654D6174683A206164646974696F6E206F766572666C6F770000000000 PUSH0 DUP3 ADD MSTORE POP JUMP JUMPDEST PUSH0 PUSH2 0x9D6 PUSH1 0x1B DUP4 PUSH2 0x8CF JUMP JUMPDEST SWAP2 POP PUSH2 0x9E1 DUP3 PUSH2 0x9A2 JUMP JUMPDEST PUSH1 0x20 DUP3 ADD SWAP1 POP SWAP2 SWAP1 POP JUMP JUMPDEST PUSH0 PUSH1 0x20 DUP3 ADD SWAP1 POP DUP2 DUP2 SUB PUSH0 DUP4 ADD MSTORE PUSH2 0xA03 DUP2 PUSH2 0x9CA JUMP JUMPDEST SWAP1 POP SWAP2 SWAP1 POP JUMP JUMPDEST PUSH2 0x1AE8 DUP1 PUSH2 0xA17 PUSH0 CODECOPY PUSH0 RETURN INVALID PUSH1 0x80 PUSH1 0x40 MSTORE CALLVALUE DUP1 ISZERO PUSH2 0xF JUMPI PUSH0 PUSH0 REVERT JUMPDEST POP PUSH1 0x4 CALLDATASIZE LT PUSH2 0xFE JUMPI PUSH0 CALLDATALOAD PUSH1 0xE0 SHR DUP1 PUSH4 0x715018A6 GT PUSH2 0x95 JUMPI DUP1 PUSH4 0xA457C2D7 GT PUSH2 0x64 JUMPI DUP1 PUSH4 0xA457C2D7 EQ PUSH2 0x29A JUMPI DUP1 PUSH4 0xA9059CBB EQ PUSH2 0x2CA JUMPI DUP1 PUSH4 0xDD62ED3E EQ PUSH2 0x2FA JUMPI DUP1 PUSH4 0xF2FDE38B EQ PUSH2 0x32A JUMPI PUSH2 0xFE JUMP JUMPDEST DUP1 PUSH4 0x715018A6 EQ PUSH2 0x238 JUMPI DUP1 PUSH4 0x79CC6790 EQ PUSH2 0x242 JUMPI DUP1 PUSH4 0x8DA5CB5B EQ PUSH2 0x25E JUMPI DUP1 PUSH4 0x95D89B41 EQ PUSH2 0x27C JUMPI PUSH2 0xFE JUMP JUMPDEST DUP1 PUSH4 0x313CE567 GT PUSH2 0xD1 JUMPI DUP1 PUSH4 0x313CE567 EQ PUSH2 0x19E JUMPI DUP1 PUSH4 0x39509351 EQ PUSH2 0x1BC JUMPI DUP1 PUSH4 0x42966C68 EQ PUSH2 0x1EC JUMPI DUP1 PUSH4 0x70A08231 EQ PUSH2 0x208 JUMPI PUSH2 0xFE JUMP JUMPDEST DUP1 PUSH4 0x6FDDE03 EQ PUSH2 0x102 JUMPI DUP1 PUSH4 0x95EA7B3 EQ PUSH2 0x120 JUMPI DUP1 PUSH4 0x18160DDD EQ PUSH2 0x150 JUMPI DUP1 PUSH4 0x23B872DD EQ PUSH2 0x16E JUMPI JUMPDEST PUSH0 PUSH0 REVERT JUMPDEST PUSH2 0x10A PUSH2 0x346 JUMP JUMPDEST PUSH1 0x40 MLOAD PUSH2 0x117 SWAP2 SWAP1 PUSH2 0x109A JUMP JUMPDEST PUSH1 0x40 MLOAD DUP1 SWAP2 SUB SWAP1 RETURN JUMPDEST PUSH2 0x13A PUSH1 0x4 DUP1 CALLDATASIZE SUB DUP2 ADD SWAP1 PUSH2 0x135 SWAP2 SWAP1 PUSH2 0x114B JUMP JUMPDEST PUSH2 0x3D6 JUMP JUMPDEST PUSH1 0x40 MLOAD PUSH2 0x147 SWAP2 SWAP1 PUSH2 0x11A3 JUMP JUMPDEST PUSH1 0x40 MLOAD DUP1 SWAP2 SUB SWAP1 RETURN JUMPDEST PUSH2 0x158 PUSH2 0x3F8 JUMP JUMPDEST PUSH1 0x40 MLOAD PUSH2 0x165 SWAP2 SWAP1 PUSH2 0x11CB JUMP JUMPDEST PUSH1 0x40 MLOAD DUP1 SWAP2 SUB SWAP1 RETURN JUMPDEST PUSH2 0x188 PUSH1 0x4 DUP1 CALLDATASIZE SUB DUP2 ADD SWAP1 PUSH2 0x183 SWAP2 SWAP1 PUSH2 0x11E4 JUMP JUMPDEST PUSH2 0x401 JUMP JUMPDEST PUSH1 0x40 MLOAD PUSH2 0x195 SWAP2 SWAP1 PUSH2 0x11A3 JUMP JUMPDEST PUSH1 0x40 MLOAD DUP1 SWAP2 SUB SWAP1 RETURN JUMPDEST PUSH2 0x1A6 PUSH2 0x42F JUMP JUMPDEST PUSH1 0x40 MLOAD PUSH2 0x1B3 SWAP2 SWAP1 PUSH2 0x124F JUMP JUMPDEST PUSH1 0x40 MLOAD DUP1 SWAP2 SUB SWAP1 RETURN JUMPDEST PUSH2 0x1D6 PUSH1 0x4 DUP1 CALLDATASIZE SUB DUP2 ADD SWAP1 PUSH2 0x1D1 SWAP2 SWAP1 PUSH2 0x114B JUMP JUMPDEST PUSH2 0x437 JUMP JUMPDEST PUSH1 0x40 MLOAD PUSH2 0x1E3 SWAP2 SWAP1 PUSH2 0x11A3 JUMP JUMPDEST PUSH1 0x40 MLOAD DUP1 SWAP2 SUB SWAP1 RETURN JUMPDEST PUSH2 0x206 PUSH1 0x4 DUP1 CALLDATASIZE SUB DUP2 ADD SWAP1 PUSH2 0x201 SWAP2 SWAP1 PUSH2 0x1268 JUMP JUMPDEST PUSH2 0x46B JUMP JUMPDEST STOP JUMPDEST PUSH2 0x222 PUSH1 0x4 DUP1 CALLDATASIZE SUB DUP2 ADD SWAP1 PUSH2 0x21D SWAP2 SWAP1 PUSH2 0x1293 JUMP JUMPDEST PUSH2 0x47F JUMP JUMPDEST PUSH1 0x40 MLOAD PUSH2 0x22F SWAP2 SWAP1 PUSH2 0x11CB JUMP JUMPDEST PUSH1 0x40 MLOAD DUP1 SWAP2 SUB SWAP1 RETURN JUMPDEST PUSH2 0x240 PUSH2 0x4C4 JUMP JUMPDEST STOP JUMPDEST PUSH2 0x25C PUSH1 0x4 DUP1 CALLDATASIZE SUB DUP2 ADD SWAP1 PUSH2 0x257 SWAP2 SWAP1 PUSH2 0x114B JUMP JUMPDEST PUSH2 0x4D7 JUMP JUMPDEST STOP JUMPDEST PUSH2 0x266 PUSH2 0x4F7 JUMP JUMPDEST PUSH1 0x40 MLOAD PUSH2 0x273 SWAP2 SWAP1 PUSH2 0x12CD JUMP JUMPDEST PUSH1 0x40 MLOAD DUP1 SWAP2 SUB SWAP1 RETURN JUMPDEST PUSH2 0x284 PUSH2 0x51F JUMP JUMPDEST PUSH1 0x40 MLOAD PUSH2 0x291 SWAP2 SWAP1 PUSH2 0x109A JUMP JUMPDEST PUSH1 0x40 MLOAD DUP1 SWAP2 SUB SWAP1 RETURN JUMPDEST PUSH2 0x2B4 PUSH1 0x4 DUP1 CALLDATASIZE SUB DUP2 ADD SWAP1 PUSH2 0x2AF SWAP2 SWAP1 PUSH2 0x114B JUMP JUMPDEST PUSH2 0x5AF JUMP JUMPDEST PUSH1 0x40 MLOAD PUSH2 0x2C1 SWAP2 SWAP1 PUSH2 0x11A3 JUMP JUMPDEST PUSH1 0x40 MLOAD DUP1 SWAP2 SUB SWAP1 RETURN JUMPDEST PUSH2 0x2E4 PUSH1 0x4 DUP1 CALLDATASIZE SUB DUP2 ADD SWAP1 PUSH2 0x2DF SWAP2 SWAP1 PUSH2 0x114B JUMP JUMPDEST PUSH2 0x62B JUMP JUMPDEST PUSH1 0x40 MLOAD PUSH2 0x2F1 SWAP2 SWAP1 PUSH2 0x11A3 JUMP JUMPDEST PUSH1 0x40 MLOAD DUP1 SWAP2 SUB SWAP1 RETURN JUMPDEST PUSH2 0x314 PUSH1 0x4 DUP1 CALLDATASIZE SUB DUP2 ADD SWAP1 PUSH2 0x30F SWAP2 SWAP1 PUSH2 0x12E6 JUMP JUMPDEST PUSH2 0x64D JUMP JUMPDEST PUSH1 0x40 MLOAD PUSH2 0x321 SWAP2 SWAP1 PUSH2 0x11CB JUMP JUMPDEST PUSH1 0x40 MLOAD DUP1 SWAP2 SUB SWAP1 RETURN JUMPDEST PUSH2 0x344 PUSH1 0x4 DUP1 CALLDATASIZE SUB DUP2 ADD SWAP1 PUSH2 0x33F SWAP2 SWAP1 PUSH2 0x1293 JUMP JUMPDEST PUSH2 0x6CF JUMP JUMPDEST STOP JUMPDEST PUSH1 0x60 PUSH1 0x3 DUP1 SLOAD PUSH2 0x355 SWAP1 PUSH2 0x1351 JUMP JUMPDEST DUP1 PUSH1 0x1F ADD PUSH1 0x20 DUP1 SWAP2 DIV MUL PUSH1 0x20 ADD PUSH1 0x40 MLOAD SWAP1 DUP2 ADD PUSH1 0x40 MSTORE DUP1 SWAP3 SWAP2 SWAP1 DUP2 DUP2 MSTORE PUSH1 0x20 ADD DUP3 DUP1 SLOAD PUSH2 0x381 SWAP1 PUSH2 0x1351 JUMP JUMPDEST DUP1 ISZERO PUSH2 0x3CC JUMPI DUP1 PUSH1 0x1F LT PUSH2 0x3A3 JUMPI PUSH2 0x100 DUP1 DUP4 SLOAD DIV MUL DUP4 MSTORE SWAP2 PUSH1 0x20 ADD SWAP2 PUSH2 0x3CC JUMP JUMPDEST DUP3 ADD SWAP2 SWAP1 PUSH0 MSTORE PUSH1 0x20 PUSH0 KECCAK256 SWAP1 JUMPDEST DUP2 SLOAD DUP2 MSTORE SWAP1 PUSH1 0x1 ADD SWAP1 PUSH1 0x20 ADD DUP1 DUP4 GT PUSH2 0x3AF JUMPI DUP3 SWAP1 SUB PUSH1 0x1F AND DUP3 ADD SWAP2 JUMPDEST POP POP POP POP POP SWAP1 POP SWAP1 JUMP JUMPDEST PUSH0 PUSH0 PUSH2 0x3E0 PUSH2 0x751 JUMP JUMPDEST SWAP1 POP PUSH2 0x3ED DUP2 DUP6 DUP6 PUSH2 0x758 JUMP JUMPDEST PUSH1 0x1 SWAP2 POP POP SWAP3 SWAP2 POP POP JUMP JUMPDEST PUSH0 PUSH1 0x2 SLOAD SWAP1 POP SWAP1 JUMP JUMPDEST PUSH0 PUSH0 PUSH2 0x40B PUSH2 0x751 JUMP JUMPDEST SWAP1 POP PUSH2 0x418 DUP6 DUP3 DUP6 PUSH2 0x91B JUMP JUMPDEST PUSH2 0x423 DUP6 DUP6 DUP6 PUSH2 0x9AD JUMP JUMPDEST PUSH1 0x1 SWAP2 POP POP SWAP4 SWAP3 POP POP POP JUMP JUMPDEST PUSH0 PUSH1 0x12 SWAP1 POP SWAP1 JUMP JUMPDEST PUSH0 PUSH0 PUSH2 0x441 PUSH2 0x751 JUMP JUMPDEST SWAP1 POP PUSH2 0x460 DUP2 DUP6 PUSH2 0x45B PUSH2 0x455 DUP6 DUP10 PUSH2 0x64D JUMP JUMPDEST DUP8 PUSH2 0xC5D JUMP JUMPDEST PUSH2 0x758 JUMP JUMPDEST PUSH1 0x1 SWAP2 POP POP SWAP3 SWAP2 POP POP JUMP JUMPDEST PUSH2 0x47C PUSH2 0x476 PUSH2 0x751 JUMP JUMPDEST DUP3 PUSH2 0xCBA JUMP JUMPDEST POP JUMP JUMPDEST PUSH0 PUSH0 PUSH0 DUP4 PUSH20 0xFFFFFFFFFFFFFFFFFFFFFFFFFFFFFFFFFFFFFFFF AND PUSH20 0xFFFFFFFFFFFFFFFFFFFFFFFFFFFFFFFFFFFFFFFF AND DUP2 MSTORE PUSH1 0x20 ADD SWAP1 DUP2 MSTORE PUSH1 0x20 ADD PUSH0 KECCAK256 SLOAD SWAP1 POP SWAP2 SWAP1 POP JUMP JUMPDEST PUSH2 0x4CC PUSH2 0xE87 JUMP JUMPDEST PUSH2 0x4D5 PUSH0 PUSH2 0xF05 JUMP JUMPDEST JUMP JUMPDEST PUSH2 0x4E9 DUP3 PUSH2 0x4E3 PUSH2 0x751 JUMP JUMPDEST DUP4 PUSH2 0x91B JUMP JUMPDEST PUSH2 0x4F3 DUP3 DUP3 PUSH2 0xCBA JUMP JUMPDEST POP POP JUMP JUMPDEST PUSH0 PUSH1 0x5 PUSH0 SWAP1 SLOAD SWAP1 PUSH2 0x100 EXP SWAP1 DIV PUSH20 0xFFFFFFFFFFFFFFFFFFFFFFFFFFFFFFFFFFFFFFFF AND SWAP1 POP SWAP1 JUMP JUMPDEST PUSH1 0x60 PUSH1 0x4 DUP1 SLOAD PUSH2 0x52E SWAP1 PUSH2 0x1351 JUMP JUMPDEST DUP1 PUSH1 0x1F ADD PUSH1 0x20 DUP1 SWAP2 DIV MUL PUSH1 0x20 ADD PUSH1 0x40 MLOAD SWAP1 DUP2 ADD PUSH1 0x40 MSTORE DUP1 SWAP3 SWAP2 SWAP1 DUP2 DUP2 MSTORE PUSH1 0x20 ADD DUP3 DUP1 SLOAD PUSH2 0x55A SWAP1 PUSH2 0x1351 JUMP JUMPDEST DUP1 ISZERO PUSH2 0x5A5 JUMPI DUP1 PUSH1 0x1F LT PUSH2 0x57C JUMPI PUSH2 0x100 DUP1 DUP4 SLOAD DIV MUL DUP4 MSTORE SWAP2 PUSH1 0x20 ADD SWAP2 PUSH2 0x5A5 JUMP JUMPDEST DUP3 ADD SWAP2 SWAP1 PUSH0 MSTORE PUSH1 0x20 PUSH0 KECCAK256 SWAP1 JUMPDEST DUP2 SLOAD DUP2 MSTORE SWAP1 PUSH1 0x1 ADD SWAP1 PUSH1 0x20 ADD DUP1 DUP4 GT PUSH2 0x588 JUMPI DUP3 SWAP1 SUB PUSH1 0x1F AND DUP3 ADD SWAP2 JUMPDEST POP POP POP POP POP SWAP1 POP SWAP1 JUMP JUMPDEST PUSH0 PUSH0 PUSH2 0x5B9 PUSH2 0x751 JUMP JUMPDEST SWAP1 POP PUSH0 PUSH2 0x5C6 DUP3 DUP7 PUSH2 0x64D JUMP JUMPDEST SWAP1 POP DUP4 DUP2 LT ISZERO PUSH2 0x60B JUMPI PUSH1 0x40 MLOAD PUSH32 0x8C379A000000000000000000000000000000000000000000000000000000000 DUP2 MSTORE PUSH1 0x4 ADD PUSH2 0x602 SWAP1 PUSH2 0x13F1 JUMP JUMPDEST PUSH1 0x40 MLOAD DUP1 SWAP2 SUB SWAP1 REVERT JUMPDEST PUSH2 0x61F DUP3 DUP7 PUSH2 0x61A DUP5 DUP9 PUSH2 0xFC8 JUMP JUMPDEST PUSH2 0x758 JUMP JUMPDEST PUSH1 0x1 SWAP3 POP POP POP SWAP3 SWAP2 POP POP JUMP JUMPDEST PUSH0 PUSH0 PUSH2 0x635 PUSH2 0x751 JUMP JUMPDEST SWAP1 POP PUSH2 0x642 DUP2 DUP6 DUP6 PUSH2 0x9AD JUMP JUMPDEST PUSH1 0x1 SWAP2 POP POP SWAP3 SWAP2 POP POP JUMP JUMPDEST PUSH0 PUSH1 0x1 PUSH0 DUP5 PUSH20 0xFFFFFFFFFFFFFFFFFFFFFFFFFFFFFFFFFFFFFFFF AND PUSH20 0xFFFFFFFFFFFFFFFFFFFFFFFFFFFFFFFFFFFFFFFF AND DUP2 MSTORE PUSH1 0x20 ADD SWAP1 DUP2 MSTORE PUSH1 0x20 ADD PUSH0 KECCAK256 PUSH0 DUP4 PUSH20 0xFFFFFFFFFFFFFFFFFFFFFFFFFFFFFFFFFFFFFFFF AND PUSH20 0xFFFFFFFFFFFFFFFFFFFFFFFFFFFFFFFFFFFFFFFF AND DUP2 MSTORE PUSH1 0x20 ADD SWAP1 DUP2 MSTORE PUSH1 0x20 ADD PUSH0 KECCAK256 SLOAD SWAP1 POP SWAP3 SWAP2 POP POP JUMP JUMPDEST PUSH2 0x6D7 PUSH2 0xE87 JUMP JUMPDEST PUSH0 PUSH20 0xFFFFFFFFFFFFFFFFFFFFFFFFFFFFFFFFFFFFFFFF AND DUP2 PUSH20 0xFFFFFFFFFFFFFFFFFFFFFFFFFFFFFFFFFFFFFFFF AND SUB PUSH2 0x745 JUMPI PUSH1 0x40 MLOAD PUSH32 0x8C379A000000000000000000000000000000000000000000000000000000000 DUP2 MSTORE PUSH1 0x4 ADD PUSH2 0x73C SWAP1 PUSH2 0x147F JUMP JUMPDEST PUSH1 0x40 MLOAD DUP1 SWAP2 SUB SWAP1 REVERT JUMPDEST PUSH2 0x74E DUP2 PUSH2 0xF05 JUMP JUMPDEST POP JUMP JUMPDEST PUSH0 CALLER SWAP1 POP SWAP1 JUMP JUMPDEST PUSH0 PUSH20 0xFFFFFFFFFFFFFFFFFFFFFFFFFFFFFFFFFFFFFFFF AND DUP4 PUSH20 0xFFFFFFFFFFFFFFFFFFFFFFFFFFFFFFFFFFFFFFFF AND SUB PUSH2 0x7C6 JUMPI PUSH1 0x40 MLOAD PUSH32 0x8C379A000000000000000000000000000000000000000000000000000000000 DUP2 MSTORE PUSH1 0x4 ADD PUSH2 0x7BD SWAP1 PUSH2 0x150D JUMP JUMPDEST PUSH1 0x40 MLOAD DUP1 SWAP2 SUB SWAP1 REVERT JUMPDEST PUSH0 PUSH20 0xFFFFFFFFFFFFFFFFFFFFFFFFFFFFFFFFFFFFFFFF AND DUP3 PUSH20 0xFFFFFFFFFFFFFFFFFFFFFFFFFFFFFFFFFFFFFFFF AND SUB PUSH2 0x834 JUMPI PUSH1 0x40 MLOAD PUSH32 0x8C379A000000000000000000000000000000000000000000000000000000000 DUP2 MSTORE PUSH1 0x4 ADD PUSH2 0x82B SWAP1 PUSH2 0x159B JUMP JUMPDEST PUSH1 0x40 MLOAD DUP1 SWAP2 SUB SWAP1 REVERT JUMPDEST DUP1 PUSH1 0x1 PUSH0 DUP6 PUSH20 0xFFFFFFFFFFFFFFFFFFFFFFFFFFFFFFFFFFFFFFFF AND PUSH20 0xFFFFFFFFFFFFFFFFFFFFFFFFFFFFFFFFFFFFFFFF AND DUP2 MSTORE PUSH1 0x20 ADD SWAP1 DUP2 MSTORE PUSH1 0x20 ADD PUSH0 KECCAK256 PUSH0 DUP5 PUSH20 0xFFFFFFFFFFFFFFFFFFFFFFFFFFFFFFFFFFFFFFFF AND PUSH20 0xFFFFFFFFFFFFFFFFFFFFFFFFFFFFFFFFFFFFFFFF AND DUP2 MSTORE PUSH1 0x20 ADD SWAP1 DUP2 MSTORE PUSH1 0x20 ADD PUSH0 KECCAK256 DUP2 SWAP1 SSTORE POP DUP2 PUSH20 0xFFFFFFFFFFFFFFFFFFFFFFFFFFFFFFFFFFFFFFFF AND DUP4 PUSH20 0xFFFFFFFFFFFFFFFFFFFFFFFFFFFFFFFFFFFFFFFF AND PUSH32 0x8C5BE1E5EBEC7D5BD14F71427D1E84F3DD0314C0F7B2291E5B200AC8C7C3B925 DUP4 PUSH1 0x40 MLOAD PUSH2 0x90E SWAP2 SWAP1 PUSH2 0x11CB JUMP JUMPDEST PUSH1 0x40 MLOAD DUP1 SWAP2 SUB SWAP1 LOG3 POP POP POP JUMP JUMPDEST PUSH0 PUSH2 0x926 DUP5 DUP5 PUSH2 0x64D JUMP JUMPDEST SWAP1 POP PUSH32 0xFFFFFFFFFFFFFFFFFFFFFFFFFFFFFFFFFFFFFFFFFFFFFFFFFFFFFFFFFFFFFFFF DUP2 EQ PUSH2 0x9A7 JUMPI DUP2 DUP2 LT ISZERO PUSH2 0x992 JUMPI PUSH1 0x40 MLOAD PUSH32 0x8C379A000000000000000000000000000000000000000000000000000000000 DUP2 MSTORE PUSH1 0x4 ADD PUSH2 0x989 SWAP1 PUSH2 0x1603 JUMP JUMPDEST PUSH1 0x40 MLOAD DUP1 SWAP2 SUB SWAP1 REVERT JUMPDEST PUSH2 0x9A6 DUP5 DUP5 PUSH2 0x9A1 DUP5 DUP7 PUSH2 0xFC8 JUMP JUMPDEST PUSH2 0x758 JUMP JUMPDEST JUMPDEST POP POP POP POP JUMP JUMPDEST PUSH0 PUSH20 0xFFFFFFFFFFFFFFFFFFFFFFFFFFFFFFFFFFFFFFFF AND DUP4 PUSH20 0xFFFFFFFFFFFFFFFFFFFFFFFFFFFFFFFFFFFFFFFF AND SUB PUSH2 0xA1B JUMPI PUSH1 0x40 MLOAD PUSH32 0x8C379A000000000000000000000000000000000000000000000000000000000 DUP2 MSTORE PUSH1 0x4 ADD PUSH2 0xA12 SWAP1 PUSH2 0x1691 JUMP JUMPDEST PUSH1 0x40 MLOAD DUP1 SWAP2 SUB SWAP1 REVERT JUMPDEST PUSH0 PUSH20 0xFFFFFFFFFFFFFFFFFFFFFFFFFFFFFFFFFFFFFFFF AND DUP3 PUSH20 0xFFFFFFFFFFFFFFFFFFFFFFFFFFFFFFFFFFFFFFFF AND SUB PUSH2 0xA89 JUMPI PUSH1 0x40 MLOAD PUSH32 0x8C379A000000000000000000000000000000000000000000000000000000000 DUP2 MSTORE PUSH1 0x4 ADD PUSH2 0xA80 SWAP1 PUSH2 0x171F JUMP JUMPDEST PUSH1 0x40 MLOAD DUP1 SWAP2 SUB SWAP1 REVERT JUMPDEST PUSH2 0xA94 DUP4 DUP4 DUP4 PUSH2 0x1020 JUMP JUMPDEST PUSH0 PUSH0 PUSH0 DUP6 PUSH20 0xFFFFFFFFFFFFFFFFFFFFFFFFFFFFFFFFFFFFFFFF AND PUSH20 0xFFFFFFFFFFFFFFFFFFFFFFFFFFFFFFFFFFFFFFFF AND DUP2 MSTORE PUSH1 0x20 ADD SWAP1 DUP2 MSTORE PUSH1 0x20 ADD PUSH0 KECCAK256 SLOAD SWAP1 POP DUP2 DUP2 LT ISZERO PUSH2 0xB17 JUMPI PUSH1 0x40 MLOAD PUSH32 0x8C379A000000000000000000000000000000000000000000000000000000000 DUP2 MSTORE PUSH1 0x4 ADD PUSH2 0xB0E SWAP1 PUSH2 0x17AD JUMP JUMPDEST PUSH1 0x40 MLOAD DUP1 SWAP2 SUB SWAP1 REVERT JUMPDEST PUSH2 0xB21 DUP2 DUP4 PUSH2 0xFC8 JUMP JUMPDEST PUSH0 PUSH0 DUP7 PUSH20 0xFFFFFFFFFFFFFFFFFFFFFFFFFFFFFFFFFFFFFFFF AND PUSH20 0xFFFFFFFFFFFFFFFFFFFFFFFFFFFFFFFFFFFFFFFF AND DUP2 MSTORE PUSH1 0x20 ADD SWAP1 DUP2 MSTORE PUSH1 0x20 ADD PUSH0 KECCAK256 DUP2 SWAP1 SSTORE POP PUSH2 0xBA7 PUSH0 PUSH0 DUP6 PUSH20 0xFFFFFFFFFFFFFFFFFFFFFFFFFFFFFFFFFFFFFFFF AND PUSH20 0xFFFFFFFFFFFFFFFFFFFFFFFFFFFFFFFFFFFFFFFF AND DUP2 MSTORE PUSH1 0x20 ADD SWAP1 DUP2 MSTORE PUSH1 0x20 ADD PUSH0 KECCAK256 SLOAD DUP4 PUSH2 0xC5D JUMP JUMPDEST PUSH0 PUSH0 DUP6 PUSH20 0xFFFFFFFFFFFFFFFFFFFFFFFFFFFFFFFFFFFFFFFF AND PUSH20 0xFFFFFFFFFFFFFFFFFFFFFFFFFFFFFFFFFFFFFFFF AND DUP2 MSTORE PUSH1 0x20 ADD SWAP1 DUP2 MSTORE PUSH1 0x20 ADD PUSH0 KECCAK256 DUP2 SWAP1 SSTORE POP DUP3 PUSH20 0xFFFFFFFFFFFFFFFFFFFFFFFFFFFFFFFFFFFFFFFF AND DUP5 PUSH20 0xFFFFFFFFFFFFFFFFFFFFFFFFFFFFFFFFFFFFFFFF AND PUSH32 0xDDF252AD1BE2C89B69C2B068FC378DAA952BA7F163C4A11628F55A4DF523B3EF DUP5 PUSH1 0x40 MLOAD PUSH2 0xC44 SWAP2 SWAP1 PUSH2 0x11CB JUMP JUMPDEST PUSH1 0x40 MLOAD DUP1 SWAP2 SUB SWAP1 LOG3 PUSH2 0xC57 DUP5 DUP5 DUP5 PUSH2 0x1025 JUMP JUMPDEST POP POP POP POP JUMP JUMPDEST PUSH0 PUSH0 DUP3 DUP5 PUSH2 0xC6B SWAP2 SWAP1 PUSH2 0x17F8 JUMP JUMPDEST SWAP1 POP DUP4 DUP2 LT ISZERO PUSH2 0xCB0 JUMPI PUSH1 0x40 MLOAD PUSH32 0x8C379A000000000000000000000000000000000000000000000000000000000 DUP2 MSTORE PUSH1 0x4 ADD PUSH2 0xCA7 SWAP1 PUSH2 0x1875 JUMP JUMPDEST PUSH1 0x40 MLOAD DUP1 SWAP2 SUB SWAP1 REVERT JUMPDEST DUP1 SWAP2 POP POP SWAP3 SWAP2 POP POP JUMP JUMPDEST PUSH0 PUSH20 0xFFFFFFFFFFFFFFFFFFFFFFFFFFFFFFFFFFFFFFFF AND DUP3 PUSH20 0xFFFFFFFFFFFFFFFFFFFFFFFFFFFFFFFFFFFFFFFF AND SUB PUSH2 0xD28 JUMPI PUSH1 0x40 MLOAD PUSH32 0x8C379A000000000000000000000000000000000000000000000000000000000 DUP2 MSTORE PUSH1 0x4 ADD PUSH2 0xD1F SWAP1 PUSH2 0x1903 JUMP JUMPDEST PUSH1 0x40 MLOAD DUP1 SWAP2 SUB SWAP1 REVERT JUMPDEST PUSH2 0xD33 DUP3 PUSH0 DUP4 PUSH2 0x1020 JUMP JUMPDEST PUSH0 PUSH0 PUSH0 DUP5 PUSH20 0xFFFFFFFFFFFFFFFFFFFFFFFFFFFFFFFFFFFFFFFF AND PUSH20 0xFFFFFFFFFFFFFFFFFFFFFFFFFFFFFFFFFFFFFFFF AND DUP2 MSTORE PUSH1 0x20 ADD SWAP1 DUP2 MSTORE PUSH1 0x20 ADD PUSH0 KECCAK256 SLOAD SWAP1 POP DUP2 DUP2 LT ISZERO PUSH2 0xDB6 JUMPI PUSH1 0x40 MLOAD PUSH32 0x8C379A000000000000000000000000000000000000000000000000000000000 DUP2 MSTORE PUSH1 0x4 ADD PUSH2 0xDAD SWAP1 PUSH2 0x1991 JUMP JUMPDEST PUSH1 0x40 MLOAD DUP1 SWAP2 SUB SWAP1 REVERT JUMPDEST PUSH2 0xDC0 DUP2 DUP4 PUSH2 0xFC8 JUMP JUMPDEST PUSH0 PUSH0 DUP6 PUSH20 0xFFFFFFFFFFFFFFFFFFFFFFFFFFFFFFFFFFFFFFFF AND PUSH20 0xFFFFFFFFFFFFFFFFFFFFFFFFFFFFFFFFFFFFFFFF AND DUP2 MSTORE PUSH1 0x20 ADD SWAP1 DUP2 MSTORE PUSH1 0x20 ADD PUSH0 KECCAK256 DUP2 SWAP1 SSTORE POP PUSH2 0xE0C PUSH1 0x2 SLOAD DUP4 PUSH2 0xFC8 JUMP JUMPDEST PUSH1 0x2 DUP2 SWAP1 SSTORE POP PUSH0 PUSH20 0xFFFFFFFFFFFFFFFFFFFFFFFFFFFFFFFFFFFFFFFF AND DUP4 PUSH20 0xFFFFFFFFFFFFFFFFFFFFFFFFFFFFFFFFFFFFFFFF AND PUSH32 0xDDF252AD1BE2C89B69C2B068FC378DAA952BA7F163C4A11628F55A4DF523B3EF DUP5 PUSH1 0x40 MLOAD PUSH2 0xE6F SWAP2 SWAP1 PUSH2 0x11CB JUMP JUMPDEST PUSH1 0x40 MLOAD DUP1 SWAP2 SUB SWAP1 LOG3 PUSH2 0xE82 DUP4 PUSH0 DUP5 PUSH2 0x1025 JUMP JUMPDEST POP POP POP JUMP JUMPDEST PUSH2 0xE8F PUSH2 0x751 JUMP JUMPDEST PUSH20 0xFFFFFFFFFFFFFFFFFFFFFFFFFFFFFFFFFFFFFFFF AND PUSH2 0xEAD PUSH2 0x4F7 JUMP JUMPDEST PUSH20 0xFFFFFFFFFFFFFFFFFFFFFFFFFFFFFFFFFFFFFFFF AND EQ PUSH2 0xF03 JUMPI PUSH1 0x40 MLOAD PUSH32 0x8C379A000000000000000000000000000000000000000000000000000000000 DUP2 MSTORE PUSH1 0x4 ADD PUSH2 0xEFA SWAP1 PUSH2 0x19F9 JUMP JUMPDEST PUSH1 0x40 MLOAD DUP1 SWAP2 SUB SWAP1 REVERT JUMPDEST JUMP JUMPDEST PUSH0 PUSH1 0x5 PUSH0 SWAP1 SLOAD SWAP1 PUSH2 0x100 EXP SWAP1 DIV PUSH20 0xFFFFFFFFFFFFFFFFFFFFFFFFFFFFFFFFFFFFFFFF AND SWAP1 POP DUP2 PUSH1 0x5 PUSH0 PUSH2 0x100 EXP DUP2 SLOAD DUP2 PUSH20 0xFFFFFFFFFFFFFFFFFFFFFFFFFFFFFFFFFFFFFFFF MUL NOT AND SWAP1 DUP4 PUSH20 0xFFFFFFFFFFFFFFFFFFFFFFFFFFFFFFFFFFFFFFFF AND MUL OR SWAP1 SSTORE POP DUP2 PUSH20 0xFFFFFFFFFFFFFFFFFFFFFFFFFFFFFFFFFFFFFFFF AND DUP2 PUSH20 0xFFFFFFFFFFFFFFFFFFFFFFFFFFFFFFFFFFFFFFFF AND PUSH32 0x8BE0079C531659141344CD1FD0A4F28419497F9722A3DAAFE3B4186F6B6457E0 PUSH1 0x40 MLOAD PUSH1 0x40 MLOAD DUP1 SWAP2 SUB SWAP1 LOG3 POP POP JUMP JUMPDEST PUSH0 DUP3 DUP3 GT ISZERO PUSH2 0x100C JUMPI PUSH1 0x40 MLOAD PUSH32 0x8C379A000000000000000000000000000000000000000000000000000000000 DUP2 MSTORE PUSH1 0x4 ADD PUSH2 0x1003 SWAP1 PUSH2 0x1A61 JUMP JUMPDEST PUSH1 0x40 MLOAD DUP1 SWAP2 SUB SWAP1 REVERT JUMPDEST DUP2 DUP4 PUSH2 0x1018 SWAP2 SWAP1 PUSH2 0x1A7F JUMP JUMPDEST SWAP1 POP SWAP3 SWAP2 POP POP JUMP JUMPDEST POP POP POP JUMP JUMPDEST POP POP POP JUMP JUMPDEST PUSH0 DUP2 MLOAD SWAP1 POP SWAP2 SWAP1 POP JUMP JUMPDEST PUSH0 DUP3 DUP3 MSTORE PUSH1 0x20 DUP3 ADD SWAP1 POP SWAP3 SWAP2 POP POP JUMP JUMPDEST DUP3 DUP2 DUP4 MCOPY PUSH0 DUP4 DUP4 ADD MSTORE POP POP POP JUMP JUMPDEST PUSH0 PUSH1 0x1F NOT PUSH1 0x1F DUP4 ADD AND SWAP1 POP SWAP2 SWAP1 POP JUMP JUMPDEST PUSH0 PUSH2 0x106C DUP3 PUSH2 0x102A JUMP JUMPDEST PUSH2 0x1076 DUP2 DUP6 PUSH2 0x1034 JUMP JUMPDEST SWAP4 POP PUSH2 0x1086 DUP2 DUP6 PUSH1 0x20 DUP7 ADD PUSH2 0x1044 JUMP JUMPDEST PUSH2 0x108F DUP2 PUSH2 0x1052 JUMP JUMPDEST DUP5 ADD SWAP2 POP POP SWAP3 SWAP2 POP POP JUMP JUMPDEST PUSH0 PUSH1 0x20 DUP3 ADD SWAP1 POP DUP2 DUP2 SUB PUSH0 DUP4 ADD MSTORE PUSH2 0x10B2 DUP2 DUP5 PUSH2 0x1062 JUMP JUMPDEST SWAP1 POP SWAP3 SWAP2 POP POP JUMP JUMPDEST PUSH0 PUSH0 REVERT JUMPDEST PUSH0 PUSH20 0xFFFFFFFFFFFFFFFFFFFFFFFFFFFFFFFFFFFFFFFF DUP3 AND SWAP1 POP SWAP2 SWAP1 POP JUMP JUMPDEST PUSH0 PUSH2 0x10E7 DUP3 PUSH2 0x10BE JUMP JUMPDEST SWAP1 POP SWAP2 SWAP1 POP JUMP JUMPDEST PUSH2 0x10F7 DUP2 PUSH2 0x10DD JUMP JUMPDEST DUP2 EQ PUSH2 0x1101 JUMPI PUSH0 PUSH0 REVERT JUMPDEST POP JUMP JUMPDEST PUSH0 DUP2 CALLDATALOAD SWAP1 POP PUSH2 0x1112 DUP2 PUSH2 0x10EE JUMP JUMPDEST SWAP3 SWAP2 POP POP JUMP JUMPDEST PUSH0 DUP2 SWAP1 POP SWAP2 SWAP1 POP JUMP JUMPDEST PUSH2 0x112A DUP2 PUSH2 0x1118 JUMP JUMPDEST DUP2 EQ PUSH2 0x1134 JUMPI PUSH0 PUSH0 REVERT JUMPDEST POP JUMP JUMPDEST PUSH0 DUP2 CALLDATALOAD SWAP1 POP PUSH2 0x1145 DUP2 PUSH2 0x1121 JUMP JUMPDEST SWAP3 SWAP2 POP POP JUMP JUMPDEST PUSH0 PUSH0 PUSH1 0x40 DUP4 DUP6 SUB SLT ISZERO PUSH2 0x1161 JUMPI PUSH2 0x1160 PUSH2 0x10BA JUMP JUMPDEST JUMPDEST PUSH0 PUSH2 0x116E DUP6 DUP3 DUP7 ADD PUSH2 0x1104 JUMP JUMPDEST SWAP3 POP POP PUSH1 0x20 PUSH2 0x117F DUP6 DUP3 DUP7 ADD PUSH2 0x1137 JUMP JUMPDEST SWAP2 POP POP SWAP3 POP SWAP3 SWAP1 POP JUMP JUMPDEST PUSH0 DUP2 ISZERO ISZERO SWAP1 POP SWAP2 SWAP1 POP JUMP JUMPDEST PUSH2 0x119D DUP2 PUSH2 0x1189 JUMP JUMPDEST DUP3 MSTORE POP POP JUMP JUMPDEST PUSH0 PUSH1 0x20 DUP3 ADD SWAP1 POP PUSH2 0x11B6 PUSH0 DUP4 ADD DUP5 PUSH2 0x1194 JUMP JUMPDEST SWAP3 SWAP2 POP POP JUMP JUMPDEST PUSH2 0x11C5 DUP2 PUSH2 0x1118 JUMP JUMPDEST DUP3 MSTORE POP POP JUMP JUMPDEST PUSH0 PUSH1 0x20 DUP3 ADD SWAP1 POP PUSH2 0x11DE PUSH0 DUP4 ADD DUP5 PUSH2 0x11BC JUMP JUMPDEST SWAP3 SWAP2 POP POP JUMP JUMPDEST PUSH0 PUSH0 PUSH0 PUSH1 0x60 DUP5 DUP7 SUB SLT ISZERO PUSH2 0x11FB JUMPI PUSH2 0x11FA PUSH2 0x10BA JUMP JUMPDEST JUMPDEST PUSH0 PUSH2 0x1208 DUP7 DUP3 DUP8 ADD PUSH2 0x1104 JUMP JUMPDEST SWAP4 POP POP PUSH1 0x20 PUSH2 0x1219 DUP7 DUP3 DUP8 ADD PUSH2 0x1104 JUMP JUMPDEST SWAP3 POP POP PUSH1 0x40 PUSH2 0x122A DUP7 DUP3 DUP8 ADD PUSH2 0x1137 JUMP JUMPDEST SWAP2 POP POP SWAP3 POP SWAP3 POP SWAP3 JUMP JUMPDEST PUSH0 PUSH1 0xFF DUP3 AND SWAP1 POP SWAP2 SWAP1 POP JUMP JUMPDEST PUSH2 0x1249 DUP2 PUSH2 0x1234 JUMP JUMPDEST DUP3 MSTORE POP POP JUMP JUMPDEST PUSH0 PUSH1 0x20 DUP3 ADD SWAP1 POP PUSH2 0x1262 PUSH0 DUP4 ADD DUP5 PUSH2 0x1240 JUMP JUMPDEST SWAP3 SWAP2 POP POP JUMP JUMPDEST PUSH0 PUSH1 0x20 DUP3 DUP5 SUB SLT ISZERO PUSH2 0x127D JUMPI PUSH2 0x127C PUSH2 0x10BA JUMP JUMPDEST JUMPDEST PUSH0 PUSH2 0x128A DUP5 DUP3 DUP6 ADD PUSH2 0x1137 JUMP JUMPDEST SWAP2 POP POP SWAP3 SWAP2 POP POP JUMP JUMPDEST PUSH0 PUSH1 0x20 DUP3 DUP5 SUB SLT ISZERO PUSH2 0x12A8 JUMPI PUSH2 0x12A7 PUSH2 0x10BA JUMP JUMPDEST JUMPDEST PUSH0 PUSH2 0x12B5 DUP5 DUP3 DUP6 ADD PUSH2 0x1104 JUMP JUMPDEST SWAP2 POP POP SWAP3 SWAP2 POP POP JUMP JUMPDEST PUSH2 0x12C7 DUP2 PUSH2 0x10DD JUMP JUMPDEST DUP3 MSTORE POP POP JUMP JUMPDEST PUSH0 PUSH1 0x20 DUP3 ADD SWAP1 POP PUSH2 0x12E0 PUSH0 DUP4 ADD DUP5 PUSH2 0x12BE JUMP JUMPDEST SWAP3 SWAP2 POP POP JUMP JUMPDEST PUSH0 PUSH0 PUSH1 0x40 DUP4 DUP6 SUB SLT ISZERO PUSH2 0x12FC JUMPI PUSH2 0x12FB PUSH2 0x10BA JUMP JUMPDEST JUMPDEST PUSH0 PUSH2 0x1309 DUP6 DUP3 DUP7 ADD PUSH2 0x1104 JUMP JUMPDEST SWAP3 POP POP PUSH1 0x20 PUSH2 0x131A DUP6 DUP3 DUP7 ADD PUSH2 0x1104 JUMP JUMPDEST SWAP2 POP POP SWAP3 POP SWAP3 SWAP1 POP JUMP JUMPDEST PUSH32 0x4E487B7100000000000000000000000000000000000000000000000000000000 PUSH0 MSTORE PUSH1 0x22 PUSH1 0x4 MSTORE PUSH1 0x24 PUSH0 REVERT JUMPDEST PUSH0 PUSH1 0x2 DUP3 DIV SWAP1 POP PUSH1 0x1 DUP3 AND DUP1 PUSH2 0x1368 JUMPI PUSH1 0x7F DUP3 AND SWAP2 POP JUMPDEST PUSH1 0x20 DUP3 LT DUP2 SUB PUSH2 0x137B JUMPI PUSH2 0x137A PUSH2 0x1324 JUMP JUMPDEST JUMPDEST POP SWAP2 SWAP1 POP JUMP JUMPDEST PUSH32 0x45524332303A2064656372656173656420616C6C6F77616E63652062656C6F77 PUSH0 DUP3 ADD MSTORE PUSH32 0x207A65726F000000000000000000000000000000000000000000000000000000 PUSH1 0x20 DUP3 ADD MSTORE POP JUMP JUMPDEST PUSH0 PUSH2 0x13DB PUSH1 0x25 DUP4 PUSH2 0x1034 JUMP JUMPDEST SWAP2 POP PUSH2 0x13E6 DUP3 PUSH2 0x1381 JUMP JUMPDEST PUSH1 0x40 DUP3 ADD SWAP1 POP SWAP2 SWAP1 POP JUMP JUMPDEST PUSH0 PUSH1 0x20 DUP3 ADD SWAP1 POP DUP2 DUP2 SUB PUSH0 DUP4 ADD MSTORE PUSH2 0x1408 DUP2 PUSH2 0x13CF JUMP JUMPDEST SWAP1 POP SWAP2 SWAP1 POP JUMP JUMPDEST PUSH32 0x4F776E61626C653A206E6577206F776E657220697320746865207A65726F2061 PUSH0 DUP3 ADD MSTORE PUSH32 0x6464726573730000000000000000000000000000000000000000000000000000 PUSH1 0x20 DUP3 ADD MSTORE POP JUMP JUMPDEST PUSH0 PUSH2 0x1469 PUSH1 0x26 DUP4 PUSH2 0x1034 JUMP JUMPDEST SWAP2 POP PUSH2 0x1474 DUP3 PUSH2 0x140F JUMP JUMPDEST PUSH1 0x40 DUP3 ADD SWAP1 POP SWAP2 SWAP1 POP JUMP JUMPDEST PUSH0 PUSH1 0x20 DUP3 ADD SWAP1 POP DUP2 DUP2 SUB PUSH0 DUP4 ADD MSTORE PUSH2 0x1496 DUP2 PUSH2 0x145D JUMP JUMPDEST SWAP1 POP SWAP2 SWAP1 POP JUMP JUMPDEST PUSH32 0x45524332303A20617070726F76652066726F6D20746865207A65726F20616464 PUSH0 DUP3 ADD MSTORE PUSH32 0x7265737300000000000000000000000000000000000000000000000000000000 PUSH1 0x20 DUP3 ADD MSTORE POP JUMP JUMPDEST PUSH0 PUSH2 0x14F7 PUSH1 0x24 DUP4 PUSH2 0x1034 JUMP JUMPDEST SWAP2 POP PUSH2 0x1502 DUP3 PUSH2 0x149D JUMP JUMPDEST PUSH1 0x40 DUP3 ADD SWAP1 POP SWAP2 SWAP1 POP JUMP JUMPDEST PUSH0 PUSH1 0x20 DUP3 ADD SWAP1 POP DUP2 DUP2 SUB PUSH0 DUP4 ADD MSTORE PUSH2 0x1524 DUP2 PUSH2 0x14EB JUMP JUMPDEST SWAP1 POP SWAP2 SWAP1 POP JUMP JUMPDEST PUSH32 0x45524332303A20617070726F766520746F20746865207A65726F206164647265 PUSH0 DUP3 ADD MSTORE PUSH32 0x7373000000000000000000000000000000000000000000000000000000000000 PUSH1 0x20 DUP3 ADD MSTORE POP JUMP JUMPDEST PUSH0 PUSH2 0x1585 PUSH1 0x22 DUP4 PUSH2 0x1034 JUMP JUMPDEST SWAP2 POP PUSH2 0x1590 DUP3 PUSH2 0x152B JUMP JUMPDEST PUSH1 0x40 DUP3 ADD SWAP1 POP SWAP2 SWAP1 POP JUMP JUMPDEST PUSH0 PUSH1 0x20 DUP3 ADD SWAP1 POP DUP2 DUP2 SUB PUSH0 DUP4 ADD MSTORE PUSH2 0x15B2 DUP2 PUSH2 0x1579 JUMP JUMPDEST SWAP1 POP SWAP2 SWAP1 POP JUMP JUMPDEST PUSH32 0x45524332303A20696E73756666696369656E7420616C6C6F77616E6365000000 PUSH0 DUP3 ADD MSTORE POP JUMP JUMPDEST PUSH0 PUSH2 0x15ED PUSH1 0x1D DUP4 PUSH2 0x1034 JUMP JUMPDEST SWAP2 POP PUSH2 0x15F8 DUP3 PUSH2 0x15B9 JUMP JUMPDEST PUSH1 0x20 DUP3 ADD SWAP1 POP SWAP2 SWAP1 POP JUMP JUMPDEST PUSH0 PUSH1 0x20 DUP3 ADD SWAP1 POP DUP2 DUP2 SUB PUSH0 DUP4 ADD MSTORE PUSH2 0x161A DUP2 PUSH2 0x15E1 JUMP JUMPDEST SWAP1 POP SWAP2 SWAP1 POP JUMP JUMPDEST PUSH32 0x45524332303A207472616E736665722066726F6D20746865207A65726F206164 PUSH0 DUP3 ADD MSTORE PUSH32 0x6472657373000000000000000000000000000000000000000000000000000000 PUSH1 0x20 DUP3 ADD MSTORE POP JUMP JUMPDEST PUSH0 PUSH2 0x167B PUSH1 0x25 DUP4 PUSH2 0x1034 JUMP JUMPDEST SWAP2 POP PUSH2 0x1686 DUP3 PUSH2 0x1621 JUMP JUMPDEST PUSH1 0x40 DUP3 ADD SWAP1 POP SWAP2 SWAP1 POP JUMP JUMPDEST PUSH0 PUSH1 0x20 DUP3 ADD SWAP1 POP DUP2 DUP2 SUB PUSH0 DUP4 ADD MSTORE PUSH2 0x16A8 DUP2 PUSH2 0x166F JUMP JUMPDEST SWAP1 POP SWAP2 SWAP1 POP JUMP JUMPDEST PUSH32 0x45524332303A207472616E7366657220746F20746865207A65726F2061646472 PUSH0 DUP3 ADD MSTORE PUSH32 0x6573730000000000000000000000000000000000000000000000000000000000 PUSH1 0x20 DUP3 ADD MSTORE POP JUMP JUMPDEST PUSH0 PUSH2 0x1709 PUSH1 0x23 DUP4 PUSH2 0x1034 JUMP JUMPDEST SWAP2 POP PUSH2 0x1714 DUP3 PUSH2 0x16AF JUMP JUMPDEST PUSH1 0x40 DUP3 ADD SWAP1 POP SWAP2 SWAP1 POP JUMP JUMPDEST PUSH0 PUSH1 0x20 DUP3 ADD SWAP1 POP DUP2 DUP2 SUB PUSH0 DUP4 ADD MSTORE PUSH2 0x1736 DUP2 PUSH2 0x16FD JUMP JUMPDEST SWAP1 POP SWAP2 SWAP1 POP JUMP JUMPDEST PUSH32 0x45524332303A207472616E7366657220616D6F756E7420657863656564732062 PUSH0 DUP3 ADD MSTORE PUSH32 0x616C616E63650000000000000000000000000000000000000000000000000000 PUSH1 0x20 DUP3 ADD MSTORE POP JUMP JUMPDEST PUSH0 PUSH2 0x1797 PUSH1 0x26 DUP4 PUSH2 0x1034 JUMP JUMPDEST SWAP2 POP PUSH2 0x17A2 DUP3 PUSH2 0x173D JUMP JUMPDEST PUSH1 0x40 DUP3 ADD SWAP1 POP SWAP2 SWAP1 POP JUMP JUMPDEST PUSH0 PUSH1 0x20 DUP3 ADD SWAP1 POP DUP2 DUP2 SUB PUSH0 DUP4 ADD MSTORE PUSH2 0x17C4 DUP2 PUSH2 0x178B JUMP JUMPDEST SWAP1 POP SWAP2 SWAP1 POP JUMP JUMPDEST PUSH32 0x4E487B7100000000000000000000000000000000000000000000000000000000 PUSH0 MSTORE PUSH1 0x11 PUSH1 0x4 MSTORE PUSH1 0x24 PUSH0 REVERT JUMPDEST PUSH0 PUSH2 0x1802 DUP3 PUSH2 0x1118 JUMP JUMPDEST SWAP2 POP PUSH2 0x180D DUP4 PUSH2 0x1118 JUMP JUMPDEST SWAP3 POP DUP3 DUP3 ADD SWAP1 POP DUP1 DUP3 GT ISZERO PUSH2 0x1825 JUMPI PUSH2 0x1824 PUSH2 0x17CB JUMP JUMPDEST JUMPDEST SWAP3 SWAP2 POP POP JUMP JUMPDEST PUSH32 0x536166654D6174683A206164646974696F6E206F766572666C6F770000000000 PUSH0 DUP3 ADD MSTORE POP JUMP JUMPDEST PUSH0 PUSH2 0x185F PUSH1 0x1B DUP4 PUSH2 0x1034 JUMP JUMPDEST SWAP2 POP PUSH2 0x186A DUP3 PUSH2 0x182B JUMP JUMPDEST PUSH1 0x20 DUP3 ADD SWAP1 POP SWAP2 SWAP1 POP JUMP JUMPDEST PUSH0 PUSH1 0x20 DUP3 ADD SWAP1 POP DUP2 DUP2 SUB PUSH0 DUP4 ADD MSTORE PUSH2 0x188C DUP2 PUSH2 0x1853 JUMP JUMPDEST SWAP1 POP SWAP2 SWAP1 POP JUMP JUMPDEST PUSH32 0x45524332303A206275726E2066726F6D20746865207A65726F20616464726573 PUSH0 DUP3 ADD MSTORE PUSH32 0x7300000000000000000000000000000000000000000000000000000000000000 PUSH1 0x20 DUP3 ADD MSTORE POP JUMP JUMPDEST PUSH0 PUSH2 0x18ED PUSH1 0x21 DUP4 PUSH2 0x1034 JUMP JUMPDEST SWAP2 POP PUSH2 0x18F8 DUP3 PUSH2 0x1893 JUMP JUMPDEST PUSH1 0x40 DUP3 ADD SWAP1 POP SWAP2 SWAP1 POP JUMP JUMPDEST PUSH0 PUSH1 0x20 DUP3 ADD SWAP1 POP DUP2 DUP2 SUB PUSH0 DUP4 ADD MSTORE PUSH2 0x191A DUP2 PUSH2 0x18E1 JUMP JUMPDEST SWAP1 POP SWAP2 SWAP1 POP JUMP JUMPDEST PUSH32 0x45524332303A206275726E20616D6F756E7420657863656564732062616C616E PUSH0 DUP3 ADD MSTORE PUSH32 0x6365000000000000000000000000000000000000000000000000000000000000 PUSH1 0x20 DUP3 ADD MSTORE POP JUMP JUMPDEST PUSH0 PUSH2 0x197B PUSH1 0x22 DUP4 PUSH2 0x1034 JUMP JUMPDEST SWAP2 POP PUSH2 0x1986 DUP3 PUSH2 0x1921 JUMP JUMPDEST PUSH1 0x40 DUP3 ADD SWAP1 POP SWAP2 SWAP1 POP JUMP JUMPDEST PUSH0 PUSH1 0x20 DUP3 ADD SWAP1 POP DUP2 DUP2 SUB PUSH0 DUP4 ADD MSTORE PUSH2 0x19A8 DUP2 PUSH2 0x196F JUMP JUMPDEST SWAP1 POP SWAP2 SWAP1 POP JUMP JUMPDEST PUSH32 0x4F776E61626C653A2063616C6C6572206973206E6F7420746865206F776E6572 PUSH0 DUP3 ADD MSTORE POP JUMP JUMPDEST PUSH0 PUSH2 0x19E3 PUSH1 0x20 DUP4 PUSH2 0x1034 JUMP JUMPDEST SWAP2 POP PUSH2 0x19EE DUP3 PUSH2 0x19AF JUMP JUMPDEST PUSH1 0x20 DUP3 ADD SWAP1 POP SWAP2 SWAP1 POP JUMP JUMPDEST PUSH0 PUSH1 0x20 DUP3 ADD SWAP1 POP DUP2 DUP2 SUB PUSH0 DUP4 ADD MSTORE PUSH2 0x1A10 DUP2 PUSH2 0x19D7 JUMP JUMPDEST SWAP1 POP SWAP2 SWAP1 POP JUMP JUMPDEST PUSH32 0x536166654D6174683A207375627472616374696F6E206F766572666C6F770000 PUSH0 DUP3 ADD MSTORE POP JUMP JUMPDEST PUSH0 PUSH2 0x1A4B PUSH1 0x1E DUP4 PUSH2 0x1034 JUMP JUMPDEST SWAP2 POP PUSH2 0x1A56 DUP3 PUSH2 0x1A17 JUMP JUMPDEST PUSH1 0x20 DUP3 ADD SWAP1 POP SWAP2 SWAP1 POP JUMP JUMPDEST PUSH0 PUSH1 0x20 DUP3 ADD SWAP1 POP DUP2 DUP2 SUB PUSH0 DUP4 ADD MSTORE PUSH2 0x1A78 DUP2 PUSH2 0x1A3F JUMP JUMPDEST SWAP1 POP SWAP2 SWAP1 POP JUMP JUMPDEST PUSH0 PUSH2 0x1A89 DUP3 PUSH2 0x1118 JUMP JUMPDEST SWAP2 POP PUSH2 0x1A94 DUP4 PUSH2 0x1118 JUMP JUMPDEST SWAP3 POP DUP3 DUP3 SUB SWAP1 POP DUP2 DUP2 GT ISZERO PUSH2 0x1AAC JUMPI PUSH2 0x1AAB PUSH2 0x17CB JUMP JUMPDEST JUMPDEST SWAP3 SWAP2 POP POP JUMP INVALID LOG2 PUSH5 0x6970667358 0x22 SLT KECCAK256 0x24 0xC4 PUSH30 0xF3E4F27AEA5CAA9EC93595B325C3E29AB60799AA08E2CA97B291EED19064 PUSH20 0x6F6C634300081B00330000000000000000000000 "
				},
				"gasEstimates": {
					"creation": {
						"codeDepositCost": "1377600",
						"executionCost": "infinite",
						"totalCost": "infinite"
					},
					"external": {
						"allowance(address,address)": "infinite",
						"approve(address,uint256)": "infinite",
						"balanceOf(address)": "2917",
						"burn(uint256)": "infinite",
						"burnFrom(address,uint256)": "infinite",
						"decimals()": "361",
						"decreaseAllowance(address,uint256)": "infinite",
						"increaseAllowance(address,uint256)": "infinite",
						"name()": "infinite",
						"owner()": "2582",
						"renounceOwnership()": "30413",
						"symbol()": "infinite",
						"totalSupply()": "2500",
						"transfer(address,uint256)": "infinite",
						"transferFrom(address,address,uint256)": "infinite",
						"transferOwnership(address)": "30819"
					}
				},
				"methodIdentifiers": {
					"allowance(address,address)": "dd62ed3e",
					"approve(address,uint256)": "095ea7b3",
					"balanceOf(address)": "70a08231",
					"burn(uint256)": "42966c68",
					"burnFrom(address,uint256)": "79cc6790",
					"decimals()": "313ce567",
					"decreaseAllowance(address,uint256)": "a457c2d7",
					"increaseAllowance(address,uint256)": "39509351",
					"name()": "06fdde03",
					"owner()": "8da5cb5b",
					"renounceOwnership()": "715018a6",
					"symbol()": "95d89b41",
					"totalSupply()": "18160ddd",
					"transfer(address,uint256)": "a9059cbb",
					"transferFrom(address,address,uint256)": "23b872dd",
					"transferOwnership(address)": "f2fde38b"
				}
			},
			"storageLayout": {
				"storage": [
					{
						"astId": 38,
						"contract": "TapToken.sol:TapToken",
						"label": "_balances",
						"offset": 0,
						"slot": "0",
						"type": "t_mapping(t_address,t_uint256)"
					},
					{
						"astId": 44,
						"contract": "TapToken.sol:TapToken",
						"label": "_allowances",
						"offset": 0,
						"slot": "1",
						"type": "t_mapping(t_address,t_mapping(t_address,t_uint256))"
					},
					{
						"astId": 46,
						"contract": "TapToken.sol:TapToken",
						"label": "_totalSupply",
						"offset": 0,
						"slot": "2",
						"type": "t_uint256"
					},
					{
						"astId": 48,
						"contract": "TapToken.sol:TapToken",
						"label": "_name",
						"offset": 0,
						"slot": "3",
						"type": "t_string_storage"
					},
					{
						"astId": 50,
						"contract": "TapToken.sol:TapToken",
						"label": "_symbol",
						"offset": 0,
						"slot": "4",
						"type": "t_string_storage"
					},
					{
						"astId": 794,
						"contract": "TapToken.sol:TapToken",
						"label": "_owner",
						"offset": 0,
						"slot": "5",
						"type": "t_address"
					}
				],
				"types": {
					"t_address": {
						"encoding": "inplace",
						"label": "address",
						"numberOfBytes": "20"
					},
					"t_mapping(t_address,t_mapping(t_address,t_uint256))": {
						"encoding": "mapping",
						"key": "t_address",
						"label": "mapping(address => mapping(address => uint256))",
						"numberOfBytes": "32",
						"value": "t_mapping(t_address,t_uint256)"
					},
					"t_mapping(t_address,t_uint256)": {
						"encoding": "mapping",
						"key": "t_address",
						"label": "mapping(address => uint256)",
						"numberOfBytes": "32",
						"value": "t_uint256"
					},
					"t_string_storage": {
						"encoding": "bytes",
						"label": "string",
						"numberOfBytes": "32"
					},
					"t_uint256": {
						"encoding": "inplace",
						"label": "uint256",
						"numberOfBytes": "32"
					}
				}
			},
			"userdoc": {
				"kind": "user",
				"methods": {},
				"version": 1
			}
		}
	}
}